:020000040800F2
:100000000015002015020008A51C00089F18000814
:10001000A11C0008D10500085530000800000000B0
:100020000000000000000000000000006D1F00083C
:1000300005120008000000002D1D0008C52300085F
:100040002F0200082F0200082F0200082F020008CC
:100050002F0200082F0200082F0200082F020008BC
:100060002F0200082F0200082F0200082F020008AC
:100070002F0200082F0200082F0200082F0200089C
:100080002F0200082F0200082F0200082F0200088C
:10009000752F00082F0200082F0200082F02000809
:1000A0002F0200082F0200082F0200082F0200086C
:1000B0002F0200082F0200082F0200082F0200085C
:1000C0002F0200082F0200082F0200082F0200084C
:1000D0002F020008312C0008992C0008F12C000890
:1000E0002F0200082F0200082F0200082F0200082C
:1000F0002F0200082F0200082F0200082F0200081C
:100100002F0200082F0200082F0200082F0200080B
:10011000452B0008A92B00082F02000829240008FD
:100120002F0200082F0200082F0200082F020008EB
:1001300000F002F800F05EF80AA090E8000C82449B
:100140008344AAF10107DA4501D100F053F8AFF278
:10015000090EBAE80F0013F0010F18BFFB1A43F0A5
:1001600001031847D0480000F048000010F8013B98
:100170000A4413F0030408BF10F8014B1D1108BF17
:1001800010F8015B641E05D010F8016B641E01F8C5
:10019000016BF9D1002D15D010F8014B03F00C03C1
:1001A0000C2BA1EB04040ABF10F8013BA4EB831451
:1001B000A4EB032405F1010314F8016B5B1E01F8A5
:1001C000016BF9D5914238BF10F8013BD1D370478C
:1001D0000023002400250026103A28BF78C1FBD850
:1001E000520728BF30C148BF0B6070471FB51FBD05
:1001F00010B510BD00F07AF81146FFF7F7FF03F0D5
:1002000085FA00F098F803B4FFF7F2FF03BC00F0A2
:100210009DF800000948804709480047FEE7FEE7CF
:10022000FEE7FEE7FEE7FEE7FEE7FEE7FEE7FEE7A6
:1002300004480549054A064B70470000C9230008D9
:1002400031010008000F00200015002000110020DF
:10025000001100204FF000020429C0F0128010F0BD
:10026000030C00F01E80CCF1040CBCF1020F18BF8F
:1002700000F8012BA8BF20F8022BA1EB0C0100F025
:1002800010B85FEAC17C24BF00F8012B00F8012BF5
:1002900048BF00F8012B70477047704770474FF018
:1002A000000200B5134694469646203922BFA0E8C6
:1002B0000C50A0E80C50B1F12001BFF4F7AF0907D2
:1002C00028BFA0E80C5048BF0CC05DF804EB8900C3
:1002D00028BF40F8042B08BF704748BF20F8022B06
:1002E00011F0804F18BF00F8012B7047754600F0E1
:1002F00029F8AE4605006946534620F007008546BA
:1003000018B020B5FFF794FFBDE820404FF000067D
:100310004FF000074FF000084FF0000B21F00701ED
:10032000AC46ACE8C009ACE8C009ACE8C009ACE830
:10033000C0098D4670470446AFF300802046FFF7A2
:1003400062FF000000487047A00E002001491820FD
:10035000ABBEFEE726000200704721B1826842F082
:100360000102826003E0826822F00102826070472D
:1003700010B504461248844208D10121401501F00D
:1003800013FD0021601501F00FFD17E00D488442B8
:1003900008D10121001501F007FD0021201501F011
:1003A00003FD0BE00848844208D10121C80301F095
:1003B000FBFC00214FF4004001F0F6FC10BD0000F2
:1003C0000024014000280140003C0140014600207B
:1003D0008A6802F004020AB1012000E000207047A0
:1003E0000146C86C80B270470246002013680B407B
:1003F0000BB1012000E000207047014600208A6810
:1004000002F008020AB1012000E00020704700005D
:1004100030B502460020002350680F4C20400D7973
:100420000C6844EA05242043506090680B4C20403F
:10043000D1E902542C434D7944EA450420439060AD
:10044000D06A20F470000C7C641EE4B2234340EABE
:100450000350D06230BD0000FFFEF0FFFDF7F1FF5A
:10046000F0B504460D4600200021092D11DDE0689D
:10047000A5F10A0606EB4607072606FA07F18843A8
:10048000A5F10A0606EB460603FA06F10843E0600A
:100490000CE0206905EB4507072606FA07F18843BB
:1004A00005EB450603FA06F108432061072A0FDA37
:1004B000606B561E06EB86071F2606FA07F1884377
:1004C000561E06EB860605FA06F10843606322E035
:1004D0000D2A0FDA206BD61F06EB86071F2606FAB9
:1004E00007F18843D61F06EB860605FA06F1084396
:1004F000206310E0E06AA2F10D0606EB86071F26D6
:1005000006FA07F18843A2F10D0606EB860605FA06
:1005100006F10843E062F0BD816841F008018160A6
:10052000704721B1826842F4A002826003E08268D1
:1005300022F4A00282607047816841F0040181606A
:100540007047000000B587B001214FF4047001F03E
:100550001BFC4FF4004001F0EBFB0820ADF8040059
:1005600000208DF8070001A9174800F04CFE17483D
:10057000FFF7FEFE002002908DF80C008DF80D00B4
:100580004FF4602004900020059001208DF81800A1
:1005900002A90E48FFF73CFF01210C48FFF7DDFEE2
:1005A0000A48FFF7B9FF00BF0848FFF726FF0028F9
:1005B000FAD10648FFF7C0FF00BF0448FFF706FF67
:1005C0000028FAD107B000BD00100140002401400E
:1005D00000BFFEE7B1F5007F3AD00FDC202928D01C
:1005E00006DC01291CD004291DD0082940D11DE0BA
:1005F000402921D0B1F5807F3AD126E0B1F5004FF6
:1006000031D006DCB1F5806F25D0B1F5006F2FD168
:1006100024E0B1F5803F12D0B1F5003F28D111E0C0
:10062000154A826025E00822C26022E01022C260E2
:100630001FE0082202611CE01022026119E008227A
:10064000426016E01022426013E00422426010E093
:10065000042242600DE0042242600AE0002282612E
:100660000422426005E0002282610422426000E030
:1006700000BF00BF704700000101010010B500215C
:10068000837A012202FA03F13D4A126842F0010224
:100690003B4B1A603A4A1C3212688A43384B1C336F
:1006A0001A60027BCAB9364A0C3212688A43344B4C
:1006B0000C331A604288C38842EA0343304A40320E
:1006C000847A42F834300288838842EA03432C4A11
:1006D0004032847A02EBC4025360027B012A19D1B2
:1006E000274A0C3212680A43254B0C331A604288A1
:1006F000038842EA0343224A4032847A42F8343083
:10070000C288838842EA03431D4A4032847A02EB5E
:10071000C4025360C27A3AB9194A121D12688A4358
:10072000174B1B1D1A6006E0154A121D12680A437A
:10073000134B1B1D1A60028932B9114A1432126818
:100740008A430F4B14331A600289012A06D10C4ADE
:10075000143212680A430A4B14331A60427B012A8E
:1007600006D1074A1C3212680A43054B1C331A6033
:10077000034A126822F00102014B1A6010BD00000A
:100780000066004070B504460D46002660692840AA
:10079000002871D0B5F5807F5CD010DC082D35D0F5
:1007A00006DC012D20D0022D24D0042D72D127E0AB
:1007B000102D31D0202D35D0402D6BD138E0B5F53E
:1007C000004F60D009DCB5F5007F49D0B5F5806FEA
:1007D0004CD0B5F5006F5DD14FE0B5F5803F2DD021
:1007E000B5F5003F56D12FE0A0682D4900F00CFB75
:1007F000064651E0E068032100F006FB06464BE0A8
:10080000E068082100F000FB064645E0E0681021A2
:1008100000F0FAFA06463FE02069032100F0F4FAFE
:10082000064639E02069082100F0EEFA064633E07A
:100830002069102100F0E8FA06462DE060680821E2
:1008400000F0E2FA064627E06068102100F0DCFACA
:10085000064621E0A069012100F0D6FA06461BE019
:10086000A069022100F0D0FA064615E0A069042133
:1008700000F0CAFA06460FE00FE0A069702100F010
:10088000C3FA064608E06068042100F0BDFA064697
:1008900002E0FFE7002600BF00E00026304670BD02
:1008A000010101001AB143690B43436102E043694E
:1008B0008B434361704730B5024600200023146823
:1008C00024F002041460146844F00104146000E091
:1008D0005B1C546804F001041CB94FF6FF74A3427A
:1008E000F6D1546804F001040CB900206CE08C7956
:1008F000012C04D1146844F08004146003E01468EF
:1009000024F080041460CC79012C04D1146844F0E4
:100910004004146003E0146824F0400414600C7A6E
:10092000012C04D1146844F02004146003E014681E
:1009300024F0200414604C7A012C04D1146844F093
:100940001004146003E0146824F0100414608C7A1E
:10095000012C04D1146844F00804146003E0146806
:1009600024F008041460CC7A012C04D1146844F0FB
:100970000404146003E0146824F0040414608C7808
:10098000A407CD7844EA05640D7944EA05444D791D
:1009900044EA05540D886D1E2C43D461146824F07C
:1009A00001041460002300E05B1C546804F001049F
:1009B0001CB14FF6FF74A342F6D1546804F0010451
:1009C0000CB1002000E0012030BD00002DE9F04115
:1009D0008AB004460D4616461F46DDF840800121C8
:1009E000084601F0D1F90121480601F0BDF90121C5
:1009F000082001F0C9F901214FF4EA1000F08EFC43
:100A00004FF40070ADF8240003208DF82600182064
:100A10008DF8270009A92E4800F0F5FB4FF48070EF
:100A2000ADF8240048208DF8270009A9284800F0D7
:100A3000EAFB00208DF81E008DF81F0001208DF8C4
:100A400020008DF8210000208DF8220001208DF873
:100A500023008DF81A808DF81B408DF81C608DF8EE
:100A60001D50ADF8187006A91A48FFF724FF0020A2
:100A70008DF812008DF8130001208DF8140000206D
:100A8000ADF80800ADF80A00ADF80C00ADF80E00A6
:100A9000ADF8100001208DF8150002A8FFF7EEFD5B
:100AA000012202210B48FFF7FDFE14208DF80400FF
:100AB00002208DF8050003208DF8060001208DF836
:100AC000070001A801F0F0F800200AB0BDE8F081AD
:100AD000000C01400064004010B500F5D87303EB32
:100AE00001131B6803F004031372137A53B900F562
:100AF000D87303EB01131B6840F2FF7404EA5353ED
:100B0000136009E000F5D87303EB01131B686FF065
:100B1000604404EAD303536000F5D87303EB011378
:100B20001B6803F00203537200F5D87303EB011343
:100B30005B6803F00F03937200F5D87303EB0113A6
:100B40005B681B0AD37400F5D87303EB01139B6831
:100B5000D37200F5D87303EB01139B681C0A14735E
:100B600000F5D87303EB01139B681C0C547300F55C
:100B7000D87303EB01139B681B0E937300F5D873B6
:100B800003EB0113DB68D37300F5D87303EB011398
:100B9000DB681C0A147400F5D87303EB0113DB68DF
:100BA0001C0C547400F5D87303EB0113DB681B0EA7
:100BB000937421B9C36843F02003C36003E0036961
:100BC00043F02003036110BD10B502460020936876
:100BD00003F08063B3F1806F00D110E0936803F0FD
:100BE0000063B3F1006F01D1012008E0936803F0C6
:100BF0008053B3F1805F01D1022000E0042004287B
:100C000074D002F5C07303EB00131B6803F00104FA
:100C100002F5C07303EB00131C600B7A7BB94B7AAF
:100C20000C8843EA445302F5C07404EB00142468B2
:100C3000234302F5C07404EB0014236010E00B7A28
:100C40004C6843EAC4034C7A234302F5C07404EBB6
:100C500000142468234302F5C07404EB00142360DD
:100C60008B7A03F00F038B7202F5C07303EB001352
:100C70005B6823F00F0402F5C07303EB00135C60A4
:100C800002F5C07303EB00135B688C7A234302F513
:100C9000C07404EB001463608B7B1C064B7B44EA3E
:100CA00003440B7B44EA0323CC7A234302F5C0744C
:100CB00004EB0014A3608B7C1C064B7C44EA0344C9
:100CC0000B7C44EA0323CC7B234302F5C07404EB82
:100CD0000014E36002F5C07303EB00131B6843F0DC
:100CE000010402F5C07303EB00131C6010BD00008B
:100CF00010B50246002321B1012907D002290FD1E6
:100D000009E090681D4C00EA04030BE090681C4C5D
:100D100000EA040306E090681A4C00EA040301E0CC
:100D2000002300BF00BF184C181BA34216D007DCDD
:100D300083B16FF08060184470B1022818D111E0BF
:100D4000B0F5007F10D0114C204448B1B0F5003F01
:100D50000ED10BE002230DE000230BE0002309E09D
:100D6000002307E0012305E0012303E0012301E064
:100D7000002300BF00BFD8B210BD00000300000474
:100D80000003000800000310000100080001FFF745
:100D90002DE9F04107460D469046002412201849DF
:100DA00008600846C0F804800420087200204872D9
:100DB0000846857200BF05E0395D11480B300155CA
:100DC000601C84B2AC42F7DB0D490E48FFF7FCFE15
:100DD0000646002401E0601C84B231460948FFF752
:100DE00087FF18B940F6FF708442F4DB40F6FF70CD
:100DF000844202DB0120BDE8F0810020FBE7000017
:100E0000F00D0020006400400246002002EA0103C9
:100E10000BB1012000E00020704700002DE9FC41EB
:100E200005460E4690461C46089F00200090019003
:100E3000A807000E114908700846007840EA06101D
:100E400008700846007840EA880008700846007874
:100E50008DF80000200A8DF80100E0B28DF8020044
:100E6000380A8DF80300F8B28DF80400044A08210E
:100E70006846FFF78DFFBDE8FC810000B60A002040
:100E8000F3E7F81000F0805111B10349086001E068
:100E9000024948607047000004040240000002401C
:100EA00021B1026842F00102026004E002684FF6DC
:100EB000FE731A40026070470146486880B270476E
:100EC00010B50022026847F6F0739A430C6A8B68EB
:100ED00023430C6923434C6923438C692343CC6926
:100EE00023434C6A23438C6A23431A430260CB6832
:100EF00043600B6883604B68C36010BD41607047FE
:100F000070B502460C46FF25FF2309E012F8010BDD
:100F100080EA05010648405C80EA03050548435C19
:100F20002000A4F10106B4B2F0D143EA052070BD5F
:100F3000300400203005002010B592B00446012195
:100F4000102000F021FF0121022000F0FDFE012110
:100F5000C80400F009FF4FF48060ADF8440003209E
:100F60008DF8460018208DF8470011A9314800F08F
:100F70004AF94FF40060ADF8440004208DF84700B2
:100F800011A92C4800F03FF90D940020ADF838006D
:100F9000ADF83A00ADF83C00ADF840000C20ADF8DB
:100FA0003E000DA9244801F06FFF0121224801F005
:100FB000F9FE01224021204801F000FF34208DF885
:100FC000040003208DF8050001208DF806008DF83F
:100FD000070001A800F068FE1021174801F0CAFEC2
:100FE000012240F22441144801F028FF13480390E5
:100FF0001148001D0290002004903220059000202E
:1010000006908020079000200890099020200A90E8
:1010100000020B9000200C9002A90948FFF750FF36
:101020000848FFF72FFF01210548FFF739FF12B0ED
:1010300010BD000000100140004C004030060020B0
:1010400030040240000200101CB513A103C9CDE911
:10105000000106216846FFF753FF04462146E217C8
:1010600004EB12621012C21700EB12621212A0EB14
:101070000222D2B28DF806202046E11704EB11615E
:101080000912A4EB0121C9B28DF8071008216846A6
:1010900000F006F81CBD000001030016000225CF79
:1010A00070B504460D460BE000BF4021074801F033
:1010B0008EFE0028F9D02178044801F056FF641C08
:1010C0002800A5F10101CDB2EED170BD004C004069
:1010D0002DE9FF5F044644A30FCB8DE80F004FF0CE
:1010E000000A4FF00A0B44484449097840F821406F
:1010F00042480078401C0A2190FBF1F201FB1200EB
:101100003E490870002005E03B4951F820108A4410
:10111000411CC8B20A28F7DB0A209AFBF0F03849D4
:101120000860002C0BDA601C6FF000414418204668
:10113000E11704EB112109168031CEB207E00CB99A
:10114000012404E02046E11704EB11210E0E214694
:10115000E21704EB12421014C21700EB12621212D3
:10116000A0EB0222D7B2E21704EB12621012C217F0
:1011700000EB12621212A0EB022202F0FF082046DE
:10118000E11704EB11610912A4EB012101F0FF0941
:101190008DF807808DF808908DF809608DF80A7039
:1011A0000B216846FFF7ACFE05462946EA1705EB1A
:1011B00012621012C21700EB12621212A0EB02228E
:1011C000D2B28DF80B202846E91705EB1161091200
:1011D000A5EB0121C9B28DF80C100D216846FFF76F
:1011E0005FFFBDE8FF9F0000011000160002040031
:1011F00000000000000000002C0D0020520600201E
:101200004006002070472DE9F041024600250026E7
:10121000002000230024002791F803C00CF00F05E4
:1012200091F803C00CF0100CBCF1000F03D091F842
:1012300002C04CEA050591F800C0BCF1000F31D0A6
:10124000146800202BE04FF0010C0CFA00F3B1F809
:1012500000C00CEA03069E4220D183004FF00F0C21
:101260000CFA03F7BC4305FA03FC4CEA040491F8BA
:1012700003C0BCF1280F06D14FF0010C0CFA00FCA2
:10128000C2F814C00AE091F803C0BCF1480F05D1C0
:101290004FF0010C0CFA00FCC2F810C0401C0828EA
:1012A000D1D31460B1F800C0BCF1FF0F34DD546835
:1012B00000202EE000F1080C4FF0010808FA0CF3B2
:1012C000B1F800C00CEA03069E4221D183004FF022
:1012D0000F0C0CFA03F7BC4305FA03FC4CEA0404B8
:1012E00091F803C0BCF1280F05D100F1080C08FAF1
:1012F0000CF8C2F8148091F803C0BCF1480F07D174
:1013000000F1080C4FF0010808FA0CF8C2F8108040
:10131000401C0828CED35460BDE8F081F0B50A46E1
:10132000002300240021002500F00046B6F1004F04
:1013300002D11D4EF16901E01B4E7168C0F30345F7
:1013400083B200F44016B6F5401F08D121F0706159
:10135000154E766826F07066134F7E6012E000F43A
:101360008016B6F5801F06D1032606FA05F4A143C0
:1013700041F0706106E0460D360103FA06F6B1430E
:1013800041F0706122B1460D360103FA06F6314391
:1013900000F00046B6F1004F02D1034EF16101E0CA
:1013A000014E7160F0BD0000000001400161704716
:1013B00010B504460623012221460948FFF750F8DC
:1013C00001210748FFF7ADF800BF02210448FFF7ED
:1013D0000BF80028F9D00248FFF702F810BD000012
:1013E000002401402DE9F04107460C460025002667
:1013F00009E03846FFF7DCFF05444FF4967001F032
:10140000BBFF701CC6B2A642F3DBB5FBF4F080B2A2
:10141000BDE8F0812DE9F04305460C4620782870A0
:1014200060786870207AE17940EA0120A881B5F8F7
:101430000C9007212046FFF763FD8046687803285B
:1014400011D1C1450FD1A078A870A079617940EA87
:1014500001262079E17840EA0127781E40EA06401B
:10146000C0434042A860BDE8F08370B504460D4615
:101470002878697840EA0120C0F30A00208020889B
:10148000A0F5806000B220806878C010A97840EA9A
:101490004110C0F30A0060806088A0F5806000B24F
:1014A0006080A8788011E97840EA8100297940EAD3
:1014B0008120C0F30A00A080A088A0F5806000B25F
:1014C000A08028794010697940EAC110C0F30A0071
:1014D000E080E088A0F5806000B2E080B4F9000010
:1014E000052806DCB4F9000010F1050F01DB00202F
:1014F0002080B4F90200052806DCB4F9020010F1DE
:10150000050F01DB00206080B4F90400052806DC2B
:10151000B4F9040010F1050F01DB0020A080B4F93C
:101520000600052806DCB4F9060010F1050F01DB02
:101530000020E08068790011800820726879C0F38B
:1015400001106072207A012806D0022805D00328F5
:1015500006D10120A07204E000BF0020A07200E0CC
:1015600000BF00BFB4F90030002B01DB1E4600E0D5
:101570005E42B6F5257F1DDCB4F90220002A01DBAE
:10158000164600E05642B6F5257F13DCB4F9041088
:10159000002901DB0E4600E04E42B6F5257F09DC4E
:1015A000B4F90600002801DB064600E04642B6F525
:1015B000257F04DD15212046FEF74CFE70BDA8797D
:1015C000E97940EA012000B2A4F80B00287A697A90
:1015D00040EA012001B204F10B00A4F80D10A87A32
:1015E000E97A40EA012001B204F10B00A4F80F10DF
:1015F000297B6174697BA174A87BE97B40EA0120A7
:10160000A4F8130000BFD9E72DE9FC5F05460C469E
:101610001646052E01DABDE8FC9F207866285DD1CC
:101620006078CC285AD194F8029094F803A00AF17B
:101630000201A01C01F05CFF0AF10401615C884218
:1016400000D0E8E7B9F1010F39D10B2E37DB244880
:10165000D0E90010234AC2E9001020792870A1794E
:10166000627941EA0221A1F5EA40303802F0E1FB5B
:1016700000221D4BCDE9000102F0EAF9074602F015
:1016800001F96860217AE27941EA022002F0FAFF6A
:10169000A8601649A86803F049F9834602F05AFE8B
:1016A0000022114BCDE9000102F0D2F9074602F009
:1016B000E9F8A860607A2873A07A68730CE0B9F141
:1016C000050F04D10B2E02DB01F07CFE04E0B9F122
:1016D000060F01D101F076FE0020A07000BF9AE74E
:1016E000880A0020980A0020000059400060EA465D
:1016F00070B505460C46207DE17C40EA01261321A9
:10170000204600F02DFDB0424DD12078092828D187
:101710002079E17840EA01202880A079617940EAC7
:1017200001206880207AE17940EA0120A880A07A2F
:10173000617A40EA0120E880207BE17A40EA0120DA
:101740002881A07B617B40EA01206881207CE17BCD
:1017500040EA0120A881A07C617C40EA0120E88168
:1017600026E02078072823D12079E17840EA01207B
:101770002882A079617940EA01206882207AE179A3
:1017800040EA0120A882A07A617A40EA0120E8823A
:10179000207BE17A40EA01202883A07B617B40EA3C
:1017A0000120688304E01E212846FEF753FD70BD2A
:1017B00000BFFCE770B505460C46207855281DD1C2
:1017C000607854281AD1032605E0A05D08B9FF20EF
:1017D000A055701CC6B20A2EF7DDE078288020796B
:1017E00068806079A880A079E880E0792881207AF3
:1017F0006881607AA881A07AE88104E012212846F5
:10180000FEF728FD70BD00BFFCE7000070B5044680
:101810000D46287820706878A97840EA0120608019
:10182000E87820712879697940EA012000B2E080E7
:101830002078022803D1E088404200B2E080B4F969
:101840000600052190FBF1F000B2E080B4F906003B
:1018500002F018FF064606480168304602F05EFFB7
:10186000A060A87928382073E8792838607370BDA3
:10187000A80A00200A784B7842EA0322C2818A78BB
:10188000CB7842EA032202820A794B7942EA0322A8
:1018900042828A79CB7942EA03228282704700BF72
:1018A000FEE700002DE9F04F87B080468A46934658
:1018B000DDE9104500221346464903C902F020FA2B
:1018C00005D1444830C0002007B0BDE8F08F414842
:1018D0000CC82046294602F053FCCDE9040101F072
:1018E000D1FF81465946504603F020F8064630465F
:1018F00002F030FD21F00041374A384BCDE90401B8
:1019000002F0C2FA00D2002635480660354807606A
:101910003548C0F80090484602F01CFD4FF03332C5
:10192000324BCDE9040102F0E9FB01D3129858B122
:10193000002700202E4908602E4908602E490860C3
:10194000244830C03846BFE72B4801684FF080403C
:1019500002F0E4FE3146019002F0DDFF02902548DE
:101960000168029802F022FD0390D8F8081002F0F6
:10197000D5FE4946049002F087FD0690D8F8040091
:10198000314602F0CBFE04901B480168304602F05D
:10199000CDFF0190D8F8001002F0C0FE029014486C
:1019A0000168029802F002FD0390049902F0FEFC27
:1019B0000590069902F0FAFC07460D4807600E48AC
:1019C00000680C4908600C480660024830C0384680
:1019D0007AE70000E80A00209A9999999999B93F05
:1019E000C00A0020C40A0020C80A00203333D33FB5
:1019F000DC0A0020E40A0020E00A002010B592B0C2
:101A000004460121042000F0BFF90121084600F03E
:101A1000BBF90121480400F0A7F90121084600F0B4
:101A200093F90420ADF8440003208DF846001820F7
:101A30008DF8470011A93148FFF7E5FB0820ADF804
:101A4000440004208DF8470011A92C48FFF7DBFB68
:101A50000D940020ADF83800ADF83A00ADF83C0028
:101A6000ADF840000C20ADF83E000DA9244801F06F
:101A70000BFA0121224801F095F90122402120486A
:101A800001F09CF926208DF8040001208DF8050056
:101A90008DF806008DF8070001A800F005F9102167
:101AA000174801F067F9012240F22441144801F07F
:101AB000C5F9144803901248001D029000200490BC
:101AC00014200590002006908020079000200890A8
:101AD000099020200A9000020B9000200C9002A98F
:101AE0000948FFF7EDF94FF40010FFF7CBF901219A
:101AF0000548FFF7D5F912B010BD000000080140FD
:101B000000440040040E00206C0002402DE9FF4715
:101B100004460D4616461F46DDF830804FF0090991
:101B20002C4B0FCB8DE80F0047F230516018C117D6
:101B300000EB1161090A8DF8041047F2305160186A
:101B4000C11700EB11610912A0EB0121C9B28DF898
:101B5000051047F230516818C11700EB1161090AEE
:101B60008DF8061047F230516818C11700EB11616B
:101B70000912A0EB0121C9B28DF8071006EB86000F
:101B800047F2305101EB4000000A8DF8080006EBE7
:101B90008600302101EB4000C0B28DF8090047F209
:101BA00030503844000A8DF80A0030203844C0B262
:101BB0008DF80B008DF80C800B210DF1020001F067
:101BC00097FC8DF80D000E21684600F005F8BDE881
:101BD000FF870000244A000870B504460D460BE05C
:101BE00000BF4021074801F0F2F80028F9D0217821
:101BF000044801F0BAF9641C2800A5F10101CDB236
:101C0000EED170BD004400402DE9FC4706460F466A
:101C100090461C46DDE90AA9002000900190B0071B
:101C2000050E45EA0710C5B245EA8800C5B28DF831
:101C300000500A4804708DF801404FEA19208DF8D1
:101C4000050009F0FF008DF80600054A08216846E6
:101C5000FFF79EF803490870BDE8FC87B70A00202B
:101C6000F3E8F810B80A002008B50121042000F0BC
:101C70008BF84FF40060ADF8000010208DF80300E1
:101C800003208DF8020069460448FFF7BCFA4FF4C0
:101C900000610248FFF78AFB08BD00000008014010
:101CA00000BFFEE77047000070B5002100230F223F
:101CB000C47804B3154C246804F4E064C4F5E0640B
:101CC000210AC1F10403CA40447804FA03F184787C
:101CD0001440214309010E4C0678A155047804F004
:101CE0001F050124AC4005786D11AD0005F1E0251C
:101CF000C5F8004109E0047804F01F050124AC4058
:101D0000044D0678761145F8264070BD0CED00E0D4
:101D100000E400E080E100E002490143024A116072
:101D2000704700000000FA050CED00E0704700006D
:101D300001460020034A506820F4404008435060A8
:101D4000704700000010024029B1064A5269024360
:101D5000044B5A6104E0034A52698243014B5A61C1
:101D6000704700000010024029B1064AD2690243C0
:101D7000044BDA6104E0034AD2698243014BDA6121
:101D8000704700000010024029B1064A92690243E0
:101D9000044B9A6104E0034A92698243014B9A61C1
:101DA000704700000010024029B1064AD268024381
:101DB000044BDA6004E0034AD2688243014BDA60E4
:101DC000704700000010024030B5002100220024BE
:101DD00000232D4D6D6805F00C0121B1042905D0BB
:101DE000082923D105E0294D056022E0274D056033
:101DF0001FE0254D6D6805F47012234D6D6805F4E4
:101E00008034022505EB92421CB9214D55430560F3
:101E10000BE01D4D6D6805F400351DB11C4D55439B
:101E2000056002E0194D5543056002E0174D05605D
:101E300000BF00BF144D6D6805F0F0010909154D94
:101E40006B5C0568DD4045600F4D6D6805F4E06131
:101E5000090A104D6B5C4568DD4085600A4D6D6870
:101E600005F46051C90A0B4D6B5C4568DD40C560E7
:101E7000054D6D6805F44041890B074D6B5CC568E5
:101E8000B5FBF3F5056130BD0010024000127A0089
:101E900000093D001C0400202C04002010B586B071
:101EA000044601213020FFF76FFF01210846FFF7AC
:101EB0006BFF01210805FFF757FF4FF48050ADF885
:101EC000140003208DF8160018208DF8170005A9BE
:101ED0002348FFF798F90420ADF814008DF8170097
:101EE00005A92048FFF78FF901940020ADF80800FC
:101EF000ADF80A004FF48060ADF80C000020ADF89A
:101F000010000C20ADF80E0001A9174800F0BCFF2E
:101F10000121154800F046FF35208DF80000012012
:101F20008DF801008DF802008DF803006846FFF778
:101F3000BBFE20210C4800F01DFF012240F225517C
:101F4000094800F07BFF1021074800F013FF012231
:101F500040F22441044800F071FF06B010BD0000BB
:101F6000001001400014014000500040704710B5BF
:101F700000F002F810BD00000CB5002001900090A8
:101F80003348006840F480303149086000BF304871
:101F9000006800F4003000900198401C0190009807
:101FA00018B90198B0F5A06FF1D12948006800F484
:101FB000003010B10120009001E000200090009856
:101FC000012843D12348006840F0100021490860EF
:101FD0000846006820F0030008600846006840F0EA
:101FE000020008601A48406819494860084640687D
:101FF00048600846406840F4806048600846406891
:1020000020F47C1048600846406840F4E8104860BE
:102010000846006840F08070086000BF0C48006807
:1020200000F000700028F9D00948406820F0030053
:10203000074948600846406840F00200486000BF19
:102040000348406800F00C000828F9D10CBD0000DE
:1020500000100240002002402DE9F047394930C904
:102060004FF0000A01F052FA3749087037480088EB
:102070000978884211DB354840883349097888421D
:102080000BDB3248808830490978884205DB2F48CD
:10209000C0882D490978884203DA4AF0010A2C48A1
:1020A00030C02A48008928490978884211DB27482E
:1020B00040892549097888420BDB244880892249D8
:1020C0000978884205DB2148C0891F490978884280
:1020D00003DA4AF0020A1F4830C00AF0010098B93A
:1020E0001D48006802F036F906460F4618480CC82D
:1020F0002046294602F044F8804632463B4601F02D
:10210000C3FE01D24AF0010A0AF0020098B912484F
:10211000006802F01FF906460F460E480CC820461C
:10212000294602F02DF8804632463B4601F0ACFECF
:1021300001D24AF0020A4FFA8AF008490870504664
:10214000BDE8F087880A0020F00C0020520E002025
:10215000080D0020100D0020180D0020040D002097
:1021600070B502460C46FF25FF2309E012F8010B6B
:1021700080EA05010648405C80EA03050548435CA7
:102180002000A4F10106B4B2F0D143EA052070BDED
:10219000F00A0020F00B002010B592B00446012197
:1021A0000820FFF7F1FD01210846FFF7EDFD0121B1
:1021B0008803FFF7E9FD01218804FFF7D5FD012120
:1021C0000846FFF7C1FD01210420FFF7A7F84020D2
:1021D000ADF8440003208DF8460018208DF8470024
:1021E00011A96848FFF70FF88020ADF844000420DB
:1021F0008DF8470011A96348FFF705F84FF4806098
:10220000ADF8440003208DF8460018208DF84700F3
:1022100011A95C48FEF7F7FF4FF40060ADF84400E9
:1022200004208DF8470011A95648FEF7ECFF0D94E5
:102230000020ADF83800ADF83A00ADF83C00ADF83C
:1022400040000C20ADF83E000DA94F4800F01CFEE8
:1022500001214D4800F0A6FD012240214A4800F02E
:10226000ADFD0D940020ADF83800ADF83A00ADF8A2
:102270003C00ADF840000C20ADF83E000DA94348ED
:1022800000F002FE0121414800F08CFD01224021B6
:102290003E4800F093FD25208DF8300001208DF898
:1022A00031008DF832008DF833000CA8FFF7FCFCEC
:1022B0001021354800F05EFD012240F224413248F1
:1022C00000F0BCFD27208DF8300001208DF8310092
:1022D0008DF832008DF833000CA8FFF7E5FC1021D3
:1022E0002A4800F047FD012240F22441274800F02F
:1022F000A5FD274802902448001D0190002003906E
:102300001E20049000200590802006900020079059
:1023100008902020099000020A9000200B9001A94B
:102320001C48FEF7CDFD4FF40030FEF7ABFD012158
:102330001848FEF7B5FD184802901448001D01909A
:10234000002003901E20049000200590802006901D
:102350000020079008902020099000020A90002099
:102360000B9001A90B482838FEF7AAFD4FF4007026
:10237000FEF788FD012107482838FEF791FD12B0CD
:1023800010BD0000000C0140003801400048004032
:10239000640E002058000240820E0020042808D15C
:1023A0004FF0E021096941F004014FF0E022116192
:1023B00007E04FF0E021096921F004014FF0E0222D
:1023C000116170477047000010B51348006840F075
:1023D00001001149086008464068104908400E494C
:1023E0004860084600680E4908400B4908600846E6
:1023F000006820F4802008600846406820F4FE0051
:1024000048604FF41F008860FFF7B1FD4FF0006097
:102410000449086010BD0000001002400000FFF8F1
:10242000FFFFF6FE08ED00E02DE9FE4F0020FD491C
:102430000870FD4908800121FC4800F017FB80B1BD
:102440000121FA4800F003FBF9480068401CF849F4
:102450000860F84AF84BF94903C901F045FAF74A10
:1024600003C2F748B0F90600F649B1F9061044185E
:1024700004EBD471481002F005F9F3490860F14A01
:102480009168EF4A906801F091FF04464FF0804157
:1024900001F0FAFFED4908600020ED490860ED48C1
:1024A000407A032803D0EB48407A02287DD1E948DE
:1024B000407A032818D1E848E0490CC803C901F064
:1024C0005FFE0446E54AE64B01F0DEFC04D2E54837
:1024D0004068E549086002E00020E3490860E148FF
:1024E0008068E24908602DE0DA49B1F9060001F0A0
:1024F000A0FC06460022DE4B01F002FD044600224D
:10250000DC4B01F0A5FA80460022DB4B01F0F8FC21
:10251000824601F0B7F9D4490860CE49B1F90010FC
:10252000484201F086FC80460022D24B01F090FA2E
:102530000646CA4AD14B01F0E3FC044601F0A2F979
:10254000CA490860C848006801F004FF0446002238
:10255000134601F0D5FB29D1BC48006801F0FAFE12
:1025600006464FF03332C64B01F08EFC01D80120F5
:1025700000E00020804601F05CFC21F000410446B0
:102580000022134601F0BCFB10D00120AB490290A1
:1025900003C9CDE90001AD480268B3480168B948F4
:1025A000FFF780F9AA4908600FE058E00020029088
:1025B000A24803C8CDE90001A4480268AA480168FE
:1025C000B048FFF76FF9A2490860AF49A04800681A
:1025D00002F070F903D2AC489D49086008E0AB49AD
:1025E0009B48006802F066F802D2A8489849086043
:1025F00000219D48006802F05DF903D2012089495D
:10260000087008E000219848006802F053F802D2F0
:10261000FF2084490870834890F9000002F032F8E6
:1026200005468B480168284602F078F804460021E8
:1026300002F040F80BD28648006801F0E7FF041E64
:1026400001DB204600E06042774908807DE0754864
:102650000078002879D1FF207349088075E07D4813
:10266000407A012871D17B48B0F90600C0EB002008
:102670004FF4257190FBF1F4204602F003F8744901
:1026800008607449B1F90010484201F0D2FB80465D
:102690000022784B01F0DCF90646704A774B01F0D6
:1026A0002FFC044601F0EEF87049086000216748ED
:1026B000006802F0FFF80FD200216548006801F0C1
:1026C000F9FF09D26248006880F00044204601F01A
:1026D000B9FF5549088011E000215C48006801F00D
:1026E000E9FF0BD200215A48006802F0E3F805D256
:1026F0005748006801F0A6FF4B4908800021534865
:10270000006802F0D7F803D20120464908701CE0A7
:1027100000214E48006801F0CDFF03D2FF2041495F
:10272000087012E000214A48006802F0C3F803D2A2
:1027300001203C49087008E000214548006801F08C
:10274000B9FF02D2FF20374908704248007A0328B7
:102750003FD1374800680721B0FBF1F201FB1200BE
:1027600018B9FFF779FC4A4908704948007800F029
:10277000010098B12B48007801280FD14348344913
:102780000860012002902D4803C8CDE900012F48C0
:102790000268354801683B48FFF784F83C480078F8
:1027A00000F00200E0B11F4890F90000401CB8B9E9
:1027B00035482749086001200290204803C8CDE928
:1027C000000122480268284801682E48FFF76AF88D
:1027D00006E02048007A012802D100202C49087028
:1027E000134800680521B0FBF1F201FB120030B97B
:1027F0002848007818B11D48006800F0F9FF0C481F
:10280000007800F0030008B9FEF71EFC08480068D5
:102810000521B0FBF1F201FB120010B90C48006871
:102820003AE046E0A00A0020A20A0020001400407E
:10283000900A00207B14AE47E17A843F880A00208A
:10284000AC0D0020C40D0020640A0020700A002096
:10285000680A0020540D0020980A00209A9999993E
:102860009999B93F180E00206C0A0020600A0020D8
:102870000000F03F00A084400000044099992840E7
:102880003333D33F280E002000007F4300007FC376
:10289000A40A0020780A002001F0B8FE04B2454ADC
:1028A000117F454A107A454A92F90030224600F0DD
:1028B000D3FB434800680521B0FBF1F201FB120095
:1028C00001280ED13F48006801F0A0FE04B2394A49
:1028D000117F394A107A394A92F90030224600F0C5
:1028E0007DFC374800680521B0FBF1F201FB1200C6
:1028F000032845D1344800884FF6FF7101EA4000B3
:102900003149088008460088FF2802DDFF20088042
:102910000AE02D480088502806DA2B480088002855
:1029200002DD5020284908802848006801F06EFE2A
:1029300004462748006801F069FE0546224ECDE9AD
:10294000000433781B4E327F1B4E317A707AFFF7CA
:102950005BF91C48006801F059FE04B21B4800688E
:1029600001F054FE05B2184800781A4A0090B2F9F6
:102970000610194AB2F9060023462A46FFF7C6F8A0
:102980000F48007800F0070090B91048006801F087
:102990003DFE04460E48006801F038FE0546064A32
:1029A0000094117A507A2B460C4A1278FEF736FAC8
:1029B000BDE8FE8F340E0020540D0020A00A002038
:1029C000900A0020680A0020A20A0020600A002065
:1029D000640A0020C40D0020AC0D0020A40A0020D1
:1029E0001FB501212020FFF7BFF942F20F70ADF8AB
:1029F00008004720ADF804000020ADF80A00ADF84B
:102A0000060001A90F4800F04BF801210D4800F025
:102A10001BF8012211460B4800F039F837208DF8D9
:102A2000000002208DF801008DF8020001208DF8D1
:102A300003006846FFF738F90121024800F00AF860
:102A40001FBD000000140040CA4302827047CA4301
:102A50000282704721B1028842F00102028004E044
:102A600002884FF6FE731A400280704730B5024666
:102A7000002000230024158A05EA0103958905EA50
:102A8000010413B10CB1012000E0002030BD1AB1E7
:102A900083890B43838102E083898B438381704761
:102AA000002202881D4B98420ED01D4B98420BD03D
:102AB000B0F1804F08D01B4B984205D01A4B98427A
:102AC00002D01A4B984204D14FF68F731A404B88AC
:102AD0001A43174B984207D0164B984204D04FF632
:102AE000FF431A40CB881A4302808B8883850B886A
:102AF00003850A4B98420BD0094B984208D00E4BE5
:102B0000984205D00D4B984202D00D4B984201D10E
:102B10000B7A03860123838270470000002C01405A
:102B2000003401400004004000080040000C004058
:102B300000100040001400400040014000440140EB
:102B40000048014010B540F22441124800F04CF911
:102B5000F8B1104800880F48001D008800210E4879
:102B6000FEF79EF90C48FEF7A7F9C0F108000B49E3
:102B700008800B480078012803D109490948FEF76D
:102B800049FC32210448FEF7B9F901210248FEF759
:102B900087F910BD004C0040300402405006002070
:102BA000300600201C0D002010B540F225511B48B6
:102BB00000F01AF9E0B140F22551184800F0E3F8AE
:102BC00017480078122807DB0020154908701548BF
:102BD0000078401C13490870104800F0C1F91249F0
:102BE0000F4A127888540E480078401C0C4908702F
:102BF00040F22441094800F0F7F870B10748008816
:102C00000648808806480078122803D106490748FC
:102C1000FEF72BFC00200249087010BD0050004058
:102C20005E0600205D060020690D0020540D002086
:102C300010B540F22441134800F0D6F800B3114813
:102C400000881048001D008800210F48FEF728F971
:102C50000D48FEF731F90D4908700B48FEF72CF9C5
:102C6000C0F11E00152803D109490A48FEF740FDAE
:102C70001E210548FEF742F901210348FEF710F92D
:102C800010BD00000038014058000240F10C002047
:102C9000640E0020340E002010B540F2244110488C
:102CA00000F0A2F8D0B10E4800880D48001D008841
:102CB00000210C48FEF7F4F80A48FEF7FDF8C0F1D1
:102CC0001404224608490948FEF79EFC14210548D1
:102CD000FEF714F901210348FEF7E2F810BD0000E9
:102CE000004400406C000240040E0020180E00203A
:102CF00010B540F22441194800F076F860B3174847
:102D000000881648001D008800211548FEF7C8F805
:102D10001348FEF7D1F8134908701148FEF7CCF8B4
:102D2000C0F11E00152804D10F491048FEF7E0FC41
:102D30000AE00B48FEF7C0F8C0F11E000F2803D1CF
:102D400009490B48FEF736FD1E210548FEF7D6F867
:102D500001210348FEF7A4F810BD00000048004020
:102D600030000240F20C0020820E0020340E0020C1
:102D7000520E002001F40072B2F5007F00D100BFB6
:102D8000CA430280704710B50022002340F66A143F
:102D9000A14200D100BF0A1201249440A3B2DC4337
:102DA000048010BD21B1828942F40052828104E086
:102DB00082894DF6FF731A40828170471AB1838A67
:102DC0000B43838202E0838A8B43838270470246EF
:102DD0000020B1F5007F00D100BF13880B400BB17C
:102DE000012000E00020704770B502460024002357
:102DF0000025002040F66A16B14200D100BFC1F3A1
:102E0000421501F01F03012606FA03F3012D02D13A
:102E10009689334006E0022D02D1168A334001E044
:102E2000968A33400C12012606FA04F416883440C0
:102E300013B10CB1012000E0002070BDF0B50346D5
:102E4000002400260025002040F66A17B94200D170
:102E500000BF1846C1F3421401F01F06012707FA0C
:102E600006F5012C01D10C3004E0022C01D1103008
:102E700000E014301AB107682F43076002E00768CA
:102E8000AF430760F0BD00002DE9F04786B005466E
:102E90000E460024A24600BFA1460027B08900B11B
:102EA00000BF2F462C8A4CF6FF700440F088044384
:102EB0002C82AC894EF6F3100440B0883189084367
:102EC000718908430443AC81AC8A4FF6FF4004404B
:102ED000B0890443AC8201A8FEF776FF1F48874201
:102EE00002D1DDF810A001E0DDF80CA0A88900F403
:102EF000004040B10AEBCA0000EB0A1031684900FB
:102F0000B0FBF1F807E00AEBCA0000EB0A103168E9
:102F10008900B0FBF1F86420B8FBF0F0040120094F
:102F2000642101FB1089A88900F4004040B13220DF
:102F300000EBC900B0FBF1F000F00700044308E02B
:102F4000322000EB09106421B0FBF1F000F00F001B
:102F500004432C8106B0BDE8F08700000038014032
:102F600001468888C0F308007047C1F308028280D8
:102F70007047000010B502212E48FDF703FC40B158
:102F800002212C48FDF726FB2B4A00212948FDF79A
:102F9000A3FD2948294A4168881A91421BD00BDCBD
:102FA0002748084478B30D2827D0B0F5807F38D063
:102FB000A0F20D1040BB2EE00D2806D0B0F5807FAA
:102FC00015D0A0F20D10F8B90BE01B490B311D48CC
:102FD000FEF71CFC2CE018490B311A48FEF74AFC9E
:102FE00026E015490B311848FEF710FC20E0124985
:102FF0000B311548FEF73EFC1AE00F490B31134820
:10300000FEF704FC14E000E011E00B490B310F481F
:10301000FEF730FC0CE008490B310D48FEF7F6FBDB
:1030200006E005490B310A48FEF724FC00E000BF2A
:1030300000BF10BD00640040DC0D00208D15F810AD
:1030400073EC07EF7C0D0020940D0020AC0D0020E8
:10305000C40D002000BFFEE72DE9F04F89B01446F3
:103060009946002007900890834682460690B4F562
:10307000807F01DD4FF4807414F5807F01DA6FF0FA
:10308000FF044E4880F800904D48048009FB04F08E
:10309000002802DBB9F1000F2DD1204600F0C9FE57
:1030A00021F00041054600F097FEC0B20690069858
:1030B00000F0D6FECDE902014248008800F0D0FEC3
:1030C00007460022404B00F01BFFCDE90001DDE97F
:1030D000022300F015FF00223C4BCDE9040100F073
:1030E000B7FC054600F078FE1FFA80FBCBF100002C
:1030F0000FFA80FA0024002C15DD03208DF81C0047
:10310000E0B28DF81D00200A8DF81E0020208DF8F9
:103110001F0000208DF820008DF821008DF822007E
:103120008DF8230038E0002C17DA02208DF81C00FF
:103130006042C0B28DF81D006042000A8DF81E008A
:1031400020208DF81F0000208DF820008DF8210030
:103150008DF822008DF823001EE0B9F1010F03D194
:1031600003208DF81C0002E002208DF81C000020D6
:103170008DF81D008DF81E0060208DF81F000020C6
:103180008DF820008DF821000AF0FF008DF8220054
:103190004FEA1A208DF823000D4A082107A8FDF7F1
:1031A000F7FD0C4908700846007820B90A480078F5
:1031B000401C0949087009B0BDE8F08FAC0A002036
:1031C000AE0A0020B20A00200000F03F00E06F408D
:1031D000F3E3F810B00A0020B10A00202DE9F04F07
:1031E00089B014469946002007900890834682468D
:1031F0000690B4F5807F01DD4FF4807414F5807F74
:1032000001DA6FF0FF0409FB04F0002802DBB9F1DA
:10321000000F2DD1204600F00CFE21F000410546A4
:1032200000F0DAFDC0B20690069800F019FECDE974
:1032300002013C48008800F013FE074600223A4B8A
:1032400000F05EFECDE90001DDE9022300F058FE4A
:103250000022364BCDE9040100F0FAFB054600F0F0
:10326000BBFD1FFA80FBCBF100000FFA80FA0024AF
:10327000002C15DD03208DF81C00E0B28DF81D0038
:10328000200A8DF81E0028208DF81F0000208DF8E0
:1032900020008DF821008DF822008DF8230038E001
:1032A000002C17DA02208DF81C006042C0B28DF8A5
:1032B0001D006042000A8DF81E0028208DF81F00B6
:1032C00000208DF820008DF821008DF822008DF867
:1032D00023001EE0B9F1010F03D103208DF81C007B
:1032E00002E002208DF81C0000208DF81D008DF8F2
:1032F0001E0068208DF81F0000208DF820008DF83A
:1033000021000AF0FF008DF822004FEA1A208DF804
:103310002300074A082107A8FDF73AFD09B0BDE8D8
:10332000F08F0000B40A00200000F03F00E06F4082
:10333000F3E4F81010B56FF00400FFF72FF80A4817
:1033400000680A49B0FBF1F00949087008460078A6
:1033500000EB4001C1EBC0104FF6FF7101EAC00065
:103360000449088010BD00000404002000127A0007
:10337000180400201A0400200146114A12784A431A
:103380004FF0E0235A6100229A611A46126942F016
:1033900001021A6100BF4FF0E022106900F0010243
:1033A0001AB100F48032002AF5D04FF0E022126901
:1033B00022F001024FF0E0231A6100229A61704767
:1033C00018040020FEB5464A07CA8DE807004549A3
:1033D0000868454901F0A2F90646444900F0E6FFB5
:1033E000054601F02FF984B2E01704EB1060000AE3
:1033F0008DF804003B4908683B4901F08FF9064607
:103400003A4900F0D3FF054601F01CF984B2E017F9
:1034100004EB10600012A4EB0020C0B28DF8050090
:1034200030494868304901F079F906462F4900F0E3
:10343000BDFF054601F006F984B2E01704EB106009
:10344000000A8DF8060027494868274901F066F907
:103450000646264900F0AAFF054601F0F3F884B2BB
:10346000E01704EB10600012A4EB0020C0B28DF84E
:1034700007001C4988681C4901F050F906461B49A1
:1034800000F094FF054601F0DDF884B2E01704EB8C
:103490001060000A8DF8080012498868124901F08E
:1034A0003DF90646114900F081FF054601F0CAF8D2
:1034B00084B2E01704EB10600012A4EB0020C0B24D
:1034C0008DF809009DF80300811C0DF1020000F049
:1034D0000FF88DF80A000B216846FEF77DFBFEBD54
:1034E000184A0008280E00200000C8420060EA4682
:1034F00010B502460B460021002003E0545C044452
:10350000E0B2491C9942F9DB10BD000070B5002102
:103510001348006801F0CEF90AD212491048006839
:1035200001F0FCF80546104900F040FF04460CE0AD
:103530000B48006880F000460A49304601F0EEF87A
:103540000546094900F032FF04460849204601F0CB
:10355000B1F900D2054C204601F074F8C0B270BD3C
:10356000700A00200000C8410000484200007F436C
:103570002DE9FC5FDFF854B10A210D20FDF732FF81
:10358000019000F06DFC80464FF06632504B00F029
:10359000B7FC064600224F4B00F05AFA044600F0F2
:1035A00071F94D4908604D48007830B100204B4911
:1035B0000870494800684A4908604748D0F800A0A8
:1035C0004748006800F0C6FE04460022454B00F064
:1035D00095FD18D24048006800F0BCFE0446424AFF
:1035E000424B00F051FC0ED24148006818B901204E
:1035F0003F4908602AE03E480068401C30BB00207C
:103600003B49086022E03648006800F0A3FE04460B
:10361000354A364B00F038FC18D22F48006800F0CD
:1036200099FE044600222F4B00F068FD0ED2304870
:10363000006820B94FF0FF302D49086006E02C48A3
:103640000068012802D10020294908602848006844
:1036500000F0EFFB06464FF066321D4B00F050FCC9
:1036600004460D461C48006800F074FE22462B46B6
:10367000CDE9000100F038F9804600F003F98246F8
:103680001C48C0F800A01A4800681B49086012488E
:10369000006813490860584600F05CFE04460D4679
:1036A000504600F057FE0646144A154B00F068FDE0
:1036B000804622462B4600F0CBF981F00041CDE94F
:1036C000000100F0DFF8BDE8FC9F00004BD4AE3DE8
:1036D00066660A4000FEAF404C0600205C060020F3
:1036E00058060020000004409A9999999999E93F59
:1036F00054060020480600204406002085EB51B8FF
:103700001E85FB3F836042600160704708B532242C
:103710004FF4A060FEF700FB0020042308220721DD
:103720000090FDF753F9FFF705FEFEF79DFA2548D7
:10373000FEF7B4FB4FF4E130FEF760F94FF496402A
:10374000FDF7FAFB4FF4E130FEF726FD4FF07E5314
:103750001D4A1E491E48FFF7D5FFFFF741F9FCF748
:10376000F1FE2EE01B48006800F0F4FD05461A4803
:103770000CC8284600F0F8FC07460022174B00F062
:10378000BDFC0DD81648006808B9012000E00020F3
:1037900013490860104903C900F074F80D49086026
:1037A000FFF7E6FE0F4908600F48007848B9601E31
:1037B000040006D1084600680C49086001200A4947
:1037C0000870CFE7A08601009A99993E0000484210
:1037D000280E002000040020880A00200000E03F9E
:1037E000AC0121427C0A0020780A0020800A0020D7
:1037F0002DE9F14F84B01C480168049801F096F857
:103800001A4908600846006800F0A4FD21F0004154
:1038100004460022164B00F037FB02D20020134969
:1038200008601248006800F095FD8046114A124B6E
:1038300000F066FB0022114BCDE9000100F060FBB7
:1038400004460D460E49886800F0F3FA0646224603
:103850002B4600F049F8824600F08EFA0290FDF700
:1038600037FC05B0BDE8F08F7C0A00203C06002044
:103870000000E03F14AE47E17AE4524000005040BF
:103880001C0D002021F00042A2F16052B2F5801F11
:1038900001F0004328BFD2F17F6C0BD95FEA001C16
:1038A00043EAC20242EB507018BF704728BF20F0B5
:1038B00001007047B2F5801FBCBF184670474FEA41
:1038C000410C1CF5001F02D2084600F0EEBF70B597
:1038D00000F0C0FB00000089FFF7F6BF4FF000408A
:1038E000A0F580007047000010B591EA030F48BFB3
:1038F00083F0004300F14C84841A71EB030C05D271
:10390000121943EB0C03001B61EB0C01DFF824E1FF
:103910004FEA1154A4EB135C1EEA430F18BF9EEA52
:10392000445F73D023EA0E03DCF1200E21EA045138
:1039300043F4801332D322FA0CFE10EB0E0023FA6C
:103940000CFE41EB0E01CCF1200E03FA0EFE10EB43
:103950000E0051F10001B1F5801FCCF1200E32D2E2
:1039600001EB045112FA0EF2BDE8104058BF704747
:10397000401C38BF5FEA420218BF7047002814BFDE
:1039800020F0010041F100014FEA410313F5001F4F
:1039900038BF7047A1F1C04100F0AABB012A43EB38
:1039A0000302ACF1200CDCF11F0E32BF4FF0000E11
:1039B00023FA0CF310EB030041EB0451B4EB115F5D
:1039C000D0D0A1EB045101F5801149085FEA300025
:1039D00001EB04510ED350F1000038BF12FA0EFE75
:1039E00008D1BDE81040C9E7401C38BF5FEA420279
:1039F000CAD1C3E7BDE810404FEA410313F5001FE9
:103A000038BF7047A1F1C04100F072BB9EEA445F2D
:103A100008D011EA5E0FBDE8104004BF01F000417C
:103A200000207047BDE8104070B500F013FB00BFE8
:103A300064FBBE3E0000E0FF491058BFC1F14041A9
:103A40005B1058BFC3F140438B42EFF300807047D7
:103A50002DE9C04130B4DFF8A0C23CEA111418BF10
:103A60003CEA131400F0EC8081EA03051CEA11140F
:103A700044EAD57418BF1CEA131500F0C780A4EB04
:103A800005044FF0004545EAC12145EAC32341EA58
:103A9000505143EA525304F17F74994204F50034C3
:103AA0004FEAC0204FEAC22208BF904200F09C803B
:103AB0004FEA13650FF24016765D4FEA134506FB99
:103AC00005F7C7F1807706FB07F74FEAD737A7FB63
:103AD00003687642C8F58038A7FB06CE38BFA8F148
:103AE000010807FB08E64FF0000EA6FB028CE6FB80
:103AF00003CEDCF1000CCEF1004E38BFAEF1010E6A
:103B0000A6FB0C584FF000074FF00005E6FB0E87B0
:103B1000A1FB08C6A0FB07CE16EB0E0645F100057B
:103B2000E1FB076515F1E04E7EBFA4F580345FEA46
:103B300046066D4116F1800745F100054FEA17274B
:103B40004FEA066647EA0567A6F1DE46B6F1805FF2
:103B50004FEA15251FD9384624F0010C05EBC47136
:103B6000BCF1FE6F01EB0C1102D8F0BCBDE8008186
:103B700024425CBF01F5801E9EEAC47F02D4F0BCE3
:103B8000BDE80081244238D4F0BCA1F1C041BDE8B9
:103B9000004100F0ADBA4FEAD22242EA43524FEA66
:103BA000D323A7FB02864FEAD02040EA415007FB0F
:103BB00003661EEA0E0F4FEAD12105FB026658BFCD
:103BC000A6EB0056B6EB00564FEA520E4EEAC37E05
:103BD00018EB0E0E56EB530EBDD518EB02085E41E6
:103BE0007F1C55F10005B6E74FF480154FF0000734
:103BF0004FF000064FF00008ADE7F0BC4FF00000BA
:103C000001F1C04101F00041BDE8008111EA0C1F43
:103C10000CEA131500D00CE013EA0C1F00F025800D
:103C20004FF00000F0BC81EA030101F00041BDE863
:103C30000081F0BCBDE8004181EA030100F058BA00
:103C4000F0BCBDE8004170B500F004FA097EFC3E0E
:103C500000F007B881EA03014FF0000001F00041D5
:103C6000704781EA030100F043BAF0BCBDE80041AF
:103C70004FF0000021497047FFFDFBF9F7F5F4F222
:103C8000F0EEEDEBE9E8E6E4E3E1E0DEDDDBDAD8F7
:103C9000D7D5D4D3D1D0CFCDCCCBCAC8C7C6C5C455
:103CA000C2C1C0BFBEBDBCBBBAB9B8B7B6B5B4B36C
:103CB000B2B1B0AFAEADACABAAA9A8A8A7A6A5A457
:103CC000A3A3A2A1A09F9F9E9D9C9C9B9A9999981B
:103CD0009797969595949393929191908F8F8E8EBE
:103CE0008D8C8C8B8B8A898988888787868585844B
:103CF00084838382828181800000FF070000F87F37
:103D000051EA030C17D41CF5801F58BFBCF5801F67
:103D100000F10680994218BF704708BF9042704773
:103D200007D711F5801F58BF13F5801F19D499428A
:103D30007047894270471CF5801F08D5BCF5801F6D
:103D4000F7D58B4218BF704708BF824270474FF4C7
:103D5000001C1CEB410F38BF1CEB430F01D28B4200
:103D6000704770B500F076F9922449004FF0005189
:103D70004FF08053FFF760BE4FEA41034FEA5353C1
:103D8000A3F58063D3F11E03C8BFD3F1210C0CDD72
:103D90004FF0004242EAC12242EA505232FA03FC9A
:103DA0008CEAE17CACEBE1707047102BC4BF0020C3
:103DB000704703F5787CBCF1FF3F04D06FF0004200
:103DC00082EA2100704770B500F044F949922480DE
:103DD00000207047F2E700004FEA1153A3F580631B
:103DE000D3F11E03A8BFD3F1200C08DB4FF0004233
:103DF00042EAC12252EA505232FA03F070470942B5
:103E00000BD4102BC4BF0020704703F5787CBCF1A5
:103E1000FF3F05D04FF0FF3070474FF00000704774
:103E200070B500F017F900BF499224800020704758
:103E3000F0E710F0004248BF4042B0FA80F310FAB9
:103E400003F10AD0C3F11D0303F580634FEA41502B
:103E500002EB035202EBD12170474FF00000704794
:103E6000B0FA80F310FA03F10AD0C3F11D0303F591
:103E700080634FEA41504FEA035202EBD121704771
:103E80004FF000007047000051EA030C17D41CF5F6
:103E9000801F58BFBCF5801F00F10680994218BFF3
:103EA000704708BF9042704707D711F5801F58BF71
:103EB00013F5801F19D499427047894270471CF549
:103EC000801F08D5BCF5801FF7D58B4218BF7047FF
:103ED00008BF824270474FF4001C1CEB410F38BFF3
:103EE0001CEB430F01D28B42704770B500F0B2F863
:103EF000922449004FF000514FF08053FFF79CBDD2
:103F0000DFF848C170B51CEA111E1EBF1CEA13156C
:103F10009EEA0C0F95EA0C0F00F06F8081EA030413
:103F200023EA4C134EEAD47E21EA4C1141F480116D
:103F300043F48013AE44A1FB024CA0FB0365AEF139
:103F40007F7E361955EB0C05A1FB034C4CF10003A9
:103F5000A0FB021C16EB0C06654153F1000309425D
:103F600018BF46F0010613F4007F0BD14FEA03316E
:103F70004FEA0530340341EA155140EA16506FF01C
:103F800003020AE04FEAC3214FEAC520F40241EAE6
:103F9000555140EA56506FF0020202EB2E4201EBFF
:103FA000025585EACE710AD05FEA440C18BF24F0AE
:103FB000004450F1000041F1000120EAD47040F2C9
:103FC000FE7C624500D270BDA84214BF4FF0804411
:103FD0004FF04044002E08BF0024BEF1806FA8BF00
:103FE000A1F1C041BDE8704080F282804FF0000036
:103FF00001F1C04101F0004170479EEA0C0F0CEA4C
:10400000131518BF95EA0C0F06D04FF0000081EA97
:10401000030E0EF0004170BD00F01CF88900013E57
:1040200000F007B800F009B84FEA430C5FEA5C5CA7
:1040300008D081EA030100F05BB84FEA410C5FEA67
:104040005C5CF6D14FF00000014970470000FF07AB
:104050000000F87F0EF1020E2EF0030E5EF8046BE6
:10406000364205D4012A43EB030515F5001F12D88B
:10407000012841EB010C1CF5001F0CD80ED14FEAB2
:10408000D17C15F5001F0CEB4C0C0CF1020C08BF99
:104090004CEBD37C04E04FF0080C01E04FEAD37CFA
:1040A0000CEB4C0526FA05F606F00706B6F1040CF3
:1040B00006D20EEB860CBDE870404CF0010C604758
:1040C000DFE80CF0090B02024FF000414FF0000056
:1040D000A1F5002170BD19461046012851EB0104DD
:1040E00018BFD4F5001484BF002001F0004170BD5A
:1040F0000808A0F500114FEA3101704753EA010C9E
:1041000017D41CF5801F58BFBCF5801F00F1068036
:104110008B4218BF704708BF8242704707D713F51C
:10412000801F58BF11F5801F19D48B4270479B42E6
:1041300070471CF5801F08D5BCF5801FF7D5994244
:1041400018BF704708BF904270474FF4001C1CEB2B
:10415000430F38BF1CEB410F01D2994270470FB497
:104160000CBC03BCFFF7C1BE91EA030F10B581F090
:1041700000413FF5C1AB83F0004300F009B80000F7
:1041800010B591EA030F48BF83F000433FF5B4AB8D
:10419000841A71EB030C07D212198CF0004C43EB1C
:1041A0000C03001B61EB0C01DFF8A4E14FEA115492
:1041B000A4EB135C1EEA430F18BF9EEA445F00F0B5
:1041C000B08023EA6E03524221EA0451C3EB6E032E
:1041D00038BF5B1EDCF1200E25D322FA0CFE10EB5B
:1041E0000E0043FA0CFE41EB0E01CCF1200E03FA57
:1041F0000EFE10EB0E0051F10001CCF1200E29D47F
:1042000012FA0EF201EB0451BDE8104058BF70479E
:10421000401C1CBFB2F1004F704700280CBF491C66
:1042200020F00100704712EB020E43EB030218BFAF
:104230004FF0010E4EEA4202ACF1200CDCF11E0EF2
:1042400054D943FA0CFE10EB0E0051F1FF31CCF1C2
:104250001E0ED5D50EF1010E12FA0EFE404141EBB5
:10426000010101EB445C5FEA5C5C10D910EBDE708D
:1042700001EB045138BFBEF1004FBDE8104018BF3C
:10428000704700280CBF491C20F00100704730D255
:104290004FEAD42C11F5001124F400641BD0B1FABC
:1042A00081F20B3AA41AA41ED2F12003914030FAF5
:1042B00003F31943904001EBCC71002C01EB045146
:1042C000BDE81040A8BF704701F1C0414FF00000A9
:1042D00001F000417047B0FA80F310FA03F100D109
:1042E00010BDE41A173C4805C90AE4E701EB045184
:1042F00010BD491001EB0451BDE810404FEA3000F9
:1043000002E04FF0000170474A0008BF0042F8D0B9
:10431000B2F5001F28BF704701F000414FF00000C8
:1043200070479EEA445F07D011EA5E0FBDE8104077
:1043300004BF002100207047BDE8104070B5FFF7B2
:1043400089FE00BF40DFF63E83F000411046704713
:104350000000E0FF43004FEAD30C4FEA3C0C43401F
:104360001FBF40070CF1605113F0FE4F70471CF067
:10437000006F03D100200CF0004170470CF00043A7
:1043800043EA507010B540EACC0000F048FA00BF94
:10439000000000924FEA0001FFF7AABE4FF0004173
:1043A0004FF00000A1F500217047000090EA010FD6
:1043B00048BF81F0004100F1C082421A3CBF801A20
:1043C00089184FEAD0524FF07F4C1CEA410FA2EB04
:1043D000D15318BF9CEA026F00F03B804FF0004CB5
:1043E0004CEA00204CEA012121FA03FC10EB0C0CF2
:1043F0001ED202F1FF325FEA1C2040EBC25038BFF0
:1044000070471CF07F0F4FEA400C18BFBCF17F4F84
:1044100038BF7047C3F12003994008BF20F0010066
:10442000BCF17F4F38BF7047A0F1C04000F03DBAEB
:104430004FEA3C00000A40EBC25028BF1CF0FF0FBF
:104440004FEA400CE6D018BFBCF17F4F38BF704731
:10445000EAE79CEA026F05D010EA5C0F08BF00F0A3
:104460000040704710B500F0DAF900BF64FBBE3EB3
:10447000401058BFC0F14040491058BFC1F1404101
:104480008142EFF3008070474FF47F0C1CEAD0129A
:104490001EBF1CEAD11392EA0C0F93EA0C0F00F036
:1044A000858090EA010F48BF42F4807240F4000C0E
:1044B00041F400002CF07F4120F07F4000B58142A4
:1044C000A2EB03020FF2081CACEB504EC0F100004F
:1044D0009EF800E04FEA4E0E00FB0EFC38BF49008C
:1044E0004FEA2C1C02F5FA020CFB0EF34FEACE1E2B
:1044F0004FEA112C4FEAC1210EEB635E42EB2242E0
:104500000EFB0CFC4FEA1C5300FB03114FEA112C6D
:104510004FEA01310EFB0CFC4FEADC4C00FB0C11A6
:10452000C14228BF09184CEB03335DF804EB10EBD4
:10453000410143EBC250B2F57C0F38BF704729D51B
:1045400012F0F00F1CBF00F1C04000F000407047B7
:10455000008182838485868788898B8C8D8E8F915C
:104560009293959697999A9C9D9FA0A2A3A5A7A880
:10457000AAACAEB0B2B3B5B7B9BCBEC0C2C5C7C9AC
:10458000CCCED1D4D7D9DCDFE2E6E9ECF0F3F7FA10
:10459000FE0000004FEA400C0CF1807CBCF17E4F25
:1045A00028BF7047B0F1C04000F07FB990EA010F1A
:1045B0000CEAD11348BF42F48072624538BF6345AC
:1045C00007D213F47F0F16D080EA010000F00040FC
:1045D000704710B500F023F9097EFC3E00F005B8E5
:1045E00080EA010000F00040704780EA010000F01E
:1045F000004000F05AB912F47F0F04BF0248704720
:1046000080EA010000F051B90000C07F41000B0EAC
:10461000D3F19E0208D950F400034FEA032323FA92
:1046200002F048BF4042704710B500F0F8F800BFF4
:1046300049922480002070476FF0004282EA2000F7
:1046400070470000C10DD1F19E0206DB4FEA002346
:1046500043F0004323FA02F07047004207D54FEAC7
:104660004001B1F1FE4F02D24FF00000704710B58B
:1046700000F0D5F849922480002070476FEA2000AE
:104680007047000010F0004148BF4042B0FA80F38C
:1046900010FA03F2C3F19D030BD051EAC35101EBB1
:1046A0001220530638BF704700F1010008BF20F008
:1046B0000100704750EA010C00F113801CF5000F57
:1046C00058BFBCF5000F01D48842704707D710F5DA
:1046D000000F58BF11F5000F15D48842704789426A
:1046E00070471CF5000F04D5BCF5000FF7D58142CB
:1046F00070474FF0807C1CEB400F38BF1CEB410F24
:1047000001D28142704710B500F089F89224490027
:104710004FF000504FF08051FFF7AABE4FF47F0CCE
:104720001CEAD0121EBF1CEAD11392EA0C0F93EAC6
:104730000C0F00F0478090EA010F48BF42F48072EE
:104740004FF0004C4CEA00204CEA012102EB03023E
:10475000A0FB0113A2F50002002918BF43F00103DA
:104760005B0028BF4FEA330342EB22425FEA132C7F
:104770004CEBC2502EBFBCEB436FB2F57C0F7047C1
:104780004FEA036CBCF1004F08BF20F00100B2F506
:104790007C0F38BF70470BD582F0FF0212F5803FC7
:1047A000C8BF704700F1C040D8BF00F0004070475C
:1047B00000F5000C5FEA4C0C48BF7047B0F1C040F8
:1047C00000F073B890EA010F0CEAD11348BF42F42D
:1047D0008072624538BF634504D280EA010000F070
:1047E0000040704710B500F01AF800BF8900013E84
:1047F00000F007B800F009B85FEA410C5FEA1C6CF2
:1048000008D080EA010000F050B85FEA400C5FEA8F
:104810001C6CF6D14FF00040A0F5800070470EF1FF
:10482000020E2EF0030E5EF8044B244204D44FEA2D
:104830004102B2F17F4F11D84FEA4003B3F17F4FED
:104840000CD80ED14FEAD07CB2F17F4F0CEB4C0C60
:104850000CF1020C08BF4CEBD17C04E04FF0080CCB
:1048600001E04FEAD17C0CEB4C0324FA03F404F092
:104870000704B4F1040C06D20EEB840CBDE8104022
:104880004CF0010C6047DFE80CF0070802024FF023
:104890000040A0F5800010BD0846420018BFD2F1CC
:1048A000807288BF00F0004010BDFF2141EAD05067
:1048B000C005704751EA000C00F113801CF5000F91
:1048C00058BFBCF5000F01D48142704707D711F5DE
:1048D000000F58BF10F5000F15D481427047894270
:1048E00070471CF5000F04D5BCF5000FF7D58842C2
:1048F00070474FF0807C1CEB410F38BF1CEB400F22
:1049000001D28842704780EA010081EA000180EA12
:104910000100FFF7F8BE80F0004090EA010F7FF53C
:104920004CAD81F0004100F008B8000090EA010FA2
:1049300048BF81F000413FF540AD421A04D882F0F3
:104940000042A0EB020011444FEAD0524FF07F4CDE
:104950001CEA410FA2EBD15318BF9CEA026F4AD068
:104960004FF0004C4CEA00204CEA012121FA03FCF4
:10497000B0EB0C0C0FD412F0FE0F36D05FEA4C00F7
:104980001DD5001240EBC25038BF70471CF03F0FDE
:1049900018BF70470BE0A2F101025FEA1C2040EB58
:1049A000C25038BF70471CF07F0F18BF7047C3F16B
:1049B0002003994014BF401E20F00100704780087A
:1049C0004FEA122308BF7047B0FA80FCA2EB0C023A
:1049D000CCF1280C60FA0CF093EA122F04BF00EB24
:1049E000C25070474FEAC3707047130A5FEADC1089
:1049F00008BF7047F6E79CEA026F04D010EA5C0F2C
:104A000008BF0020704710B5FFF709FF40DFF63EF2
:104A100081F000407047000066CC050600000000F1
:104A20000000000066CC0209000000000000000049
:104A300000000000544A0008000000201C0D000087
:104A40006C010008E04B00081C0D0020E40700008A
:104A5000D0010008200900C1814001C080410461EB
:104A60000C2108E118A11C011A300116380136602A
:104A7000012E70012F6000FF00C0C101C30302C2FC
:104A8000C60607C705C5C404CC0C0DCD0FCFCE0E8E
:104A90000ACACB0BC90908C8D81819D91BDBDA1AFE
:104AA0001EDEDF1FDD1D1CDC14D4D515D71716D66E
:104AB000D21213D311D1D010F03031F133F3F232DE
:104AC00036F6F737F53534F43CFCFD3DFF3F3EFE4E
:104AD000FA3A3BFB39F9F83828E8E929EB2B2AEABE
:104AE000EE2E2FEF2DEDEC2CE42425E527E7E6262E
:104AF00022E2E323E12120E0A06061A163A3A2629E
:104B000066A6A767A56564A46CACAD6DAF6F6EAE0D
:104B1000AA6A6BAB69A9A86878B8B979BB7B7ABA7D
:104B2000BE7E7FBF7DBDBC7CB47475B577B7B676ED
:104B300072B2B373B17170B050909151935352925D
:104B400096565797559594549C5C5D9D5F9F9E5ECD
:104B50005A9A9B5B99595898884849894B8B8A4A3D
:104B60004E8E8F4F8D4D4C8C4484854587474686AD
:104B7000824243834181800AFF400009FE002101F7
:104B80005005A24A040001A0090102030406070817
:104B9000091061140805FF020406083009FF3001FE
:104BA00028012A015C09FF300DFF600609FF000D96
:104BB000FF300401410140055A45983C0A120F029A
:104BC00001394909FF9009FC901A32421F09039BE1
:104BD000066004081484080914290300803F0000BB
:0400000508000215D8
:00000001FF
