:020000040800F2
:100000002810002015020008311B000817170008EF
:100010002D1B00085B030008D12A00080000000027
:10002000000000000000000000000000C11D0008EA
:10003000E50F000800000000B91B000811210008AE
:100040002F0200082F0200082F0200082F020008CC
:100050002F0200082F0200082F0200082F020008BC
:100060002F0200082F0200082F0200080D0C0008C4
:100070002F0200082F0200082F0200082F0200089C
:100080002F0200082F0200082F0200082F0200088C
:10009000F12900082F0200082F0200082F02000893
:1000A0002F0200082F0200082F0200082F0200086C
:1000B0002F0200082F0200082F0200082F0200085C
:1000C0002F0200082F0200082F0200082F0200084C
:1000D0002F020008E52600083D27000899270008A0
:1000E0002F0200082F0200082F0200082F0200082C
:1000F0002F0200082F0200082F0200082F0200081C
:100100002F0200082F0200082F0200082F0200080B
:100110002D260008792600082F0200087521000806
:100120002F0200082F0200082F0200082F020008EB
:1001300000F002F800F05EF80AA090E8000C82449B
:100140008344AAF10107DA4501D100F053F8AFF278
:10015000090EBAE80F0013F0010F18BFFB1A43F0A5
:1001600001031847AC3F0000CC3F000010F8013BF2
:100170000A4413F0030408BF10F8014B1D1108BF17
:1001800010F8015B641E05D010F8016B641E01F8C5
:10019000016BF9D1002D15D010F8014B03F00C03C1
:1001A0000C2BA1EB04040ABF10F8013BA4EB831451
:1001B000A4EB032405F1010314F8016B5B1E01F8A5
:1001C000016BF9D5914238BF10F8013BD1D370478C
:1001D0000023002400250026103A28BF78C1FBD850
:1001E000520728BF30C148BF0B6070471FB51FBD05
:1001F00010B510BD00F07AF81146FFF7F7FF02F0D6
:100200007FFE00F098F803B4FFF7F2FF03BC00F0A4
:100210009DF800000948804709480047FEE7FEE7CF
:10022000FEE7FEE7FEE7FEE7FEE7FEE7FEE7FEE7A6
:1002300004480549054A064B70470000152100088F
:1002400031010008280A002028100020280C002076
:10025000280C00204FF000020429C0F0128010F09A
:10026000030C00F01E80CCF1040CBCF1020F18BF8F
:1002700000F8012BA8BF20F8022BA1EB0C0100F025
:1002800010B85FEAC17C24BF00F8012B00F8012BF5
:1002900048BF00F8012B70477047704770474FF018
:1002A000000200B5134694469646203922BFA0E8C6
:1002B0000C50A0E80C50B1F12001BFF4F7AF0907D2
:1002C00028BFA0E80C5048BF0CC05DF804EB8900C3
:1002D00028BF40F8042B08BF704748BF20F8022B06
:1002E00011F0804F18BF00F8012B7047754600F0E1
:1002F00029F8AE4605006946534620F007008546BA
:1003000018B020B5FFF794FFBDE820404FF000067D
:100310004FF000074FF000084FF0000B21F00701ED
:10032000AC46ACE8C009ACE8C009ACE8C009ACE830
:10033000C0098D4670470446AFF300802046FFF7A2
:1003400062FF000000487047C809002001491820DA
:10035000ABBEFEE726000200704700BFFEE70000CC
:10036000B1F5007F3AD00FDC202928D006DC012926
:100370001CD004291DD0082940D11DE0402921D0DE
:10038000B1F5807F3AD126E0B1F5004F31D006DCDF
:10039000B1F5806F25D0B1F5006F2FD124E0B1F514
:1003A000803F12D0B1F5003F28D111E0154A82609C
:1003B00025E00822C26022E01022C2601FE008226D
:1003C00002611CE01022026119E00822426016E07E
:1003D0001022426013E00422426010E004224260D6
:1003E0000DE0042242600AE00022826104224260A1
:1003F00005E0002282610422426000E000BF00BFED
:10040000704700000101010010B50021837A01222C
:1004100002FA03F13D4A126842F001023B4B1A60B6
:100420003A4A1C3212688A43384B1C331A60027BEA
:10043000CAB9364A0C3212688A43344B0C331A60FC
:100440004288C38842EA0343304A4032847A42F801
:1004500034300288838842EA03432C4A4032847A4B
:1004600002EBC4025360027B012A19D1274A0C32E5
:1004700012680A43254B0C331A604288038842EA0B
:100480000343224A4032847A42F83430C288838857
:1004900042EA03431D4A4032847A02EBC4025360AD
:1004A000C27A3AB9194A121D12688A43174B1B1DAA
:1004B0001A6006E0154A121D12680A43134B1B1DF1
:1004C0001A60028932B9114A143212688A430F4BFA
:1004D00014331A600289012A06D10C4A14321268B8
:1004E0000A430A4B14331A60427B012A06D1074A99
:1004F0001C3212680A43054B1C331A60034A126807
:1005000022F00102014B1A6010BD0000006600409D
:1005100070B504460D46002660692840002871D059
:10052000B5F5807F5CD010DC082D35D006DC012DC0
:1005300020D0022D24D0042D72D127E0102D31D0EF
:10054000202D35D0402D6BD138E0B5F5004F60D06F
:1005500009DCB5F5007F49D0B5F5806F4CD0B5F515
:10056000006F5DD14FE0B5F5803F2DD0B5F5003F70
:1005700056D12FE0A0682D4900F00AFB064651E055
:10058000E068032100F004FB06464BE0E068082128
:1005900000F0FEFA064645E0E068102100F0F8FAA7
:1005A00006463FE02069032100F0F2FA064639E0F2
:1005B0002069082100F0ECFA064633E0206910219A
:1005C00000F0E6FA06462DE06068082100F0E0FA47
:1005D000064627E06068102100F0DAFA064621E0BE
:1005E000A069012100F0D4FA06461BE0A0690221AF
:1005F00000F0CEFA064615E0A069042100F0C8FA22
:1006000006460FE00FE0A069702100F0C1FA06462F
:1006100008E06068042100F0BBFA064602E0FFE74C
:10062000002600BF00E00026304670BD0101010039
:100630001AB143690B43436102E043698B43436151
:10064000704730B5024600200023146824F00204ED
:100650001460146844F00104146000E05B1C5468EA
:1006600004F001041CB94FF6FF74A342F6D154689C
:1006700004F001040CB900206CE08C79012C04D149
:10068000146844F08004146003E0146824F08004CB
:100690001460CC79012C04D1146844F04004146037
:1006A00003E0146824F0400414600C7A012C04D197
:1006B000146844F02004146003E0146824F020045B
:1006C00014604C7A012C04D1146844F010041460B6
:1006D00003E0146824F0100414608C7A012C04D117
:1006E000146844F00804146003E0146824F008045B
:1006F0001460CC7A012C04D1146844F00404146012
:1007000003E0146824F0040414608C78A407CD7806
:1007100044EA05640D7944EA05444D7944EA0554F8
:100720000D886D1E2C43D461146824F001041460FC
:10073000002300E05B1C546804F001041CB14FF678
:10074000FF74A342F6D1546804F001040CB10020F8
:1007500000E0012030BD00002DE9F0418AB00446E0
:100760000D4616461F46DDF840800121082001F0A5
:1007700045FA0121084601F041FA0121480601F03D
:100780002DFA01214FF4EA1000F0B8FC4FF400708C
:10079000ADF8240003208DF8260018208DF82700DE
:1007A00009A92E4800F01FFC4FF48070ADF824001A
:1007B00048208DF8270009A9284800F014FC0020E3
:1007C0008DF81E008DF81F008DF8200001208DF897
:1007D000210000208DF822008DF823008DF81A806A
:1007E0008DF81B408DF81C608DF81D50ADF8187009
:1007F00006A91B48FFF725FF00208DF812008DF891
:10080000130001208DF814000020ADF80800ADF8A9
:100810000A00ADF80C00ADF80E00ADF81000012094
:100820008DF8150002A8FFF7EFFD012202210C4808
:10083000FFF7FEFE14208DF8040002208DF805005D
:1008400003208DF8060001208DF8070001A801F0B3
:1008500071F900200AB0BDE8F0810000000C0140F1
:100860000064004010B500F5D87303EB01131B685A
:1008700003F004031372137A53B900F5D87303EB32
:1008800001131B6840F2FF7404EA5353136009E03C
:1008900000F5D87303EB01131B686FF0604404EAA2
:1008A000D303536000F5D87303EB01131B6803F007
:1008B0000203537200F5D87303EB01135B6803F076
:1008C0000F03937200F5D87303EB01135B681B0AE7
:1008D000D37400F5D87303EB01139B68D37200F552
:1008E000D87303EB01139B681C0A147300F5D873CB
:1008F00003EB01139B681C0C547300F5D87303EBD6
:1009000001139B681B0E937300F5D87303EB01135F
:10091000DB68D37300F5D87303EB0113DB681C0AA3
:10092000147400F5D87303EB0113DB681C0C5474CA
:1009300000F5D87303EB0113DB681B0E937421B928
:10094000C36843F02003C36003E0036943F020035E
:10095000036110BD10B502460020936803F0806368
:10096000B3F1806F00D110E0936803F00063B3F13E
:10097000006F01D1012008E0936803F08053B3F1C8
:10098000805F01D1022000E00420042874D002F529
:10099000C07303EB00131B6803F0010402F5C0737E
:1009A00003EB00131C600B7A7BB94B7A0C8843EA8B
:1009B000445302F5C07404EB00142468234302F589
:1009C000C07404EB0014236010E00B7A4C6843EA17
:1009D000C4034C7A234302F5C07404EB001424686A
:1009E000234302F5C07404EB001423608B7A03F0F8
:1009F0000F038B7202F5C07303EB00135B6823F0E7
:100A00000F0402F5C07303EB00135C6002F5C073C2
:100A100003EB00135B688C7A234302F5C07404EB8C
:100A2000001463608B7B1C064B7B44EA03440B7B06
:100A300044EA0323CC7A234302F5C07404EB001488
:100A4000A3608B7C1C064B7C44EA03440B7C44EA89
:100A50000323CC7B234302F5C07404EB0014E36052
:100A600002F5C07303EB00131B6843F0010402F5A9
:100A7000C07303EB00131C6010BD000010B50246EC
:100A8000002321B1012907D002290FD109E0906884
:100A90001D4C00EA04030BE090681C4C00EA0403C0
:100AA00006E090681A4C00EA040301E0002300BF4E
:100AB00000BF184C181BA34216D007DC83B16FF09F
:100AC0008060184470B1022818D111E0B0F5007FA1
:100AD00010D0114C204448B1B0F5003F0ED10BE0CE
:100AE00002230DE000230BE0002309E0002307E0D0
:100AF000012305E0012303E0012301E0002300BFFF
:100B000000BFD8B210BD00000300000400030008BD
:100B100000000310000100080001FFF72DE9F0417B
:100B200086B007460D4690460024CDF80880042084
:100B30008DF80C0000208DF80D008DF80E5000BFD0
:100B400005E0395D0DF10F000155601C84B2AC4227
:100B5000F7DB01A90D48FFF7FDFE0646002401E082
:100B6000601C84B231460948FFF788FF18B940F687
:100B7000FF708442F4DB40F6FF70844203DB012007
:100B800006B0BDE8F0810020FAE7000000640040F4
:100B90000246002002EA01030BB1012000E0002020
:100BA000704700002DE9FC4105460E4690461C4664
:100BB000089F002000900190A807000E11490870BE
:100BC0000846007840EA061008700846007840EAB7
:100BD00088000870084600788DF80000200A8DF81B
:100BE0000100E0B28DF80200380A8DF80300F8B277
:100BF0008DF80400044A08216846FFF78FFFBDE81E
:100C0000FC8100009C060020F3E7F8102DE9F04776
:100C1000022000F083F8002843D0022000F060F8A2
:100C20002149088802F09CFC06464FF066321F4BB3
:100C300002F0E6FC044600221D4B02F089FA8046D1
:100C400002F0A0F91B4908601749498801EB8101AE
:100C50008800C11700EB11510913174A1180104683
:100C6000008800EBC00101EB001047F2305101EBAE
:100C70008000114608800C498988642201FB02F03B
:100C8000C11700EB115109130C4A11800649C9889C
:100C9000642201FB02F0C11700EB11510913084A4D
:100CA0001180BDE8F08700003000002066660A4031
:100CB0000000B040380000203C0000203E00002032
:100CC0004000002000F0805111B10349086001E0AC
:100CD00002494860704700000404024000000240DE
:100CE00000F0805111B10349086001E002494860F9
:100CF00070470000040402400000024021B1026875
:100D000042F00102026004E002684FF6FE731A40EE
:100D1000026070470146486880B270470146002073
:100D2000002201F0805313B1054B1A6801E0054B16
:100D30001A6802EA01030BB1012000E000207047AD
:100D4000000402400000024010B50022026847F68D
:100D5000F0739A430C6A8B6823430C6923434C69F4
:100D600023438C692343CC6923434C6A23438C6A15
:100D700023431A430260CB6843600B6883604B686F
:100D8000C36010BD4160704770B502460C46FF2538
:100D9000FF2309E012F8010B80EA05010648405CD8
:100DA00080EA03050548435C2000A4F10106B4B2C3
:100DB000F0D143EA052070BD42000020420100202E
:100DC00010B592B004460121102000F017FF012158
:100DD000022000F0F3FE0121C80400F0FFFE4FF4F2
:100DE0008060ADF8440003208DF8460018208DF88F
:100DF000470011A9314800F0F6F84FF40060ADF853
:100E0000440004208DF8470011A92C4800F0EBF8AD
:100E10000D940020ADF83800ADF83A00ADF83C0074
:100E2000ADF840000C20ADF83E000DA9244801F0BB
:100E300069FD0121224801F0F3FC012240212048F4
:100E400001F0FAFC34208DF8040003208DF8050031
:100E500001208DF806008DF8070001A800F06AFE59
:100E60001021174801F0C4FC012240F2244114482B
:100E700001F022FD134803901148001D029000204C
:100E800004903220059000200690802007900020DA
:100E90000890099020200A9000020B9000200C90EE
:100EA00002A90948FFF750FF0848FFF70BFF01218F
:100EB0000548FFF723FF12B010BD000000100140ED
:100EC000004C0040420200203004024000020010AA
:100ED00070B504460D460BE000BF4021074801F005
:100EE000B4FC0028F9D02178044801F07CFD641C92
:100EF0002800A5F10101CDB2EED170BD004C00403B
:100F00002DE9FF47044633A30FCB8DE80F00002CDB
:100F10000BDA601C6FF0004144182046E11704EB27
:100F2000112109168031CEB207E00CB9012404E08A
:100F30002046E11704EB11210E0E2146E21704EBC7
:100F400012421014C21700EB12621212A0EB02221E
:100F5000D7B2E21704EB12621012C21700EB126252
:100F60001212A0EB022202F0FF082046E11704EB68
:100F700011610912A4EB012101F0FF098DF807802E
:100F80008DF808908DF809608DF80A700B2168467D
:100F9000FFF7FAFE05462946EA1705EB1262101222
:100FA000C21700EB12621212A0EB0222D2B28DF82D
:100FB0000B202846E91705EB11610912A5EB012169
:100FC000C9B28DF80C100D216846FFF781FFBDE80E
:100FD000FF8700000110001600020400000000005E
:100FE0000000000070472DE9F04102460025002670
:100FF000002000230024002791F803C00CF00F0507
:1010000091F803C00CF0100CBCF1000F03D091F864
:1010100002C04CEA050591F800C0BCF1000F31D0C8
:10102000146800202BE04FF0010C0CFA00F3B1F82B
:1010300000C00CEA03069E4220D183004FF00F0C43
:101040000CFA03F7BC4305FA03FC4CEA040491F8DC
:1010500003C0BCF1280F06D14FF0010C0CFA00FCC4
:10106000C2F814C00AE091F803C0BCF1480F05D1E2
:101070004FF0010C0CFA00FCC2F810C0401C08280C
:10108000D1D31460B1F800C0BCF1FF0F34DD546857
:1010900000202EE000F1080C4FF0010808FA0CF3D4
:1010A000B1F800C00CEA03069E4221D183004FF044
:1010B0000F0C0CFA03F7BC4305FA03FC4CEA0404DA
:1010C00091F803C0BCF1280F05D100F1080C08FA13
:1010D0000CF8C2F8148091F803C0BCF1480F07D196
:1010E00000F1080C4FF0010808FA0CF8C2F8108063
:1010F000401C0828CED35460BDE8F081F0B50A4604
:10110000002300240021002500F00046B6F1004F26
:1011100002D11D4EF16901E01B4E7168C0F3034519
:1011200083B200F44016B6F5401F08D121F070617B
:10113000154E766826F07066134F7E6012E000F45C
:101140008016B6F5801F06D1032606FA05F4A143E2
:1011500041F0706106E0460D360103FA06F6B14330
:1011600041F0706122B1460D360103FA06F63143B3
:1011700000F00046B6F1004F02D1034EF16101E0EC
:10118000014E7160F0BD0000000001400161704738
:101190000A7802704A7842704278032A0BD18A7822
:1011A00082700A79CB7842EA032282808A794B796D
:1011B00042EA0322C280704770B504460D46287883
:1011C000697840EA0120C0F30A0020802088A0F559
:1011D000806000B220806878C010A97840EA411091
:1011E000C0F30A0060806088A0F5806000B2608073
:1011F000A8788011E97840EA8100297940EA8120C5
:10120000C0F30A00A080A088A0F5806000B2A08092
:1012100028794010697940EAC110C0F30A00E080E3
:10122000E088A0F5806000B2E080B4F900000528F5
:1012300006DCB4F9000010F1050F01DB002020806E
:10124000B4F90200052806DCB4F9020010F1050F1C
:1012500001DB00206080B4F90400052806DCB4F945
:10126000040010F1050F01DB0020A080B4F9060096
:10127000052806DCB4F9060010F1050F01DB00209B
:10128000E08068790011800820726879C0F301104D
:101290006072207A012806D0022805D0032806D1E2
:1012A0000120A07204E000BF0020A07200E000BF97
:1012B00000BFB4F90030002B01DB1E4600E05E42A7
:1012C000B6F5257F1DDCB4F90220002A01DB1646A5
:1012D00000E05642B6F5257F13DCB4F9041000296E
:1012E00001DB0E4600E04E42B6F5257F09DCB4F97D
:1012F0000600002801DB064600E04642B6F5257FE1
:1013000004DD15212046FEF7A5FF70BDA879E97917
:1013100040EA012000B2A4F80B00287A697A40EA7A
:10132000012001B204F10B00A4F80D10A87AE97AAB
:1013300040EA012001B204F10B00A4F80F10297B50
:101340006174697BA174A87BE97B40EA0120A4F861
:10135000130000BFD9E700002DE9FC5F05460C46ED
:101360009246207866287DD16078CC28FBD1A6787B
:1013700094F8039009F10201A01C01F0AFFD09F1FE
:101380000401615C884201D0BDE8FC9F012E47D179
:101390008048D0E90010804AC2E900102079287006
:1013A000A179627941EA0221A1F5EA40303802F0E0
:1013B000C0F80022794BCDE9000101F0C9FE0746D3
:1013C00001F0E0FD6860217AE27941EA022002F052
:1013D000CDFCA8607249A86802F01CFEA8607149A3
:1013E000A86802F00FFD80466F4902F0C1FB074676
:1013F0006E4902F007FDA8606D49A86802F0CEFDB5
:1014000002D26B48A86006E06A49A86802F0C6FCF0
:1014100001D26848A860607A2873A07A6873B5E042
:10142000052EFCD16279217902EB0121A1F5EA4078
:10143000303802F07EF80022584BCDE9000101F06F
:1014400087FE074601F09EFD5B490860E279A179BD
:1014500002EB0121A1F5EA40303802F06AF80022DF
:101460004E4B00E094E0CDE9000101F071FE07462B
:1014700001F088FD50494860627A217A02EB01212F
:10148000A1F5EA40303802F054F80022434BCDE990
:10149000000101F05DFE074601F074FD46498860D9
:1014A0000868464902F0AEFC83463D4902F0F2FA74
:1014B000804602F03BFC87B2F81707EB1060000A89
:1014C00020713D4908683D4902F09CFC834634493F
:1014D00002F0E0FA804602F029FC87B2F81707EB29
:1014E00010600012A7EB002060713349486833494F
:1014F00002F088FC83462A4902F0CCFA804602F0CA
:1015000015FC87B2F81707EB1060000AA0712A4992
:1015100048682A4902F076FC8346214902F0BAFA6B
:10152000804602F003FC87B2F81707EB1060001248
:10153000A7EB0020E07120498868204902F062FC96
:101540008346174902F0A6FA804602F0EFFB87B205
:10155000F81707EB1060000A2072174988681749CE
:1015600002F050FC83460E4902F094FA804602F0E5
:10157000DDFB87B2F81707EB10600012A7EB002025
:1015800060720AF0FF01204600F05EFA0020A070B1
:1015900000BFF9E6780600208806002000005940C8
:1015A0000060EA460000254400C0994400008242E1
:1015B00000942747009427C7740900200000C84200
:1015C00070B505460C46207DE17C40EA01261321DA
:1015D000204600F06BFCB0424DD12078092828D17C
:1015E0002079E17840EA01202880A079617940EAF9
:1015F00001206880207AE17940EA0120A880A07A61
:10160000617A40EA0120E880207BE17A40EA01200B
:101610002881A07B617B40EA01206881207CE17BFE
:1016200040EA0120A881A07C617C40EA0120E88199
:1016300026E02078072823D12079E17840EA0120AC
:101640002882A079617940EA01206882207AE179D4
:1016500040EA0120A882A07A617A40EA0120E8826B
:10166000207BE17A40EA01202883A07B617B40EA6D
:101670000120688304E01E212846FEF7EBFD70BDC3
:1016800000BFFCE770B504460D46287820706878E6
:10169000A97840EA01206080E8782071287969798A
:1016A00040EA012000B2E0802078022803D1E088DF
:1016B000404200B2E080B4F90600052190FBF1F051
:1016C00000B2E080B4F9060002F050FB064606487E
:1016D0000168304602F096FBA060A8792838207394
:1016E000E8792838607370BD900600200A784B783E
:1016F00042EA0322C2818A78CB7842EA032202823C
:101700000A794B7942EA032242828A79CB7942EA0A
:1017100003228282704700BFFEE700002DE9F04FF0
:1017200087B080468A469346DDE91045002213467D
:10173000464903C901F064FE05D1444830C0002089
:1017400007B0BDE8F08F41480CC82046294602F09A
:101750008BF8CDE9040101F015FC8146594650464D
:1017600002F058FC0646304602F068F921F00041CC
:10177000374A384BCDE9040101F006FF00D20026BC
:1017800035480660354807603548C0F8009048463F
:1017900002F054F94FF03332324BCDE9040102F03C
:1017A0002DF801D3129858B1002700202E49086067
:1017B0002E4908602E490860244830C03846BFE7EB
:1017C0002B4801684FF0804002F01CFB314601902D
:1017D00002F015FC029025480168029802F05AF9BF
:1017E0000390D8F8081002F00DFB4946049002F06F
:1017F000BFF906903146D8F8040002F003FB0490CC
:101800001B480168304602F005FC0190D8F8001032
:1018100002F0F8FA029014480168029802F03AF9CE
:101820000390049902F036F90590069902F032F916
:1018300007460D4807600E4800680C4908600C48D0
:101840000660024830C038467AE70000C80600202B
:101850009A9999999999B93FA0060020A406002069
:10186000A80600203333D33FBC060020C406002066
:10187000C006002010B592B004460121042000F0FB
:10188000BDF90121084600F0B9F90121480400F032
:10189000A5F90121084600F091F90420ADF84400B3
:1018A00003208DF8460018208DF8470011A9314813
:1018B000FFF799FB0820ADF8440004208DF847009D
:1018C00011A92C48FFF78FFB0D940020ADF83800CC
:1018D000ADF83A00ADF83C00ADF840000C20ADF892
:1018E0003E000DA9244801F00DF80121224800F026
:1018F00097FF01224021204800F09EFF26208DF80E
:10190000040001208DF805008DF806008DF8070011
:1019100001A800F00FF91021174800F069FF01221B
:1019200040F22441144800F0C7FF144803901248C5
:10193000001D0290002004903220059000200690A7
:101940008020079000200890099020200A90000233
:101950000B9000200C9002A90948FFF7F5F94FF40D
:101960000010FFF7AFF901210548FFF7C7F912B0E2
:1019700010BD00000008014000440040580900204C
:101980006C0002402DE9FF4104460D4616461F46F5
:101990004FF009082B4B0FCB8DE80F0047F2305169
:1019A0006018C11700EB1161090A8DF8051047F2A4
:1019B00030516018C11700EB11610912A0EB012131
:1019C000C9B28DF8061047F230516818C11700EB04
:1019D0001161090A8DF8071047F230516818C117D4
:1019E00000EB11610912A0EB0121C9B28DF80810BA
:1019F00006EB860047F2305101EB4000000A8DF8FB
:101A0000090006EB8600302101EB4000C0B28DF8E2
:101A10000A0047F230503844000A8DF80B0030209D
:101A20003844C0B28DF80C000B210DF1020001F01A
:101A300055FA8DF80D000E21684600F005F8BDE856
:101A4000FF8100000041000870B504460D460BE020
:101A500000BF4021074800F0F8FE0028F9D02178A7
:101A6000044800F0C0FF641C2800A5F10101CDB2BC
:101A7000EED170BD004400402DE9FC470746884682
:101A800091461C46DDE90A5A002000900190B807F3
:101A9000060E46EA0810C6B246EA8900C6B28DF8BC
:101AA0000060200A8DF80100E0B28DF80200002CE1
:101AB00006DB280A8DF80300E8B28DF8040007E081
:101AC0006842000A8DF803006842C0B28DF8040035
:101AD0004FEA1A208DF805000AF0FF008DF8060085
:101AE000034A08216846FFF719F8BDE8FC870000A3
:101AF000F3E8F81008B50121042000F07FF84FF456
:101B00000060ADF8000010208DF8030003208DF870
:101B1000020069460448FFF766FA4FF40061024884
:101B2000FFF734FB08BD00000008014000BFFEE7DE
:101B30007047000070B5002100230F22C47804B361
:101B4000154C246804F4E064C4F5E064210AC1F192
:101B50000403CA40447804FA03F184781440214312
:101B600009010E4C0678A155047804F01F050124E4
:101B7000AC4005786D11AD0005F1E025C5F80041D8
:101B800009E0047804F01F050124AC40044D0678F8
:101B9000761145F8264070BD0CED00E000E400E051
:101BA00080E100E002490143024A116070470000F1
:101BB0000000FA050CED00E07047000029B1064A6C
:101BC00052690243044B5A6104E0034A526982435A
:101BD000014B5A61704700000010024029B1064ACB
:101BE000D2690243044BDA6104E0034AD2698243BA
:101BF000014BDA61704700000010024029B1064A2B
:101C000092690243044B9A6104E0034A9269824359
:101C1000014B9A61704700000010024030B500216E
:101C20000022002400232D4D6D6805F00C0121B128
:101C3000042905D0082923D105E0294D056022E0BB
:101C4000274D05601FE0254D6D6805F47012234D8A
:101C50006D6805F48034022505EB92421CB9214DD4
:101C6000554305600BE01D4D6D6805F400351DB151
:101C70001C4D5543056002E0194D5543056002E0D7
:101C8000174D056000BF00BF144D6D6805F0F001F1
:101C90000909154D6B5C0568DD4045600F4D6D68A9
:101CA00005F4E061090A104D6B5C4568DD40856014
:101CB0000A4D6D6805F46051C90A0B4D6B5C4568AF
:101CC000DD40C560054D6D6805F44041890B074D49
:101CD0006B5CC568B5FBF3F5056130BD00100240D3
:101CE00000127A0000093D001800002028000020A2
:101CF00010B586B0044601213020FFF77FFF012197
:101D00000846FFF77BFF01210805FFF767FF4FF447
:101D10008050ADF8140003208DF8160018208DF8BF
:101D2000170005A92348FFF75EF90420ADF8140059
:101D30008DF8170005A92048FFF755F901940020F8
:101D4000ADF80800ADF80A004FF48060ADF80C0063
:101D50000020ADF810000C20ADF80E0001A91748C6
:101D600000F0D0FD0121154800F05AFD35208DF816
:101D7000000001208DF801008DF802008DF80300AD
:101D80006846FFF7D7FE20210C4800F031FD012204
:101D900040F22551094800F08FFD1021074800F05E
:101DA00027FD012240F22441044800F085FD06B0E1
:101DB00010BD000000100140001401400050004020
:101DC000704710B500F002F810BD00000CB50020FF
:101DD000019000903348006840F480303149086039
:101DE00000BF3048006800F4003000900198401CAB
:101DF0000190009818B90198B0F5A06FF1D1294869
:101E0000006800F4003010B10120009001E00020D3
:101E100000900098012843D12348006840F010004A
:101E2000214908600846006820F003000860084661
:101E3000006840F0020008601A484068194948608C
:101E40000846406848600846406840F48060486042
:101E50000846406820F47C1048600846406840F41A
:101E6000E81048600846006840F08070086000BFD5
:101E70000C48006800F000700028F9D0094840685C
:101E800020F00300074948600846406840F002001F
:101E9000486000BF0348406800F00C000828F9D1F2
:101EA0000CBD0000001002400020024070B5024648
:101EB0000C46FF25FF2309E012F8010B80EA05011B
:101EC0000648405C80EA03050548435C2000A4F115
:101ED0000106B4B2F0D143EA052070BDD00600205F
:101EE000D007002010B592B0044601210820FFF76A
:101EF00085FE01210846FFF781FE01218803FFF7D7
:101F00007DFE01218804FFF769FE01210846FFF7E5
:101F100055FE01210420FFF7F1F84020ADF8440000
:101F200003208DF8460018208DF8470011A9684855
:101F3000FFF759F88020ADF8440004208DF84700E1
:101F400011A96348FFF74FF84FF48060ADF84400E3
:101F500003208DF8460018208DF8470011A95C4831
:101F6000FFF741F84FF40060ADF8440004208DF80D
:101F7000470011A95648FFF736F80D940020ADF838
:101F80003800ADF83A00ADF83C00ADF840000C2048
:101F9000ADF83E000DA94F4800F0B4FC01214D48BA
:101FA00000F03EFC012240214A4800F045FC0D941F
:101FB0000020ADF83800ADF83A00ADF83C00ADF8BF
:101FC00040000C20ADF83E000DA9434800F09AFCFB
:101FD0000121414800F024FC012240213E4800F04C
:101FE0002BFC25208DF8300001208DF831008DF874
:101FF00032008DF833000CA8FFF79CFD1021354806
:1020000000F0F6FB012240F22441324800F054FC7B
:1020100027208DF8300001208DF831008DF8320036
:102020008DF833000CA8FFF785FD10212A4800F039
:10203000DFFB012240F22441274800F03DFC274805
:1020400002902448001D019000200390322004904B
:102050000020059080200690002007900890202006
:10206000099000020A9000200B9001A91C48FEF77D
:102070006BFE4FF40030FEF725FE01211848FEF7F5
:102080003DFE184802901448001D01900020039066
:1020900032200490002005908020069000200790B8
:1020A00008902020099000020A9000200B9001A9BE
:1020B0000B482838FEF748FE4FF40070FEF702FE8A
:1020C000012107482838FEF719FE12B010BD0000A4
:1020D000000C014000380140004800409E090020EB
:1020E00058000240B3090020042808D14FF0E02135
:1020F000096941F004014FF0E022116107E04FF05F
:10210000E021096921F004014FF0E02211617047DC
:102110007047000010B51348006840F001001149F5
:10212000086008464068104908400E494860084663
:1021300000680E4908400B4908600846006820F412
:10214000802008600846406820F4FE0048604FF494
:102150001F008860FFF735FE4FF0006004490860FB
:1021600010BD0000001002400000FFF8FFFFF6FE67
:1021700008ED00E02DE9FF5F002003900121BA483F
:1021800000F0E8F980B10121B74800F0D4F9B74870
:102190000068401CB5490860B54AB64BB64903C94A
:1021A00000F022FFB44A03C2B449B1F90610B44AA0
:1021B000B2F90620881800EBD0714910B14A1160BD
:1021C000AF4A9168AD4A906801F064FC04464FF054
:1021D000804101F0CDFCAC490860AC48006801F0DA
:1021E000A8F98046AA4AAB4B01F00AFA82460022BF
:1021F000A94B00F0ADFF06460022A84B00F0A8FF57
:10220000044601F039F9A64908600020A549086094
:10221000A548407A03287BD1A44897490CC803C934
:1022200001F022FB04469A4AA14B01F0ADF904D219
:10223000A0484068A049086002E000209E4908606C
:102240009D48006801F0FAFB04460022134601F0A5
:10225000D7F82BD18C48006801F0F0FB06464FF010
:102260003332964B01F090F901D8012000E00020B4
:10227000804601F05EF921F0004104460022134639
:1022800001F0BEF812D0012002907B4803C8CDE9CE
:1022900000017D480268884801688948FFF73EFAD6
:1022A000044601F027FD7F49086011E000200290FC
:1022B000714803C8CDE90001734802687E4801688F
:1022C0007F48FFF72BFA044601F014FD75490860BA
:1022D00074480068FF2803DDFF207249086008E0A9
:1022E0007048006810F1FF0F03DA6FF0FE006D49CF
:1022F00008607049886801F0FDFC644908600021AD
:102300006D48006801F04AFE03D2012003902AE0E4
:1023100009E000216848006801F040FD23D24FF039
:10232000FF3003901FE06048B0F9060000024FF450
:10233000257190FBF1F05B4908605B48B0F9000043
:10234000404200EB80105149086056480068002860
:1023500002DD0120039006E052480068002802DAFE
:102360004FF0FF3003904148007800F0030050B96F
:102370004648006818B90120FEF7C2FD03E0434853
:102380000068FEF7BDFD394800680521B0FBF1F299
:1023900001FB120048B94B4A117F434A107A414A67
:1023A000128812B2039B00F095FB304800680521AB
:1023B000B0FBF1F201FB1200012809D1414A117F63
:1023C000394A107A374A128812B2039B00F064FC33
:1023D000264800680521B0FBF1F201FB120002283B
:1023E0001CD12F48006827490968364BCDE90010F9
:1023F0001A7F2D4B197A587A2A4B1B68FFF73CFB42
:102400001F4AB2F906101D4AB2F90600254A128881
:1024100013B2234A128812B2FFF7B4FA13480078B5
:1024200000F0070058B91E480068264B00901A7F3C
:102430001D4B197A587A134B1B68FEF7B3FB0B48F8
:1024400000680A21B0FBF1F201FB120050B91748F5
:1024500009490CC803C901F007FA04460C4A144B99
:1024600001F0CCF9BDE8FF9F001400408006002079
:102470007B14AE47E17A843F7806002028090020CB
:102480004009002060060020700600205806002049
:102490009A9999999999284000805040004050405D
:1024A0005C06002064060020D0080020880600207A
:1024B0009999B93F64090020680600203333D33F5F
:1024C00074090020800900201FB501212020FFF79A
:1024D00085FB42F20F70ADF808004720ADF804000C
:1024E0000020ADF80A00ADF8060001A90F4800F081
:1024F0004BF801210D4800F01BF8012211460B4852
:1025000000F039F837208DF8000002208DF8010026
:102510008DF8020001208DF803006846FFF70AFBE2
:102520000121024800F00AF81FBD0000001400401D
:10253000CA4302827047CA430282704721B10288AF
:1025400042F00102028004E002884FF6FE731A4056
:102550000280704730B50246002000230024158A0F
:1025600005EA0103958905EA010413B10CB10120C4
:1025700000E0002030BD1AB183890B43838102E063
:1025800083898B4383817047002202881D4B9842C8
:102590000ED01D4B98420BD0B0F1804F08D01B4B92
:1025A000984205D01A4B984202D01A4B984204D157
:1025B0004FF68F731A404B881A43174B984207D037
:1025C000164B984204D04FF6FF431A40CB881A436B
:1025D00002808B8883850B8803850A4B98420BD039
:1025E000094B984208D00E4B984205D00D4B9842AB
:1025F00002D00D4B984201D10B7A038601238382CE
:1026000070470000002C01400034014000040040ED
:1026100000080040000C0040001000400014004082
:1026200000400140004401400048014010B540F224
:1026300024410D4800F016F9A0B10B4800880A4863
:10264000001D008809480078012803D1074908487F
:10265000FEF79EFD32210748FEF794FB0121054855
:10266000FEF74CFB10BD0000004C00404202002071
:102670004A0200203004024010B540F225511548AE
:1026800000F0F0F880B140F22551124800F0B9F89E
:10269000104800F0A3F91049104A127888540F48E6
:1026A0000078401C0D49087040F22441094800F0B0
:1026B000D9F870B107480088064880880748007834
:1026C000122803D104490648FEF776FD002003498D
:1026D000087010BD00500040E50800202C000020CC
:1026E000D008002010B540F22441104800F0BAF89C
:1026F000D8B10E4800880D48001D008800210C4804
:10270000FEF7FCFA0A48FEF705FBC0F13200152877
:1027100003D108490848FEF753FF32210448FEF769
:1027200031FB01210248FEF7E9FA10BD00380140F3
:10273000580002409E0900208009002010B540F298
:102740002441114800F08EF8E0B10F4800880E488F
:10275000001D008800210D48FEF7D0FA0B48FEF757
:10276000D9FAC0F132040B2C04D122460849094899
:10277000FEF7F2FD32210548FEF704FB0121034874
:10278000FEF7BCFA10BD0000004400406C0002409F
:10279000580900206409002010B540F22441104877
:1027A00000F060F8D8B10E4800880D48001D008880
:1027B00000210C48FEF7A2FA0A48FEF7ABFAC0F176
:1027C0003200152803D108490848FEF7F9FE3221E6
:1027D0000448FEF7D7FA01210248FEF78FFA10BD30
:1027E0000048004030000240B3090020800900206A
:1027F00001F40072B2F5007F00D100BFCA4302802D
:10280000704710B50022002340F66A14A14200D19F
:1028100000BF0A1201249440A3B2DC43048010BD1F
:1028200021B1828942F40052828104E082894DF60E
:10283000FF731A40828170471AB1838A0B438382E7
:1028400002E0838A8B438382704702460020B1F501
:10285000007F00D100BF13880B400BB1012000E0C6
:102860000020704770B50246002400230025002098
:1028700040F66A16B14200D100BFC1F3421501F023
:102880001F03012606FA03F3012D02D19689334076
:1028900006E0022D02D1168A334001E0968A3340C9
:1028A0000C12012606FA04F41688344013B10CB158
:1028B000012000E0002070BDF0B503460024002692
:1028C0000025002040F66A17B94200D100BF184623
:1028D000C1F3421401F01F06012707FA06F5012C87
:1028E00001D10C3004E0022C01D1103000E0143092
:1028F0001AB107682F43076002E00768AF4307601B
:10290000F0BD00002DE9F04786B005460E460024D4
:10291000A24600BFA1460027B08900B100BF2F46E4
:102920002C8A4CF6FF700440F08804432C82AC895A
:102930004EF6F3100440B08831890843718908438A
:102940000443AC81AC8A4FF6FF400440B089044395
:10295000AC8201A8FFF762F91F48874202D1DDF877
:1029600010A001E0DDF80CA0A88900F4004040B1FF
:102970000AEBCA0000EB0A1031684900B0FBF1F81D
:1029800007E00AEBCA0000EB0A1031688900B0FBCF
:10299000F1F86420B8FBF0F004012009642101FB88
:1029A0001089A88900F4004040B1322000EBC90032
:1029B000B0FBF1F000F00700044308E0322000EB28
:1029C00009106421B0FBF1F000F00F0004432C81EA
:1029D00006B0BDE8F0870000003801400146888855
:1029E000C0F308007047C1F30802828070470000FE
:1029F00000B585B002212F48FDF78AFD40B10221C4
:102A00002C48FDF7ADFC6A4600212A48FDF72AFF55
:102A1000294A0199881A91421BD00BDC27480844A7
:102A200078B30D2827D0B0F5807F38D0A0F20D10F4
:102A300040BB2EE00D2806D0B0F5807F15D0A0F267
:102A40000D10F8B90BE00DF10B011D48FEF71AFE51
:102A50002CE00DF10B011A48FEF748FE26E00DF1BF
:102A60000B011848FEF70EFE20E00DF10B01154892
:102A7000FEF73CFE1AE00DF10B011348FEF702FED3
:102A800014E000E011E00DF10B010F48FEF72EFEFF
:102A90000CE00DF10B010D48FEF7F4FD06E00DF121
:102AA0000B010A48FEF722FE00E000BF00BF05B0A0
:102AB00000BD0000006400408D15F81073EC07EFB6
:102AC000F8080020100900202809002040090020F3
:102AD00000BFFEE72DE9F04F8BB00646894614464D
:102AE0001D46002009900A90834682460890B4F55E
:102AF000807F01DD4FF4807414F5807F01DA6FF080
:102B0000FF045F4805705F48048005FB04F000285F
:102B100000DB7DBB204600F00CFD21F000410746A4
:102B200000F0DAFCC0B20890089800F019FD0746E2
:102B300088465548008800F013FD0022534BCDE92C
:102B4000000100F05DFD3A464346CDE9020100F088
:102B500057FD00224E4BCDE9040100F0F9FACDE912
:102B6000060100F0B9FC1FFA80FBCBF100000FFA60
:102B700080FA0024032E64D1B9F1000F4AD1002C51
:102B800015DD03208DF82400E0B28DF82500200A21
:102B90008DF8260020208DF8270000208DF82800D1
:102BA0008DF829008DF82A008DF82B005FE0002CAD
:102BB00017DA02208DF824006042C0B28DF825009B
:102BC0006042000A8DF8260020208DF827000020A2
:102BD0008DF828008DF829008DF82A008DF82B003B
:102BE00045E003208DF8240000208DF825008DF8A5
:102BF000260060208DF8270000208DF828008DF831
:102C000029000AF0FF008DF82A004FEA1A208DF8FB
:102C10002B002CE003208DF8240000208DF82500E7
:102C20008DF8260060208DF8270000208DF8280000
:102C30008DF8290010208DF82A00FF208DF82B0038
:102C400015E003208DF8240000208DF825008DF874
:102C5000260060208DF8270000208DF828008DF8D0
:102C6000290010208DF82A00FF208DF82B00094A3A
:102C7000082109A8FDF752FF0BB0BDE8F08F000056
:102C80009406002096060020980600200000F03FE1
:102C900000E06F40F3E3F8102DE9F04F8BB00646EB
:102CA000894614461D46002009900A9083468246B4
:102CB0000890B4F5807F01DD4FF4807414F5807FB7
:102CC00001DA6FF0FF0405FB04F0002800DB7DBB98
:102CD000204600F02EFC21F00041074600F0FCFBEE
:102CE000C0B20890089800F03BFC0746884653485D
:102CF000008800F035FC0022514BCDE9000100F0C6
:102D00007FFC3A464346CDE9020100F079FC0022FF
:102D10004C4BCDE9040100F01BFACDE9060100F0AF
:102D2000DBFB1FFA80FBCBF100000FFA80FA0024D6
:102D3000032E64D1B9F1000F4AD1002C15DD032018
:102D40008DF82400E0B28DF82500200A8DF82600C9
:102D500028208DF8270000208DF828008DF8290004
:102D60008DF82A008DF82B005FE0002C17DA022086
:102D70008DF824006042C0B28DF825006042000A40
:102D80008DF8260028208DF8270000208DF82800D7
:102D90008DF829008DF82A008DF82B0045E00320DE
:102DA0008DF8240000208DF825008DF8260068207D
:102DB0008DF8270000208DF828008DF829000AF0F2
:102DC000FF008DF82A004FEA1A208DF82B002CE026
:102DD00003208DF8240000208DF825008DF82600B2
:102DE00068208DF8270000208DF828008DF8290034
:102DF00010208DF82A00FF208DF82B0015E003200D
:102E00008DF8240000208DF825008DF8260068201C
:102E10008DF8270000208DF828008DF8290010205B
:102E20008DF82A00FF208DF82B00074A082109A8F9
:102E3000FDF774FE0BB0BDE8F08F00009A0600208D
:102E40000000F03F00E06F40F3E4F81010B56FF0C1
:102E50000400FFF749F90A4800680A49B0FBF1F09D
:102E6000094908700846007800EB4001C1EBC0102A
:102E70004FF6FF7101EAC0000449088010BD000050
:102E80000000002000127A0014000020160000202C
:102E90000146114A12884A434FF0E0235A6100224A
:102EA0009A611A46126942F001021A6100BF4FF09E
:102EB000E022106900F001021AB100F48032002A09
:102EC000F5D04FF0E022126922F001024FF0E0232A
:102ED0001A6100229A6170471600002010B5024660
:102EE0000B460021002003E0545C0444E0B2491C7E
:102EF0009942F9DB10BD83604260016070470000B9
:102F000008B54FF4A060FEF74DFE00200423082210
:102F100007210090FDF720FCFFF798FF4FF07E534C
:102F20004FF07C5213491448FFF7E5FFFEF7E2FD2E
:102F30001248FEF7DDFE4FF4E130FEF79BFC4FF444
:102F40009640FDF73DFF4FF4E130FEF7CBFFFFF772
:102F5000BBFA1E20FFF79CFF0AE00948006808B989
:102F6000012000E0002006490860C820FFF790FF1C
:102F7000F3E700000000484274090020A086010029
:102F8000AC01214221F00042A2F16052B2F5801F53
:102F900001F0004328BFD2F17F6C0BD95FEA001C1F
:102FA00043EAC20242EB507018BF704728BF20F0BE
:102FB00001007047B2F5801FBCBF184670474FEA4A
:102FC000410C1CF5001F02D2084600F0E2BF70B5AC
:102FD00000F0C0FB00000089FFF7F6BF4FF0004093
:102FE000A0F580007047000010B591EA030F48BFBC
:102FF00083F0004300F14084841A71EB030C05D286
:10300000121943EB0C03001B61EB0C01DFF824E108
:103010004FEA1154A4EB135C1EEA430F18BF9EEA5B
:10302000445F73D023EA0E03DCF1200E21EA045141
:1030300043F4801332D322FA0CFE10EB0E0023FA75
:103040000CFE41EB0E01CCF1200E03FA0EFE10EB4C
:103050000E0051F10001B1F5801FCCF1200E32D2EB
:1030600001EB045112FA0EF2BDE8104058BF704750
:10307000401C38BF5FEA420218BF7047002814BFE7
:1030800020F0010041F100014FEA410313F5001F58
:1030900038BF7047A1F1C04100F0AABB012A43EB41
:1030A0000302ACF1200CDCF11F0E32BF4FF0000E1A
:1030B00023FA0CF310EB030041EB0451B4EB115F66
:1030C000D0D0A1EB045101F5801149085FEA30002E
:1030D00001EB04510ED350F1000038BF12FA0EFE7E
:1030E00008D1BDE81040C9E7401C38BF5FEA420282
:1030F000CAD1C3E7BDE810404FEA410313F5001FF2
:1031000038BF7047A1F1C04100F072BB9EEA445F36
:1031100008D011EA5E0FBDE8104004BF01F0004185
:1031200000207047BDE8104070B500F013FB00BFF1
:1031300064FBBE3E0000E0FF491058BFC1F14041B2
:103140005B1058BFC3F140438B42EFF300807047E0
:103150002DE9C04130B4DFF8A0C23CEA111418BF19
:103160003CEA131400F0EC8081EA03051CEA111418
:1031700044EAD57418BF1CEA131500F0C780A4EB0D
:1031800005044FF0004545EAC12145EAC32341EA61
:10319000505143EA525304F17F74994204F50034CC
:1031A0004FEAC0204FEAC22208BF904200F09C8044
:1031B0004FEA13650FF24016765D4FEA134506FBA2
:1031C00005F7C7F1807706FB07F74FEAD737A7FB6C
:1031D00003687642C8F58038A7FB06CE38BFA8F151
:1031E000010807FB08E64FF0000EA6FB028CE6FB89
:1031F00003CEDCF1000CCEF1004E38BFAEF1010E73
:10320000A6FB0C584FF000074FF00005E6FB0E87B9
:10321000A1FB08C6A0FB07CE16EB0E0645F1000584
:10322000E1FB076515F1E04E7EBFA4F580345FEA4F
:1032300046066D4116F1800745F100054FEA172754
:103240004FEA066647EA0567A6F1DE46B6F1805FFB
:103250004FEA15251FD9384624F0010C05EBC4713F
:10326000BCF1FE6F01EB0C1102D8F0BCBDE800818F
:1032700024425CBF01F5801E9EEAC47F02D4F0BCEC
:10328000BDE80081244238D4F0BCA1F1C041BDE8C2
:10329000004100F0ADBA4FEAD22242EA43524FEA6F
:1032A000D323A7FB02864FEAD02040EA415007FB18
:1032B00003661EEA0E0F4FEAD12105FB026658BFD6
:1032C000A6EB0056B6EB00564FEA520E4EEAC37E0E
:1032D00018EB0E0E56EB530EBDD518EB02085E41EF
:1032E0007F1C55F10005B6E74FF480154FF000073D
:1032F0004FF000064FF00008ADE7F0BC4FF00000C3
:1033000001F1C04101F00041BDE8008111EA0C1F4C
:103310000CEA131500D00CE013EA0C1F00F0258016
:103320004FF00000F0BC81EA030101F00041BDE86C
:103330000081F0BCBDE8004181EA030100F058BA09
:10334000F0BCBDE8004170B500F004FA097EFC3E17
:1033500000F007B881EA03014FF0000001F00041DE
:10336000704781EA030100F043BAF0BCBDE80041B8
:103370004FF0000021497047FFFDFBF9F7F5F4F22B
:10338000F0EEEDEBE9E8E6E4E3E1E0DEDDDBDAD800
:10339000D7D5D4D3D1D0CFCDCCCBCAC8C7C6C5C45E
:1033A000C2C1C0BFBEBDBCBBBAB9B8B7B6B5B4B375
:1033B000B2B1B0AFAEADACABAAA9A8A8A7A6A5A460
:1033C000A3A3A2A1A09F9F9E9D9C9C9B9A99999824
:1033D0009797969595949393929191908F8F8E8EC7
:1033E0008D8C8C8B8B8A8989888887878685858454
:1033F00084838382828181800000FF070000F87F40
:1034000051EA030C17D41CF5801F58BFBCF5801F70
:1034100000F10680994218BF704708BF904270477C
:1034200007D711F5801F58BF13F5801F19D4994293
:103430007047894270471CF5801F08D5BCF5801F76
:10344000F7D58B4218BF704708BF824270474FF4D0
:10345000001C1CEB410F38BF1CEB430F01D28B4209
:10346000704770B500F076F9922449004FF0005192
:103470004FF08053FFF760BE4FEA41034FEA5353CA
:10348000A3F58063D3F11E03C8BFD3F1210C0CDD7B
:103490004FF0004242EAC12242EA505232FA03FCA3
:1034A0008CEAE17CACEBE1707047102BC4BF0020CC
:1034B000704703F5787CBCF1FF3F04D06FF0004209
:1034C00082EA2100704770B500F044F949922480E7
:1034D00000207047F2E700004FEA1153A3F5806324
:1034E000D3F11E03A8BFD3F1200C08DB4FF000423C
:1034F00042EAC12252EA505232FA03F070470942BE
:103500000BD4102BC4BF0020704703F5787CBCF1AE
:10351000FF3F05D04FF0FF3070474FF0000070477D
:1035200070B500F017F900BF499224800020704761
:10353000F0E710F0004248BF4042B0FA80F310FAC2
:1035400003F10AD0C3F11D0303F580634FEA415034
:1035500002EB035202EBD12170474FF0000070479D
:10356000B0FA80F310FA03F10AD0C3F11D0303F59A
:1035700080634FEA41504FEA035202EBD12170477A
:103580004FF000007047000051EA030C17D41CF5FF
:10359000801F58BFBCF5801F00F10680994218BFFC
:1035A000704708BF9042704707D711F5801F58BF7A
:1035B00013F5801F19D499427047894270471CF552
:1035C000801F08D5BCF5801FF7D58B4218BF704708
:1035D00008BF824270474FF4001C1CEB410F38BFFC
:1035E0001CEB430F01D28B42704770B500F0B2F86C
:1035F000922449004FF000514FF08053FFF79CBDDB
:10360000DFF848C170B51CEA111E1EBF1CEA131575
:103610009EEA0C0F95EA0C0F00F06F8081EA03041C
:1036200023EA4C134EEAD47E21EA4C1141F4801176
:1036300043F48013AE44A1FB024CA0FB0365AEF142
:103640007F7E361955EB0C05A1FB034C4CF10003B2
:10365000A0FB021C16EB0C06654153F10003094266
:1036600018BF46F0010613F4007F0BD14FEA033177
:103670004FEA0530340341EA155140EA16506FF025
:1036800003020AE04FEAC3214FEAC520F40241EAEF
:10369000555140EA56506FF0020202EB2E4201EB08
:1036A000025585EACE710AD05FEA440C18BF24F0B7
:1036B000004450F1000041F1000120EAD47040F2D2
:1036C000FE7C624500D270BDA84214BF4FF080441A
:1036D0004FF04044002E08BF0024BEF1806FA8BF09
:1036E000A1F1C041BDE8704080F282804FF000003F
:1036F00001F1C04101F0004170479EEA0C0F0CEA55
:10370000131518BF95EA0C0F06D04FF0000081EAA0
:10371000030E0EF0004170BD00F01CF88900013E60
:1037200000F007B800F009B84FEA430C5FEA5C5CB0
:1037300008D081EA030100F05BB84FEA410C5FEA70
:103740005C5CF6D14FF00000014970470000FF07B4
:103750000000F87F0EF1020E2EF0030E5EF8046BEF
:10376000364205D4012A43EB030515F5001F12D894
:10377000012841EB010C1CF5001F0CD80ED14FEABB
:10378000D17C15F5001F0CEB4C0C0CF1020C08BFA2
:103790004CEBD37C04E04FF0080C01E04FEAD37C03
:1037A0000CEB4C0526FA05F606F00706B6F1040CFC
:1037B00006D20EEB860CBDE870404CF0010C604761
:1037C000DFE80CF0090B02024FF000414FF000005F
:1037D000A1F5002170BD19461046012851EB0104E6
:1037E00018BFD4F5001484BF002001F0004170BD63
:1037F0000808A0F500114FEA3101704753EA010CA7
:1038000017D41CF5801F58BFBCF5801F00F106803F
:103810008B4218BF704708BF8242704707D713F525
:10382000801F58BF11F5801F19D48B4270479B42EF
:1038300070471CF5801F08D5BCF5801FF7D599424D
:1038400018BF704708BF904270474FF4001C1CEB34
:10385000430F38BF1CEB410F01D2994270470FB4A0
:103860000CBC03BCFFF7C1BE10B591EA030F48BF03
:1038700083F000433FF5C0AB841A71EB030C07D211
:1038800012198CF0004C43EB0C03001B61EB0C0194
:10389000DFF8A4E14FEA1154A4EB135C1EEA430FD6
:1038A00018BF9EEA445F00F0B08023EA6E035242E4
:1038B00021EA0451C3EB6E0338BF5B1EDCF1200E1E
:1038C00025D322FA0CFE10EB0E0043FA0CFE41EB5E
:1038D0000E01CCF1200E03FA0EFE10EB0E0051F19A
:1038E0000001CCF1200E29D412FA0EF201EB0451A2
:1038F000BDE8104058BF7047401C1CBFB2F1004FDC
:10390000704700280CBF491C20F00100704712EBE3
:10391000020E43EB030218BF4FF0010E4EEA4202C3
:10392000ACF1200CDCF11E0E54D943FA0CFE10EB66
:103930000E0051F1FF31CCF11E0ED5D50EF1010E66
:1039400012FA0EFE404141EB010101EB445C5FEADB
:103950005C5C10D910EBDE7001EB045138BFBEF196
:10396000004FBDE8104018BF704700280CBF491C2D
:1039700020F00100704730D24FEAD42C11F500112D
:1039800024F400641BD0B1FA81F20B3AA41AA41EED
:10399000D2F12003914030FA03F31943904001EB38
:1039A000CC71002C01EB0451BDE81040A8BF70475A
:1039B00001F1C0414FF0000001F000417047B0FA42
:1039C00080F310FA03F100D110BDE41A173C48054A
:1039D000C90AE4E701EB045110BD491001EB0451A1
:1039E000BDE810404FEA300002E04FF000017047A0
:1039F0004A0008BF0042F8D0B2F5001F28BF704748
:103A000001F000414FF0000070479EEA445F07D08C
:103A100011EA5E0FBDE8104004BF0021002070478E
:103A2000BDE8104070B5FFF795FE00BF40DFF63EE1
:103A300083F00041104670470000E0FF43004FEA6A
:103A4000D30C4FEA3C0C43401FBF40070CF16051C0
:103A500013F0FE4F70471CF0006F03D100200CF0F4
:103A6000004170470CF0004343EA507010B540EA43
:103A7000CC0000F048FA00BF000000924FEA0001BD
:103A8000FFF7B6BE4FF000414FF00000A1F5002156
:103A90007047000090EA010F48BF81F0004100F13B
:103AA000C082421A3CBF801A89184FEAD0524FF0A8
:103AB0007F4C1CEA410FA2EBD15318BF9CEA026F66
:103AC00000F03B804FF0004C4CEA00204CEA012112
:103AD00021FA03FC10EB0C0C1ED202F1FF325FEA5C
:103AE0001C2040EBC25038BF70471CF07F0F4FEADC
:103AF000400C18BFBCF17F4F38BF7047C3F12003A3
:103B0000994008BF20F00100BCF17F4F38BF7047DB
:103B1000A0F1C04000F03DBA4FEA3C00000A40EB83
:103B2000C25028BF1CF0FF0F4FEA400CE6D018BF70
:103B3000BCF17F4F38BF7047EAE79CEA026F05D0BF
:103B400010EA5C0F08BF00F00040704710B500F0AD
:103B5000DAF900BF64FBBE3E401058BFC0F14040E0
:103B6000491058BFC1F140418142EFF300807047D6
:103B70004FF47F0C1CEAD0121EBF1CEAD11392EA4C
:103B80000C0F93EA0C0F00F0858090EA010F48BFFC
:103B900042F4807240F4000C41F400002CF07F41AC
:103BA00020F07F4000B58142A2EB03020FF2081C17
:103BB000ACEB504EC0F100009EF800E04FEA4E0E14
:103BC00000FB0EFC38BF49004FEA2C1C02F5FA023C
:103BD0000CFB0EF34FEACE1E4FEA112C4FEAC12127
:103BE0000EEB635E42EB22420EFB0CFC4FEA1C53D1
:103BF00000FB03114FEA112C4FEA01310EFB0CFCC4
:103C00004FEADC4C00FB0C11C14228BF09184CEBF9
:103C100003335DF804EB10EB410143EBC250B2F506
:103C20007C0F38BF704729D512F0F00F1CBF00F190
:103C3000C04000F000407047008182838485868701
:103C400088898B8C8D8E8F919293959697999A9C5B
:103C50009D9FA0A2A3A5A7A8AAACAEB0B2B3B5B7CA
:103C6000B9BCBEC0C2C5C7C9CCCED1D4D7D9DCDFA0
:103C7000E2E6E9ECF0F3F7FAFE0000004FEA400C50
:103C80000CF1807CBCF17E4F28BF7047B0F1C04082
:103C900000F07FB990EA010F0CEAD11348BF42F45B
:103CA0008072624538BF634507D213F47F0F16D088
:103CB00080EA010000F00040704710B500F023F9E1
:103CC000097EFC3E00F005B880EA010000F00040EB
:103CD000704780EA010000F0004000F05AB912F489
:103CE0007F0F04BF0248704780EA010000F051B91D
:103CF0000000C07F41000B0ED3F19E0208D950F4A2
:103D000000034FEA032323FA02F048BF4042704702
:103D100010B500F0F8F800BF4992248000207047E9
:103D20006FF0004282EA200070470000C10DD1F11F
:103D30009E0206DB4FEA002343F0004323FA02F021
:103D40007047004207D54FEA4001B1F1FE4F02D261
:103D50004FF00000704710B500F0D5F8499224806C
:103D6000002070476FEA20007047000010F000410B
:103D700048BF4042B0FA80F310FA03F2C3F19D034A
:103D80000BD051EAC35101EB1220530638BF7047E4
:103D900000F1010008BF20F00100704750EA010C5B
:103DA00000F113801CF5000F58BFBCF5000F01D4C3
:103DB0008842704707D710F5000F58BF11F5000F64
:103DC00015D488427047894270471CF5000F04D50E
:103DD000BCF5000FF7D5814270474FF0807C1CEB9B
:103DE000400F38BF1CEB410F01D28142704710B524
:103DF00000F089F8922449004FF000504FF08051B4
:103E0000FFF7AABE4FF47F0C1CEAD0121EBF1CEABB
:103E1000D11392EA0C0F93EA0C0F00F0478090EA5E
:103E2000010F48BF42F480724FF0004C4CEA002072
:103E30004CEA012102EB0302A0FB0113A2F50002F0
:103E4000002918BF43F001035B0028BF4FEA33038A
:103E500042EB22425FEA132C4CEBC2502EBFBCEB6C
:103E6000436FB2F57C0F70474FEA036CBCF1004F13
:103E700008BF20F00100B2F57C0F38BF70470BD5AA
:103E800082F0FF0212F5803FC8BF704700F1C040CA
:103E9000D8BF00F00040704700F5000C5FEA4C0C02
:103EA00048BF7047B0F1C04000F073B890EA010F0E
:103EB0000CEAD11348BF42F48072624538BF6345B3
:103EC00004D280EA010000F00040704710B500F015
:103ED0001AF800BF8900013E00F007B800F009B8E9
:103EE0005FEA410C5FEA1C6C08D080EA010000F038
:103EF00050B85FEA400C5FEA1C6CF6D14FF000400E
:103F0000A0F5800070470EF1020E2EF0030E5EF851
:103F1000044B244204D44FEA4102B2F17F4F11D83E
:103F20004FEA4003B3F17F4F0CD80ED14FEAD07C5B
:103F3000B2F17F4F0CEB4C0C0CF1020C08BF4CEBB8
:103F4000D17C04E04FF0080C01E04FEAD17C0CEB8F
:103F50004C0324FA03F404F00704B4F1040C06D271
:103F60000EEB840CBDE810404CF0010C6047DFE81C
:103F70000CF0070802024FF00040A0F5800010BDD1
:103F80000846420018BFD2F1807288BF00F000409E
:103F900010BDFF2141EAD050C005704751EA000C26
:103FA00000F113801CF5000F58BFBCF5000F01D4C1
:103FB0008142704707D711F5000F58BF10F5000F69
:103FC00015D481427047894270471CF5000F04D513
:103FD000BCF5000FF7D5884270474FF0807C1CEB92
:103FE000410F38BF1CEB400F01D28842704780EA76
:103FF000010081EA000180EA0100FFF7F8BE80F0CD
:10400000004090EA010F7FF54CAD81F0004100F0D7
:1040100008B8000090EA010F48BF81F000413FF569
:1040200040AD421A04D882F00042A0EB02001144D5
:104030004FEAD0524FF07F4C1CEA410FA2EBD15314
:1040400018BF9CEA026F4AD04FF0004C4CEA0020A7
:104050004CEA012121FA03FCB0EB0C0C0FD412F056
:10406000FE0F36D05FEA4C001DD5001240EBC25067
:1040700038BF70471CF03F0F18BF70470BE0A2F12C
:1040800001025FEA1C2040EBC25038BF70471CF0B1
:104090007F0F18BF7047C3F12003994014BF401E23
:1040A00020F00100704780084FEA122308BF7047D4
:1040B000B0FA80FCA2EB0C02CCF1280C60FA0CF0F8
:1040C00093EA122F04BF00EBC25070474FEAC3704F
:1040D0007047130A5FEADC1008BF7047F6E79CEAF6
:1040E000026F04D010EA5C0F08BF0020704710B5C3
:1040F000FFF709FF40DFF63E81F000407047000007
:1041000066CC020900000000000000000000000072
:104110003041000800000020D00800006C010008B9
:1041200098420008D008002058070000D00100087D
:10413000500600A24A040001A00901020304060778
:104140000809106114000614020406080001200882
:10415000C1814001C0804104610C2108E118A11C0B
:10416000011A30011638013660012E70012F6000EF
:10417000FF00C0C101C30302C2C60607C705C5C40C
:1041800004CC0C0DCD0FCFCE0E0ACACB0BC909083B
:10419000C8D81819D91BDBDA1A1EDEDF1FDD1D1C7B
:1041A000DC14D4D515D71716D6D21213D311D1D00B
:1041B00010F03031F133F3F23236F6F737F53534AB
:1041C000F43CFCFD3DFF3F3EFEFA3A3BFB39F9F87B
:1041D0003828E8E929EB2B2AEAEE2E2FEF2DEDEC1B
:1041E0002CE42425E527E7E62622E2E323E121204B
:1041F000E0A06061A163A3A26266A6A767A565644B
:10420000A46CACAD6DAF6F6EAEAA6A6BAB69A9A8BA
:104210006878B8B979BB7B7ABABE7E7FBF7DBDBCFA
:104220007CB47475B577B7B67672B2B373B171708A
:10423000B0509091519353529296565797559594EA
:10424000549C5C5D9D5F9F9E5E5A9A9B5B995958FA
:1042500098884849894B8B8A4A4E8E8F4F8D4D4C9A
:104260008C448485458747468682424383418180CA
:104270000AFF401609FF1609131609FF000DFF1665
:104280000401330120055A45983C08120F020133FE
:084290004109FF7809FC7800E8
:0400000508000215D8
:00000001FF
