:020000040800F2
:1000000050100020150200084D1A0008471600087D
:10001000491A00085B030008D92B00080000000003
:10002000000000000000000000000000DD1C0008CF
:10003000E10F000800000000D51A00086D2000083C
:100040002F0200082F0200082F0200082F020008CC
:100050002F0200082F0200082F0200082F020008BC
:100060002F0200082F0200082F020008090C0008C8
:100070002F0200082F0200082F0200082F0200089C
:100080002F0200082F0200082F0200082F0200088C
:10009000F92A00082F0200082F0200082F0200088A
:1000A0002F0200082F0200082F0200082F0200086C
:1000B0002F0200082F0200082F0200082F0200085C
:1000C0002F0200082F0200082F0200082F0200084C
:1000D0002F020008D12700083928000891280008BD
:1000E0002F0200082F0200082F0200082F0200082C
:1000F0002F0200082F0200082F0200082F0200081C
:100100002F0200082F0200082F0200082F0200080B
:1001100019270008652700082F020008D1200008D1
:100120002F0200082F0200082F0200082F020008EB
:1001300000F002F800F05EF80AA090E8000C82449B
:100140008344AAF10107DA4501D100F053F8AFF278
:10015000090EBAE80F0013F0010F18BFFB1A43F0A5
:1001600001031847084200002842000010F8013B34
:100170000A4413F0030408BF10F8014B1D1108BF17
:1001800010F8015B641E05D010F8016B641E01F8C5
:10019000016BF9D1002D15D010F8014B03F00C03C1
:1001A0000C2BA1EB04040ABF10F8013BA4EB831451
:1001B000A4EB032405F1010314F8016B5B1E01F8A5
:1001C000016BF9D5914238BF10F8013BD1D370478C
:1001D0000023002400250026103A28BF78C1FBD850
:1001E000520728BF30C148BF0B6070471FB51FBD05
:1001F00010B510BD00F07AF81146FFF7F7FF02F0D6
:10020000A5FF00F098F803B4FFF7F2FF03BC00F07D
:100210009DF800000948804709480047FEE7FEE7CF
:10022000FEE7FEE7FEE7FEE7FEE7FEE7FEE7FEE7A6
:1002300004480549054A064B704700007120000834
:1002400031010008500A002050100020500C0020FE
:10025000500C00204FF000020429C0F0128010F072
:10026000030C00F01E80CCF1040CBCF1020F18BF8F
:1002700000F8012BA8BF20F8022BA1EB0C0100F025
:1002800010B85FEAC17C24BF00F8012B00F8012BF5
:1002900048BF00F8012B70477047704770474FF018
:1002A000000200B5134694469646203922BFA0E8C6
:1002B0000C50A0E80C50B1F12001BFF4F7AF0907D2
:1002C00028BFA0E80C5048BF0CC05DF804EB8900C3
:1002D00028BF40F8042B08BF704748BF20F8022B06
:1002E00011F0804F18BF00F8012B7047754600F0E1
:1002F00029F8AE4605006946534620F007008546BA
:1003000018B020B5FFF794FFBDE820404FF000067D
:100310004FF000074FF000084FF0000B21F00701ED
:10032000AC46ACE8C009ACE8C009ACE8C009ACE830
:10033000C0098D4670470446AFF300802046FFF7A2
:1003400062FF000000487047F009002001491820B2
:10035000ABBEFEE726000200704700BFFEE70000CC
:10036000B1F5007F3AD00FDC202928D006DC012926
:100370001CD004291DD0082940D11DE0402921D0DE
:10038000B1F5807F3AD126E0B1F5004F31D006DCDF
:10039000B1F5806F25D0B1F5006F2FD124E0B1F514
:1003A000803F12D0B1F5003F28D111E0154A82609C
:1003B00025E00822C26022E01022C2601FE008226D
:1003C00002611CE01022026119E00822426016E07E
:1003D0001022426013E00422426010E004224260D6
:1003E0000DE0042242600AE00022826104224260A1
:1003F00005E0002282610422426000E000BF00BFED
:10040000704700000101010010B50021837A01222C
:1004100002FA03F13D4A126842F001023B4B1A60B6
:100420003A4A1C3212688A43384B1C331A60027BEA
:10043000CAB9364A0C3212688A43344B0C331A60FC
:100440004288C38842EA0343304A4032847A42F801
:1004500034300288838842EA03432C4A4032847A4B
:1004600002EBC4025360027B012A19D1274A0C32E5
:1004700012680A43254B0C331A604288038842EA0B
:100480000343224A4032847A42F83430C288838857
:1004900042EA03431D4A4032847A02EBC4025360AD
:1004A000C27A3AB9194A121D12688A43174B1B1DAA
:1004B0001A6006E0154A121D12680A43134B1B1DF1
:1004C0001A60028932B9114A143212688A430F4BFA
:1004D00014331A600289012A06D10C4A14321268B8
:1004E0000A430A4B14331A60427B012A06D1074A99
:1004F0001C3212680A43054B1C331A60034A126807
:1005000022F00102014B1A6010BD0000006600409D
:1005100070B504460D46002660692840002871D059
:10052000B5F5807F5CD010DC082D35D006DC012DC0
:1005300020D0022D24D0042D72D127E0102D31D0EF
:10054000202D35D0402D6BD138E0B5F5004F60D06F
:1005500009DCB5F5007F49D0B5F5806F4CD0B5F515
:10056000006F5DD14FE0B5F5803F2DD0B5F5003F70
:1005700056D12FE0A0682D4900F008FB064651E057
:10058000E068032100F002FB06464BE0E06808212A
:1005900000F0FCFA064645E0E068102100F0F6FAAB
:1005A00006463FE02069032100F0F0FA064639E0F4
:1005B0002069082100F0EAFA064633E0206910219C
:1005C00000F0E4FA06462DE06068082100F0DEFA4B
:1005D000064627E06068102100F0D8FA064621E0C0
:1005E000A069012100F0D2FA06461BE0A0690221B1
:1005F00000F0CCFA064615E0A069042100F0C6FA26
:1006000006460FE00FE0A069702100F0BFFA064631
:1006100008E06068042100F0B9FA064602E0FFE74E
:10062000002600BF00E00026304670BD0101010039
:100630001AB143690B43436102E043698B43436151
:10064000704730B5024600200023146824F00204ED
:100650001460146844F00104146000E05B1C5468EA
:1006600004F001041CB94FF6FF74A342F6D154689C
:1006700004F001040CB900206CE08C79012C04D149
:10068000146844F08004146003E0146824F08004CB
:100690001460CC79012C04D1146844F04004146037
:1006A00003E0146824F0400414600C7A012C04D197
:1006B000146844F02004146003E0146824F020045B
:1006C00014604C7A012C04D1146844F010041460B6
:1006D00003E0146824F0100414608C7A012C04D117
:1006E000146844F00804146003E0146824F008045B
:1006F0001460CC7A012C04D1146844F00404146012
:1007000003E0146824F0040414608C78A407CD7806
:1007100044EA05640D7944EA05444D7944EA0554F8
:100720000D886D1E2C43D461146824F001041460FC
:10073000002300E05B1C546804F001041CB14FF678
:10074000FF74A342F6D1546804F001040CB10020F8
:1007500000E0012030BD00002DE9F0418AB00446E0
:100760000D4616461F46DDF840800121084601F07F
:10077000D3F90121480601F0BFF90121082001F059
:10078000CBF901214FF4EA1000F0B6FC4FF40070F1
:10079000ADF8240003208DF8260018208DF82700DE
:1007A00009A92D4800F01DFC4FF48070ADF824001D
:1007B00048208DF8270009A9274800F012FC0020E6
:1007C0008DF81E008DF81F008DF820008DF8210097
:1007D0008DF822008DF823008DF81A808DF81B40CB
:1007E0008DF81C608DF81D50ADF8187006A91B48D7
:1007F000FFF727FF00208DF812008DF8130001206D
:100800008DF814000020ADF80800ADF80A00ADF82E
:100810000C00ADF80E00ADF8100001208DF81500A9
:1008200002A8FFF7F1FD012202210C48FFF700FFAB
:1008300014208DF8040002208DF8050003208DF8A7
:10084000060001208DF8070001A801F001F9002041
:100850000AB0BDE8F0810000000C014000640040D7
:1008600010B500F5D87303EB01131B6803F0040304
:100870001372137A53B900F5D87303EB01131B6895
:1008800040F2FF7404EA5353136009E000F5D87393
:1008900003EB01131B686FF0604404EAD303536059
:1008A00000F5D87303EB01131B6803F002035372C6
:1008B00000F5D87303EB01135B6803F00F03937229
:1008C00000F5D87303EB01135B681B0AD37400F5C2
:1008D000D87303EB01139B68D37200F5D87303EB55
:1008E00001139B681C0A147300F5D87303EB011302
:1008F0009B681C0C547300F5D87303EB01139B68C1
:100900001B0E937300F5D87303EB0113DB68D373ED
:1009100000F5D87303EB0113DB681C0A147400F5AF
:10092000D87303EB0113DB681C0C547400F5D87307
:1009300003EB0113DB681B0E937421B9C36843F00A
:100940002003C36003E0036943F02003036110BD8B
:1009500010B502460020936803F08063B3F1806F06
:1009600000D110E0936803F00063B3F1006F01D190
:10097000012008E0936803F08053B3F1805F01D158
:10098000022000E00420042874D002F5C07303EBB9
:1009900000131B6803F0010402F5C07303EB00139E
:1009A0001C600B7A7BB94B7A0C8843EA445302F5FE
:1009B000C07404EB00142468234302F5C07404EBF4
:1009C0000014236010E00B7A4C6843EAC4034C7AAD
:1009D000234302F5C07404EB00142468234302F59A
:1009E000C07404EB001423608B7A03F00F038B7246
:1009F00002F5C07303EB00135B6823F00F0402F5EC
:100A0000C07303EB00135C6002F5C07303EB0013CB
:100A10005B688C7A234302F5C07404EB00146360B6
:100A20008B7B1C064B7B44EA03440B7B44EA032389
:100A3000CC7A234302F5C07404EB0014A3608B7CD2
:100A40001C064B7C44EA03440B7C44EA0323CC7B26
:100A5000234302F5C07404EB0014E36002F5C07395
:100A600003EB00131B6843F0010402F5C07303EBB2
:100A700000131C6010BD000010B50246002321B118
:100A8000012907D002290FD109E090681D4C00EA26
:100A900004030BE090681C4C00EA040306E0906835
:100AA0001A4C00EA040301E0002300BF00BF184C09
:100AB000181BA34216D007DC83B16FF08060184486
:100AC00070B1022818D111E0B0F5007F10D0114CA0
:100AD000204448B1B0F5003F0ED10BE002230DE0F9
:100AE00000230BE0002309E0002307E0012305E0D9
:100AF000012303E0012301E0002300BF00BFD8B2BF
:100B000010BD0000030000040003000800000310F3
:100B1000000100080001FFF72DE9F04186B007460B
:100B20000D4690460024CDF8088004208DF80C0076
:100B300000208DF80D008DF80E5000BF05E0395DE6
:100B40000DF10F000155601C84B2AC42F7DB01A926
:100B50000D48FFF7FDFE0646002401E0601C84B24C
:100B600031460948FFF788FF18B940F6FF70844204
:100B7000F4DB40F6FF70844203DB012006B0BDE8E1
:100B8000F0810020FAE700000064004002460020E7
:100B900002EA01030BB1012000E0002070470000D1
:100BA0002DE9FC4105460E4690461C46089F002054
:100BB00000900190A807000E1149087008460078BF
:100BC00040EA061008700846007840EA880008707D
:100BD000084600788DF80000200A8DF80100E0B288
:100BE0008DF80200380A8DF80300F8B28DF8040081
:100BF000044A08216846FFF78FFFBDE8FC8100002A
:100C000098060020F3E7F8102DE9F047022000F0E5
:100C100083F8002843D0022000F060F821490888BA
:100C200002F0C6FD06464FF066321F4B02F010FE82
:100C3000044600221D4B02F0B3FB804602F0CAFAC4
:100C40001B4908601749498801EB81018800C117D9
:100C500000EB11510913174A11801046008800EB70
:100C6000C00101EB001047F2305101EB800011464A
:100C700008800C498988642201FB02F0C11700EB4F
:100C8000115109130C4A11800649C988642201FBDD
:100C900002F0C11700EB11510913084A1180BDE899
:100CA000F08700003000002066660A400000B04077
:100CB000380000203C0000203E00002040000020C2
:100CC00000F0805111B10349086001E00249486019
:100CD00070470000040402400000024000F0805110
:100CE00011B10349086001E0024948607047000003
:100CF000040402400000024021B1026842F00102F7
:100D0000026004E002684FF6FE731A40026070470A
:100D10000146486880B2704701460020002201F079
:100D2000805313B1054B1A6801E0054B1A6802EABB
:100D300001030BB1012000E00020704700040240D5
:100D40000000024010B50022026847F6F0739A4393
:100D50000C6A8B6823430C6923434C6923438C69D9
:100D60002343CC6923434C6A23438C6A23431A43AD
:100D70000260CB6843600B6883604B68C36010BD42
:100D80004160704770B502460C46FF25FF2309E01D
:100D900012F8010B80EA05010648405C80EA030571
:100DA0000548435C2000A4F10106B4B2F0D143EA47
:100DB000052070BD420000204201002010B592B015
:100DC00004460121102000F0A7FE0121022000F0BE
:100DD00083FE0121C80400F08FFE4FF48060ADF85F
:100DE000440003208DF8460018208DF8470011A913
:100DF000314800F0F6F84FF40060ADF844000420EC
:100E00008DF8470011A92C4800F0EBF80D94002054
:100E1000ADF83800ADF83A00ADF83C00ADF8400050
:100E20000C20ADF83E000DA9244801F0EFFD012192
:100E3000224801F079FD01224021204801F080FD87
:100E400034208DF8040003208DF8050001208DF872
:100E500006008DF8070001A800F0FAFD10211748E0
:100E600001F04AFD012240F22441144801F0A8FD9E
:100E7000134803901148001D029000200490322076
:100E8000059000200690802007900020089009908F
:100E900020200A9000020B9000200C9002A9094823
:100EA000FFF750FF0848FFF70BFF01210548FFF748
:100EB00023FF12B010BD000000100140004C0040A4
:100EC00042020020300402400002001070B50446C7
:100ED0000D460BE000BF4021074801F03AFD002815
:100EE000F9D02178044801F002FE641C2800A5F125
:100EF0000101CDB2EED170BD004C00402DE9FF479D
:100F0000044633A30FCB8DE80F00002C0BDA601CD6
:100F10006FF0004144182046E11704EB1121091637
:100F20008031CEB207E00CB9012404E02046E1177D
:100F300004EB11210E0E2146E21704EB12421014AD
:100F4000C21700EB12621212A0EB0222D7B2E21714
:100F500004EB12621012C21700EB12621212A0EB25
:100F6000022202F0FF082046E11704EB116109128A
:100F7000A4EB012101F0FF098DF807808DF808909E
:100F80008DF809608DF80A700B216846FFF7FAFEAC
:100F900005462946EA1705EB12621012C21700EB4C
:100FA00012621212A0EB0222D2B28DF80B20284658
:100FB000E91705EB11610912A5EB0121C9B28DF802
:100FC0000C100D216846FFF781FFBDE8FF87000088
:100FD00001100016000204000000000000000000E4
:100FE00070472DE9F041024600250026002000232D
:100FF0000024002791F803C00CF00F0591F803C0FE
:101000000CF0100CBCF1000F03D091F802C04CEAB8
:10101000050591F800C0BCF1000F31D01468002024
:101020002BE04FF0010C0CFA00F3B1F800C00CEA11
:1010300003069E4220D183004FF00F0C0CFA03F7F9
:10104000BC4305FA03FC4CEA040491F803C0BCF16C
:10105000280F06D14FF0010C0CFA00FCC2F814C0A6
:101060000AE091F803C0BCF1480F05D14FF0010C24
:101070000CFA00FCC2F810C0401C0828D1D3146040
:10108000B1F800C0BCF1FF0F34DD546800202EE041
:1010900000F1080C4FF0010808FA0CF3B1F800C099
:1010A0000CEA03069E4221D183004FF00F0C0CFA8C
:1010B00003F7BC4305FA03FC4CEA040491F803C0AF
:1010C000BCF1280F05D100F1080C08FA0CF8C2F8A1
:1010D000148091F803C0BCF1480F07D100F1080C4F
:1010E0004FF0010808FA0CF8C2F81080401C0828DC
:1010F000CED35460BDE8F081F0B50A460023002449
:101100000021002500F00046B6F1004F02D11D4E2F
:10111000F16901E01B4E7168C0F3034583B200F42E
:101120004016B6F5401F08D121F07061154E766863
:1011300026F07066134F7E6012E000F48016B6F55C
:10114000801F06D1032606FA05F4A14341F0706121
:1011500006E0460D360103FA06F6B14341F0706130
:1011600022B1460D360103FA06F6314300F000467F
:10117000B6F1004F02D1034EF16101E0014E716002
:10118000F0BD000000000140016170470A78027064
:101190004A7842704278032A0BD18A7882700A79A1
:1011A000CB7842EA032282808A794B7942EA032291
:1011B000C280704770B504460D462878697840EAC9
:1011C0000120C0F30A0020802088A0F5806000B2D2
:1011D00020806878C010A97840EA4110C0F30A0066
:1011E00060806088A0F5806000B26080A87880117F
:1011F000E97840EA8100297940EA8120C0F30A00B9
:10120000A080A088A0F5806000B2A080287940105E
:10121000697940EAC110C0F30A00E080E088A0F5D7
:10122000806000B2E080B4F90000052806DCB4F963
:10123000000010F1050F01DB00202080B4F902004E
:10124000052806DCB4F9020010F1050F01DB0020CF
:101250006080B4F90400052806DCB4F9040010F13C
:10126000050F01DB0020A080B4F90600052806DC8C
:10127000B4F9060010F1050F01DB0020E080687969
:101280000011800820726879C0F301106072207A22
:10129000012806D0022805D0032806D10120A0721B
:1012A00004E000BF0020A07200E000BF00BFB4F95E
:1012B0000030002B01DB1E4600E05E42B6F5257FC4
:1012C0001DDCB4F90220002A01DB164600E056427C
:1012D000B6F5257F13DCB4F90410002901DB0E46B6
:1012E00000E04E42B6F5257F09DCB4F9060000287F
:1012F00001DB064600E04642B6F5257F04DD1521F8
:101300002046FEF7A7FF70BDA879E97940EA0120E1
:1013100000B2A4F80B00287A697A40EA012001B2F1
:1013200004F10B00A4F80D10A87AE97A40EA012034
:1013300001B204F10B00A4F80F10297B6174697BE2
:10134000A174A87BE97B40EA0120A4F8130000BF48
:10135000D9E700002DE9FC4705460C461646052E48
:1013600001DABDE8FC87207866287CD16078CC283B
:10137000FBD194F8029094F803A00AF10201A01C9A
:1013800001F0D2FE0AF10401615C884200D0E8E776
:10139000B9F1010F49D10B2E47DB4B48D0E90010C2
:1013A0004A4AC2E9001020792870A179627941EA9D
:1013B0000221A1F5EA40303802F0E3F90022444B63
:1013C000CDE9000101F0ECFF074601F003FF686082
:1013D000217AE27941EA022002F0F0FDA8603D495D
:1013E000A86802F03FFFA8603B49A86802F032FEFF
:1013F00080463A4902F0E4FC0746394902F02AFEE9
:10140000A8603849A86802F0F1FE02D23548A86009
:1014100006E03549A86802F0E9FD01D23248A8602B
:10142000607A2873A07A68734AE0B9F1050F42D157
:101430000B2E40DB6279217902EB0121A1F5EA4014
:10144000303802F09EF907460022214B01F0A8FF38
:10145000CDE9000101F0BEFE24490860E279A179DE
:1014600002EB012100E02DE0A1F5EA40303802F066
:1014700088F907460022164B01F092FFCDE90001E2
:1014800001F0A8FE19494860627A217A02EB012135
:10149000A1F5EA40303802F074F9074600220C4BFF
:1014A00001F07EFFCDE9000101F094FE0F49886054
:1014B00001F0A4FD04E0B9F1060F01D101F09EFD99
:1014C0000020A07000BF4CE77006002080060020BE
:1014D000000059400060EA460000254400C09944DD
:1014E0000000824200942747009427C79C090020EF
:1014F00070B505460C46207DE17C40EA01261321AB
:10150000204600F061FCB0424DD12078092828D156
:101510002079E17840EA01202880A079617940EAC9
:1015200001206880207AE17940EA0120A880A07A31
:10153000617A40EA0120E880207BE17A40EA0120DC
:101540002881A07B617B40EA01206881207CE17BCF
:1015500040EA0120A881A07C617C40EA0120E8816A
:1015600026E02078072823D12079E17840EA01207D
:101570002882A079617940EA01206882207AE179A5
:1015800040EA0120A882A07A617A40EA0120E8823C
:10159000207BE17A40EA01202883A07B617B40EA3E
:1015A0000120688304E01E212846FEF753FE70BD2B
:1015B00000BFFCE770B504460D46287820706878B7
:1015C000A97840EA01206080E8782071287969795B
:1015D00040EA012000B2E0802078022803D1E088B0
:1015E000404200B2E080B4F90600052190FBF1F022
:1015F00000B2E080B4F9060002F0E0FC06460648BE
:101600000168304602F026FDA060A87928382073D2
:10161000E8792838607370BD8C0600200A784B7812
:1016200042EA0322C2818A78CB7842EA032202820C
:101630000A794B7942EA032242828A79CB7942EADB
:1016400003228282704700BFFEE700002DE9F04FC1
:1016500087B080468A469346DDE91045002213464E
:10166000464903C901F0F4FF05D1444830C00020C9
:1016700007B0BDE8F08F41480CC82046294602F06B
:101680001BFACDE9040101F0A5FD814659465046FB
:1016900002F0E8FD0646304602F0F8FA21F000417B
:1016A000374A384BCDE9040102F096F800D2002603
:1016B00035480660354807603548C0F80090484610
:1016C00002F0E4FA4FF03332324BCDE9040102F07C
:1016D000BDF901D3129858B1002700202E490860A7
:1016E0002E4908602E490860244830C03846BFE7BC
:1016F0002B4801684FF0804002F0ACFC314601906D
:1017000002F0A5FD029025480168029802F0EAFA6D
:101710000390D8F8081002F09DFC4946049002F0AE
:101720004FFB06903146D8F8040002F093FC049079
:101730001B480168304602F095FD0190D8F8001072
:1017400002F088FC029014480168029802F0CAFA7C
:101750000390049902F0C6FA0590069902F0C2FAC5
:1017600007460D4807600E4800680C4908600C48A1
:101770000660024830C038467AE70000C8060020FC
:101780009A9999999999B93FA0060020A40600203A
:10179000A80600203333D33FBC060020C406002037
:1017A000C006002010B592B004460121042000F0CC
:1017B000B3F90121084600F0AFF90121480400F017
:1017C0009BF90121084600F087F90420ADF8440098
:1017D00003208DF8460018208DF8470011A93148E4
:1017E000FFF7FFFB0820ADF8440004208DF8470008
:1017F00011A92C48FFF7F5FB0D940020ADF8380037
:10180000ADF83A00ADF83C00ADF840000C20ADF862
:101810003E000DA9244801F0F9F80121224801F009
:1018200083F801224021204801F08AF826208DF813
:10183000040001208DF805008DF806008DF80700E2
:1018400001A800F005F91021174801F055F8012210
:1018500040F22441144801F0B3F8144803901248B0
:10186000001D029000200490322005900020069078
:101870008020079000200890099020200A90000204
:101880000B9000200C9002A90948FFF75BFA4FF477
:101890000010FFF715FA01210548FFF72DFA12B0E5
:1018A00010BD0000000801400044004080090020F5
:1018B0006C0002402DE9FF4704460D4616461F46C0
:1018C000DDF830804FF009092C4B0FCB8DE80F006D
:1018D00047F230516018C11700EB1161090A8DF809
:1018E000041047F230516018C11700EB1161091262
:1018F000A0EB0121C9B28DF8051047F230516818EC
:10190000C11700EB1161090A8DF8061047F230513A
:101910006818C11700EB11610912A0EB0121C9B2CF
:101920008DF8071006EB860047F2305101EB4000BE
:10193000000A8DF8080006EB8600302101EB40001C
:10194000C0B28DF8090047F230503844000A8DF8D3
:101950000A0030203844C0B28DF80B008DF80C809E
:101960000B210DF1020001F0DFFB8DF80D000E21BF
:10197000684600F005F8BDE8FF8700005C430008FA
:1019800070B504460D460BE000BF4021074800F04B
:10199000E0FF0028F9D02178044801F0A8F8641C81
:1019A0002800A5F10101CDB2EED170BD0044004088
:1019B0002DE9FC4706460F4690461C46DDE90AA97C
:1019C000002000900190B007050E45EA0710C5B24F
:1019D00045EA8800C5B28DF800500A4804708DF8B9
:1019E00001404FEA19208DF8050009F0FF008DF83D
:1019F0000600054A08216846FFF78EF8034908707B
:101A0000BDE8FC8799060020F3E8F8109A0600204C
:101A100008B50121042000F07FF84FF40060ADF814
:101A2000000010208DF8030003208DF802006946A5
:101A30000448FFF7D6FA4FF400610248FFF7A4FB11
:101A400008BD00000008014000BFFEE7704700002D
:101A500070B5002100230F22C47804B3154C24680C
:101A600004F4E064C4F5E064210AC1F10403CA404F
:101A7000447804FA03F184781440214309010E4CA0
:101A80000678A155047804F01F050124AC400578C0
:101A90006D11AD0005F1E025C5F8004109E00478BD
:101AA00004F01F050124AC40044D0678761145F87A
:101AB000264070BD0CED00E000E400E080E100E0B5
:101AC00002490143024A1160704700000000FA0514
:101AD0000CED00E07047000029B1064A526902434C
:101AE000044B5A6104E0034A52698243014B5A6134
:101AF000704700000010024029B1064AD269024333
:101B0000044BDA6104E0034AD2698243014BDA6193
:101B1000704700000010024029B1064A9269024352
:101B2000044B9A6104E0034A92698243014B9A6133
:101B3000704700000010024030B500210022002450
:101B400000232D4D6D6805F00C0121B1042905D04D
:101B5000082923D105E0294D056022E0274D0560C5
:101B60001FE0254D6D6805F47012234D6D6805F476
:101B70008034022505EB92421CB9214D5543056086
:101B80000BE01D4D6D6805F400351DB11C4D55432E
:101B9000056002E0194D5543056002E0174D0560F0
:101BA00000BF00BF144D6D6805F0F0010909154D27
:101BB0006B5C0568DD4045600F4D6D6805F4E061C4
:101BC000090A104D6B5C4568DD4085600A4D6D6803
:101BD00005F46051C90A0B4D6B5C4568DD40C5607A
:101BE000054D6D6805F44041890B074D6B5CC56878
:101BF000B5FBF3F5056130BD0010024000127A001C
:101C000000093D00180000202800002010B586B013
:101C1000044601213020FFF77FFF01210846FFF72E
:101C20007BFF01210805FFF767FF4FF48050ADF8F7
:101C3000140003208DF8160018208DF8170005A950
:101C40002348FFF7CEF90420ADF814008DF81700F3
:101C500005A92048FFF7C5F901940020ADF8080058
:101C6000ADF80A004FF48060ADF80C000020ADF82C
:101C700010000C20ADF80E0001A9174800F0C6FEB8
:101C80000121154800F050FE35208DF8000001209C
:101C90008DF801008DF802008DF803006846FFF70B
:101CA000D7FE20210C4800F027FE012240F22551EA
:101CB000094800F085FE1021074800F01DFE0122B2
:101CC00040F22441044800F07BFE06B010BD000045
:101CD000001001400014014000500040704710B552
:101CE00000F002F810BD00000CB50020019000903B
:101CF0003348006840F480303149086000BF304804
:101D0000006800F4003000900198401C0190009899
:101D100018B90198B0F5A06FF1D12948006800F416
:101D2000003010B10120009001E0002000900098E8
:101D3000012843D12348006840F010002149086081
:101D40000846006820F0030008600846006840F07C
:101D5000020008601A48406819494860084640680F
:101D600048600846406840F4806048600846406823
:101D700020F47C1048600846406840F4E810486051
:101D80000846006840F08070086000BF0C4800689A
:101D900000F000700028F9D00948406820F00300E6
:101DA000074948600846406840F00200486000BFAC
:101DB0000348406800F00C000828F9D10CBD000071
:101DC000001002400020024070B502460C46FF257C
:101DD000FF2309E012F8010B80EA05010648405C88
:101DE00080EA03050548435C2000A4F10106B4B273
:101DF000F0D143EA052070BDD0060020D0070020B6
:101E000010B592B0044601210820FFF785FE01219C
:101E10000846FFF781FE01218803FFF77DFE0121BF
:101E20008804FFF769FE01210846FFF755FE0121EE
:101E30000420FFF761F94020ADF8440003208DF83D
:101E4000460018208DF8470011A96848FFF7C9F827
:101E50008020ADF8440004208DF8470011A96348A4
:101E6000FFF7BFF84FF48060ADF8440003208DF811
:101E7000460018208DF8470011A95C48FFF7B1F81B
:101E80004FF40060ADF8440004208DF8470011A91C
:101E90005648FFF7A6F80D940020ADF83800ADF8CD
:101EA0003A00ADF83C00ADF840000C20ADF83E0023
:101EB0000DA94F4800F0AAFD01214D4800F034FD66
:101EC000012240214A4800F03BFD0D940020ADF86E
:101ED0003800ADF83A00ADF83C00ADF840000C20F9
:101EE000ADF83E000DA9434800F090FD01214148A6
:101EF00000F01AFD012240213E4800F021FD25207E
:101F00008DF8300001208DF831008DF832008DF809
:101F100033000CA8FFF79CFD1021354800F0ECFCC5
:101F2000012240F22441324800F04AFD27208DF87A
:101F3000300001208DF831008DF832008DF833002B
:101F40000CA8FFF785FD10212A4800F0D5FC0122DE
:101F500040F22441274800F033FD274802902448EE
:101F6000001D019000200390322004900020059075
:101F70008020069000200790089020200990000201
:101F80000A9000200B9001A91C48FEF7DBFE4FF4DD
:101F90000030FEF795FE01211848FEF7ADFE184807
:101FA00002901448001D01900020039032200490FC
:101FB00000200590802006900020079008902020A7
:101FC000099000020A9000200B9001A90B482838C4
:101FD000FEF7B8FE4FF40070FEF772FE01210748CD
:101FE0002838FEF789FE12B010BD0000000C014039
:101FF0000038014000480040C60900205800024057
:10200000DB09002010B50821014800F003F810BDDD
:10201000D308002070B504460D460BE000BF4021F8
:10202000074800F096FC0028F9D02178044800F019
:102030005EFD641C2800A5F10101CDB2EED170BD9A
:1020400000380140042808D14FF0E021096941F02F
:1020500004014FF0E022116107E04FF0E02109692F
:1020600021F004014FF0E022116170477047000039
:1020700010B51348006840F0010011490860084697
:102080004068104908400E494860084600680E49FB
:1020900008400B4908600846006820F4802008606A
:1020A0000846406820F4FE0048604FF41F00886036
:1020B000FFF715FE4FF000600449086010BD0000F6
:1020C000001002400000FFF8FFFFF6FE08ED00E000
:1020D0002DE9FE4F0020FE490870FE4908800121CD
:1020E000FD4800F0ADFA80B10121FB4800F099FAFB
:1020F000FA480068401CF9490860F94AF94BFA4966
:1021000003C901F099F8F84A03C2F849B1F9061079
:10211000F74AB2F90620881800EBD0714910F54A49
:102120001160F34A9168F14A906801F0DBFD0446C2
:102130004FF0804101F044FEEF490860EF4800682D
:1021400001F01FFB8246EE4AEE4B01F081FB804618
:102150000022ED4B01F024F906460022EB4B01F082
:102160001FF9044601F0B0FAE94908600020E94986
:102170000860E948407A032803D0E748407A0228FB
:1021800075D1E548407A03281AD1E448D6490CC8ED
:1021900003C901F091FC0446D94AE14B01F01CFB54
:1021A00004D2E0484068E049086002E00020DE49CF
:1021B0000860DC49886801F0C5FED049086020E06D
:1021C000D549B1F9060001F0DCFA06460022D74BEA
:1021D00001F03EFB82460022D54B01F0E1F80446B7
:1021E0000022D44B01F034FB804600F0F3FFCE49CF
:1021F0000860C948B0F90000404200EB8010BF49B8
:102200000860C948006801F041FD044600221346F9
:1022100001F01EFA2CD1B848006801F037FD0646DF
:102220004FF03332C44B01F0D7FA01D8012000E05F
:102230000020804601F0A5FA21F00041044600226A
:10224000134601F005FA13D00120A749029003C9F3
:10225000CDE90001A8480268B3480168B748FFF714
:10226000F5F9044601F06EFEAA49086012E04FE05D
:10227000002002909C4803C8CDE900019E480268F6
:10228000A9480168AD48FFF7E1F9044601F05AFE9C
:10229000A04908609F480068FF2803DDFF209D4992
:1022A000086008E09B48006810F1FF0F03DA6FF048
:1022B000FE009849086000219B48006801F096FFE5
:1022C00003D201208249087008E000219648006886
:1022D00001F08CFE02D2FF207D4908707C4890F905
:1022E00000008C4909684843002809DA89490868D0
:1022F000002801DB014600E04142764A11805FE0A0
:102300007348007800285BD1FF207249088057E0AD
:102310008148407A012853D17F48B0F90600C0EBCC
:1023200000204FF4257190FBF1F07A4908607A485B
:10233000B0F90000404200EB8010704908600021B5
:102340006D48006801F052FF09D272480068002809
:1023500005DA7048008840425E4908800DE000219F
:102360006548006801F042FE07D26A48006800280C
:1023700003DD684800885749088000215E480068EE
:1023800001F034FF03D201205149087018E0002108
:102390005948006801F02AFE03D2FF204C4908701A
:1023A0000EE05C480068002803DD01204849087001
:1023B00006E058480068002802DAFF204449087007
:1023C0004648007800F0030050B94C48006818B93E
:1023D0000120FEF793FD03E048480068FEF78EFDFC
:1023E0003E4800680521B0FBF1F201FB120058B92C
:1023F000534A117F484A107A354A92F90030454ACB
:10240000128812B200F0EAFB344800680521B0FBE4
:10241000F1F201FB120001280BD1494A117F3E4A1B
:10242000107A2B4A92F900303A4A128812B200F020
:10243000BDFC2A4800680921B0FBF1F201FB120043
:1024400008B9FFF7DFFD254800680521B0FBF1F270
:1024500001FB1200032839D11E4800884FF6FF7196
:1024600001EA40001B49088008460088FF2802DD79
:10247000FF2008800AE017480088502806DA15482F
:102480000088002802DD502012490880204800689A
:10249000184909680F4CCDE900102378284C227F99
:1024A0001D4C217A607AFFF783FA0A480078104AB7
:1024B0000090B2F906100D4AB2F90600154A1288CA
:1024C00013B2134A128812B2FFF7F4F9034839E045
:1024D000880600208A0600200014004078060020AC
:1024E0007B14AE47E17A843F700600203C0900204F
:1024F00054090020600600206C06002058060020C9
:102500009A999999999928400080504000405040EC
:102510005C06002064060020E408002080060020FD
:102520009999B93F8C090020680600200000F03F0F
:1025300000A08440000004403333D33F9C090020B6
:10254000A8090020007800F0070058B9104800687A
:10255000104B00901A7F104B197A587A0F4B1B685A
:10256000FEF71EFB0E4800680A21B0FBF1F201FBEA
:10257000120050B90B480C490CC803C901F09CFA71
:1025800004460A4A0A4B01F061FABDE8FE8F0000DA
:102590005C060020A8090020E40800206006002056
:1025A0007806002080060020700600209A999999EC
:1025B0009999B93F1FB501212020FFF79DFA42F2FA
:1025C0000F70ADF808004720ADF804000020ADF80A
:1025D0000A00ADF8060001A90F4800F04BF80121F0
:1025E0000D4800F01BF8012211460B4800F039F8A5
:1025F00037208DF8000002208DF801008DF80200D0
:1026000001208DF803006846FFF722FA01210248F5
:1026100000F00AF81FBD000000140040CA43028207
:102620007047CA430282704721B1028842F001021A
:10263000028004E002884FF6FE731A400280704761
:1026400030B50246002000230024158A05EA010364
:10265000958905EA010413B10CB1012000E00020C6
:1026600030BD1AB183890B43838102E083898B4398
:1026700083817047002202881D4B98420ED01D4B6B
:1026800098420BD0B0F1804F08D01B4B984205D038
:102690001A4B984202D01A4B984204D14FF68F73CE
:1026A0001A404B881A43174B984207D0164B984252
:1026B00004D04FF6FF431A40CB881A4302808B8820
:1026C00083850B8803850A4B98420BD0094B9842AF
:1026D00008D00E4B984205D00D4B984202D00D4BBE
:1026E000984201D10B7A0386012383827047000050
:1026F000002C01400034014000040040000800406C
:10270000000C004000100040001400400040014058
:10271000004401400048014010B540F224410D48FA
:1027200000F024F9A0B10B4800880A48001D008879
:1027300009480078012803D107490848FEF726FD1B
:1027400032210748FEF71CFB01210548FEF7D4FAA9
:1027500010BD0000004C0040420200204A02002050
:102760003004024010B540F22551154800F0FEF843
:1027700080B140F22551124800F0C7F8104800F02F
:10278000B1F91049104A127888540F480078401C5B
:102790000D49087040F22441094800F0E7F870B193
:1027A000074800880648808807480078122803D127
:1027B00004490648FEF7FEFC00200349087010BDDE
:1027C00000500040F90800202C000020E408002000
:1027D00010B540F22441134800F0C8F800B3114886
:1027E00000881048001D008800210F48FEF784FA79
:1027F0000D48FEF78DFAC0F13200152803D10B49C0
:102800000B48FEF775FE0848FEF782FA0949087082
:1028100032210548FEF7B4FA01210348FEF76CFAAD
:1028200010BD00000038014058000240C6090020D9
:10283000A8090020D008002010B540F2244110481B
:1028400000F094F8D0B10E4800880D48001D0088B3
:1028500000210C48FEF750FA0A48FEF759FAC0F179
:102860003204224608490948FEF774FD3221054822
:10287000FEF786FA01210348FEF73EFA10BD00007C
:10288000004400406C000240800900208C090020B8
:1028900010B540F22441134800F068F800B3114825
:1028A00000881048001D008800210F48FEF724FA18
:1028B0000D48FEF72DFAC0F13200152803D10B495F
:1028C0000B48FEF715FE0848FEF722FA0949087082
:1028D00032210548FEF754FA01210348FEF70CFAAD
:1028E00010BD00000048004030000240DB0900201D
:1028F000A8090020D108002001F40072B2F5007F81
:1029000000D100BFCA430280704710B500220023E7
:1029100040F66A14A14200D100BF0A12012494407B
:10292000A3B2DC43048010BD21B1828942F400527D
:10293000828104E082894DF6FF731A4082817047DC
:102940001AB1838A0B43838202E0838A8B4383829A
:10295000704702460020B1F5007F00D100BF138808
:102960000B400BB1012000E00020704770B502461B
:10297000002400230025002040F66A16B14200D151
:1029800000BFC1F3421501F01F03012606FA03F34D
:10299000012D02D19689334006E0022D02D1168A1C
:1029A000334001E0968A33400C12012606FA04F403
:1029B0001688344013B10CB1012000E0002070BD36
:1029C000F0B50346002400260025002040F66A17D3
:1029D000B94200D100BF1846C1F3421401F01F06EE
:1029E000012707FA06F5012C01D10C3004E0022C76
:1029F00001D1103000E014301AB107682F4307608E
:102A000002E00768AF430760F0BD00002DE9F04722
:102A100086B005460E460024A24600BFA146002708
:102A2000B08900B100BF2F462C8A4CF6FF700440DD
:102A3000F08804432C82AC894EF6F3100440B08831
:102A400031890843718908430443AC81AC8A4FF64D
:102A5000FF400440B0890443AC8201A8FFF76CF842
:102A60001F48874202D1DDF810A001E0DDF80CA07C
:102A7000A88900F4004040B10AEBCA0000EB0A103C
:102A800031684900B0FBF1F807E00AEBCA0000EB3F
:102A90000A1031688900B0FBF1F86420B8FBF0F04F
:102AA00004012009642101FB1089A88900F4004079
:102AB00040B1322000EBC900B0FBF1F000F007009C
:102AC000044308E0322000EB09106421B0FBF1F070
:102AD00000F00F0004432C8106B0BDE8F087000031
:102AE0000038014001468888C0F308007047C1F3F0
:102AF000080282807047000010B502212E48FDF7C1
:102B000007FD40B102212C48FDF72AFC2B4A002189
:102B10002948FDF7A5FE2948294A4168881A9142AB
:102B20001BD00BDC2748084478B30D2827D0B0F51C
:102B3000807F38D0A0F20D1040BB2EE00D2806D0CB
:102B4000B0F5807F15D0A0F20D10F8B90BE01B494D
:102B50000B311D48FEF72EFD2CE018490B311A48A9
:102B6000FEF75CFD26E015490B311848FEF722FD03
:102B700020E012490B311548FEF750FD1AE00F49CD
:102B80000B311348FEF716FD14E000E011E00B498D
:102B90000B310F48FEF742FD0CE008490B310D48A0
:102BA000FEF708FD06E005490B310A48FEF736FD41
:102BB00000E000BF00BF10BD006400406C090020B1
:102BC0008D15F81073EC07EF0C0900202409002084
:102BD0003C0900205409002000BFFEE72DE9F04F1A
:102BE0008BB00646894614461D46002009900A907F
:102BF000834682460890B4F5807F01DD4FF48074EF
:102C000014F5807F01DA6FF0FF04624805706248B6
:102C1000048005FB04F0002800DB7DBB204600F0AB
:102C2000B0FD21F00041074600F07EFDC0B20890E3
:102C3000089800F0BDFD074688465848008800F017
:102C4000B7FD0022564BCDE9000100F001FE3A46E7
:102C50004346CDE9020100F0FBFD0022514BCDE9D6
:102C6000040100F09DFBCDE9060100F05DFD1FFAB7
:102C700080FBCBF100000FFA80FA0024032E6AD10A
:102C8000B9F1000F50D1002C15DD03208DF8240080
:102C9000E0B28DF82500200A8DF8260020208DF85E
:102CA000270000208DF828008DF829008DF82A00D3
:102CB0008DF82B0065E0002C17DA02208DF8240037
:102CC0006042C0B28DF825006042000A8DF82600EF
:102CD00020208DF8270000208DF828008DF829008D
:102CE0008DF82A008DF82B004BE0012D03D1032035
:102CF0008DF8240002E002208DF8240000208DF8D9
:102D000025008DF8260060208DF8270000208DF822
:102D100028008DF829000AF0FF008DF82A004FEAFC
:102D20001A208DF82B002CE003208DF824000020C1
:102D30008DF825008DF8260060208DF827000020F2
:102D40008DF828008DF8290010208DF82A00FF202A
:102D50008DF82B0015E003208DF8240000208DF85D
:102D600025008DF8260060208DF8270000208DF8C2
:102D700028008DF8290010208DF82A00FF208DF8FA
:102D80002B00094A082109A8FDF7C6FE0BB0BDE8D3
:102D9000F08F00009006002092060020940600208C
:102DA0000000F03F00E06F40F3E3F8102DE9F04F32
:102DB0008BB00646894614461D46002009900A90AD
:102DC000834682460890B4F5807F01DD4FF480741D
:102DD00014F5807F01DA6FF0FF0405FB04F0002892
:102DE00000DB7DBB204600F0CCFC21F00041074613
:102DF00000F09AFCC0B20890089800F0D9FC074691
:102E000088465648008800F0D3FC0022544BCDE998
:102E1000000100F01DFD3A464346CDE9020100F0F5
:102E200017FD00224F4BCDE9040100F0B9FACDE9BE
:102E3000060100F079FC1FFA80FBCBF100000FFACD
:102E400080FA0024032E6AD1B9F1000F50D1002C72
:102E500015DD03208DF82400E0B28DF82500200A4E
:102E60008DF8260028208DF8270000208DF82800F6
:102E70008DF829008DF82A008DF82B0065E0002CD4
:102E800017DA02208DF824006042C0B28DF82500C8
:102E90006042000A8DF8260028208DF827000020C7
:102EA0008DF828008DF829008DF82A008DF82B0068
:102EB0004BE0012D03D103208DF8240002E0022015
:102EC0008DF8240000208DF825008DF8260068205C
:102ED0008DF8270000208DF828008DF829000AF0D1
:102EE000FF008DF82A004FEA1A208DF82B002CE005
:102EF00003208DF8240000208DF825008DF8260091
:102F000068208DF8270000208DF828008DF8290012
:102F100010208DF82A00FF208DF82B0015E00320EB
:102F20008DF8240000208DF825008DF826006820FB
:102F30008DF8270000208DF828008DF8290010203A
:102F40008DF82A00FF208DF82B00074A082109A8D8
:102F5000FDF7E2FD0BB0BDE8F08F00009606002003
:102F60000000F03F00E06F40F3E4F81010B56FF0A0
:102F70000400FFF767F80A4800680A49B0FBF1F05F
:102F8000094908700846007800EB4001C1EBC01009
:102F90004FF6FF7101EAC0000449088010BD00002F
:102FA0000000002000127A0014000020160000200B
:102FB0000146114A12884A434FF0E0235A61002229
:102FC0009A611A46126942F001021A6100BF4FF07D
:102FD000E022106900F001021AB100F48032002AE8
:102FE000F5D04FF0E022126922F001024FF0E02309
:102FF0001A6100229A61704716000020FEB5464A09
:1030000007CA8DE8070045490868454901F022F8DC
:103010000646444900F066FE054600F0AFFF84B264
:10302000E01704EB1060000A8DF804003B490868C3
:103030003B4901F00FF806463A4900F053FE0546B9
:1030400000F09CFF84B2E01704EB10600012A4EBC8
:103050000020C0B28DF8050030494868304900F0C2
:10306000F9FF06462F4900F03DFE054600F086FFB9
:1030700084B2E01704EB1060000A8DF806002749BF
:103080004868274900F0E6FF0646264900F02AFE78
:10309000054600F073FF84B2E01704EB10600012E5
:1030A000A4EB0020C0B28DF807001C4988681C49B9
:1030B00000F0D0FF06461B4900F014FE054600F064
:1030C0005DFF84B2E01704EB1060000A8DF8080081
:1030D00012498868124900F0BDFF0646114900F008
:1030E00001FE054600F04AFF84B2E01704EB1060D1
:1030F0000012A4EB0020C0B28DF809009DF8030077
:10310000811C0DF1020000F00FF88DF80A000B2170
:103110006846FEF735FCFEBD504300089C090020C0
:103120000000C8420060EA4610B502460B46002186
:10313000002003E0545C0444E0B2491C9942F9DBEE
:1031400010BD8360426001607047000008B54FF415
:10315000A060FEF7B5FC00200423082207210090A0
:10316000FDF7FAFAFFF702FF4FF07E53144A1549B4
:103170001548FFF7E6FFFEF74BFC1448FEF746FD47
:103180004FF4E130FEF70EFB4FF49640FDF716FECC
:103190004FF4E130FEF734FEFFF70CFA1E20FFF784
:1031A00007FF0BE00A48006808B9012000E0002092
:1031B000074908604FF4FA70FFF7FAFEF2E70000E3
:1031C0009A99993E000048429C090020A08601007F
:1031D000AC01214221F00042A2F16052B2F5801F01
:1031E00001F0004328BFD2F17F6C0BD95FEA001CCD
:1031F00043EAC20242EB507018BF704728BF20F06C
:1032000001007047B2F5801FBCBF184670474FEAF7
:10321000410C1CF5001F02D2084600F0E2BF70B559
:1032200000F0C0FB00000089FFF7F6BF4FF0004040
:10323000A0F580007047000010B591EA030F48BF69
:1032400083F0004300F14084841A71EB030C05D233
:10325000121943EB0C03001B61EB0C01DFF824E1B6
:103260004FEA1154A4EB135C1EEA430F18BF9EEA09
:10327000445F73D023EA0E03DCF1200E21EA0451EF
:1032800043F4801332D322FA0CFE10EB0E0023FA23
:103290000CFE41EB0E01CCF1200E03FA0EFE10EBFA
:1032A0000E0051F10001B1F5801FCCF1200E32D299
:1032B00001EB045112FA0EF2BDE8104058BF7047FE
:1032C000401C38BF5FEA420218BF7047002814BF95
:1032D00020F0010041F100014FEA410313F5001F06
:1032E00038BF7047A1F1C04100F0AABB012A43EBEF
:1032F0000302ACF1200CDCF11F0E32BF4FF0000EC8
:1033000023FA0CF310EB030041EB0451B4EB115F13
:10331000D0D0A1EB045101F5801149085FEA3000DB
:1033200001EB04510ED350F1000038BF12FA0EFE2B
:1033300008D1BDE81040C9E7401C38BF5FEA42022F
:10334000CAD1C3E7BDE810404FEA410313F5001F9F
:1033500038BF7047A1F1C04100F072BB9EEA445FE4
:1033600008D011EA5E0FBDE8104004BF01F0004133
:1033700000207047BDE8104070B500F013FB00BF9F
:1033800064FBBE3E0000E0FF491058BFC1F1404160
:103390005B1058BFC3F140438B42EFF3008070478E
:1033A0002DE9C04130B4DFF8A0C23CEA111418BFC7
:1033B0003CEA131400F0EC8081EA03051CEA1114C6
:1033C00044EAD57418BF1CEA131500F0C780A4EBBB
:1033D00005044FF0004545EAC12145EAC32341EA0F
:1033E000505143EA525304F17F74994204F500347A
:1033F0004FEAC0204FEAC22208BF904200F09C80F2
:103400004FEA13650FF24016765D4FEA134506FB4F
:1034100005F7C7F1807706FB07F74FEAD737A7FB19
:1034200003687642C8F58038A7FB06CE38BFA8F1FE
:10343000010807FB08E64FF0000EA6FB028CE6FB36
:1034400003CEDCF1000CCEF1004E38BFAEF1010E20
:10345000A6FB0C584FF000074FF00005E6FB0E8767
:10346000A1FB08C6A0FB07CE16EB0E0645F1000532
:10347000E1FB076515F1E04E7EBFA4F580345FEAFD
:1034800046066D4116F1800745F100054FEA172702
:103490004FEA066647EA0567A6F1DE46B6F1805FA9
:1034A0004FEA15251FD9384624F0010C05EBC471ED
:1034B000BCF1FE6F01EB0C1102D8F0BCBDE800813D
:1034C00024425CBF01F5801E9EEAC47F02D4F0BC9A
:1034D000BDE80081244238D4F0BCA1F1C041BDE870
:1034E000004100F0ADBA4FEAD22242EA43524FEA1D
:1034F000D323A7FB02864FEAD02040EA415007FBC6
:1035000003661EEA0E0F4FEAD12105FB026658BF83
:10351000A6EB0056B6EB00564FEA520E4EEAC37EBB
:1035200018EB0E0E56EB530EBDD518EB02085E419C
:103530007F1C55F10005B6E74FF480154FF00007EA
:103540004FF000064FF00008ADE7F0BC4FF0000070
:1035500001F1C04101F00041BDE8008111EA0C1FFA
:103560000CEA131500D00CE013EA0C1F00F02580C4
:103570004FF00000F0BC81EA030101F00041BDE81A
:103580000081F0BCBDE8004181EA030100F058BAB7
:10359000F0BCBDE8004170B500F004FA097EFC3EC5
:1035A00000F007B881EA03014FF0000001F000418C
:1035B000704781EA030100F043BAF0BCBDE8004166
:1035C0004FF0000021497047FFFDFBF9F7F5F4F2D9
:1035D000F0EEEDEBE9E8E6E4E3E1E0DEDDDBDAD8AE
:1035E000D7D5D4D3D1D0CFCDCCCBCAC8C7C6C5C40C
:1035F000C2C1C0BFBEBDBCBBBAB9B8B7B6B5B4B323
:10360000B2B1B0AFAEADACABAAA9A8A8A7A6A5A40D
:10361000A3A3A2A1A09F9F9E9D9C9C9B9A999998D1
:103620009797969595949393929191908F8F8E8E74
:103630008D8C8C8B8B8A8989888887878685858401
:1036400084838382828181800000FF070000F87FED
:1036500051EA030C17D41CF5801F58BFBCF5801F1E
:1036600000F10680994218BF704708BF904270472A
:1036700007D711F5801F58BF13F5801F19D4994241
:103680007047894270471CF5801F08D5BCF5801F24
:10369000F7D58B4218BF704708BF824270474FF47E
:1036A000001C1CEB410F38BF1CEB430F01D28B42B7
:1036B000704770B500F076F9922449004FF0005140
:1036C0004FF08053FFF760BE4FEA41034FEA535378
:1036D000A3F58063D3F11E03C8BFD3F1210C0CDD29
:1036E0004FF0004242EAC12242EA505232FA03FC51
:1036F0008CEAE17CACEBE1707047102BC4BF00207A
:10370000704703F5787CBCF1FF3F04D06FF00042B6
:1037100082EA2100704770B500F044F94992248094
:1037200000207047F2E700004FEA1153A3F58063D1
:10373000D3F11E03A8BFD3F1200C08DB4FF00042E9
:1037400042EAC12252EA505232FA03F0704709426B
:103750000BD4102BC4BF0020704703F5787CBCF15C
:10376000FF3F05D04FF0FF3070474FF0000070472B
:1037700070B500F017F900BF49922480002070470F
:10378000F0E710F0004248BF4042B0FA80F310FA70
:1037900003F10AD0C3F11D0303F580634FEA4150E2
:1037A00002EB035202EBD12170474FF0000070474B
:1037B000B0FA80F310FA03F10AD0C3F11D0303F548
:1037C00080634FEA41504FEA035202EBD121704728
:1037D0004FF000007047000051EA030C17D41CF5AD
:1037E000801F58BFBCF5801F00F10680994218BFAA
:1037F000704708BF9042704707D711F5801F58BF28
:1038000013F5801F19D499427047894270471CF5FF
:10381000801F08D5BCF5801FF7D58B4218BF7047B5
:1038200008BF824270474FF4001C1CEB410F38BFA9
:103830001CEB430F01D28B42704770B500F0B2F819
:10384000922449004FF000514FF08053FFF79CBD88
:10385000DFF848C170B51CEA111E1EBF1CEA131523
:103860009EEA0C0F95EA0C0F00F06F8081EA0304CA
:1038700023EA4C134EEAD47E21EA4C1141F4801124
:1038800043F48013AE44A1FB024CA0FB0365AEF1F0
:103890007F7E361955EB0C05A1FB034C4CF1000360
:1038A000A0FB021C16EB0C06654153F10003094214
:1038B00018BF46F0010613F4007F0BD14FEA033125
:1038C0004FEA0530340341EA155140EA16506FF0D3
:1038D00003020AE04FEAC3214FEAC520F40241EA9D
:1038E000555140EA56506FF0020202EB2E4201EBB6
:1038F000025585EACE710AD05FEA440C18BF24F065
:10390000004450F1000041F1000120EAD47040F27F
:10391000FE7C624500D270BDA84214BF4FF08044C7
:103920004FF04044002E08BF0024BEF1806FA8BFB6
:10393000A1F1C041BDE8704080F282804FF00000EC
:1039400001F1C04101F0004170479EEA0C0F0CEA02
:10395000131518BF95EA0C0F06D04FF0000081EA4E
:10396000030E0EF0004170BD00F01CF88900013E0E
:1039700000F007B800F009B84FEA430C5FEA5C5C5E
:1039800008D081EA030100F05BB84FEA410C5FEA1E
:103990005C5CF6D14FF00000014970470000FF0762
:1039A0000000F87F0EF1020E2EF0030E5EF8046B9D
:1039B000364205D4012A43EB030515F5001F12D842
:1039C000012841EB010C1CF5001F0CD80ED14FEA69
:1039D000D17C15F5001F0CEB4C0C0CF1020C08BF50
:1039E0004CEBD37C04E04FF0080C01E04FEAD37CB1
:1039F0000CEB4C0526FA05F606F00706B6F1040CAA
:103A000006D20EEB860CBDE870404CF0010C60470E
:103A1000DFE80CF0090B02024FF000414FF000000C
:103A2000A1F5002170BD19461046012851EB010493
:103A300018BFD4F5001484BF002001F0004170BD10
:103A40000808A0F500114FEA3101704753EA010C54
:103A500017D41CF5801F58BFBCF5801F00F10680ED
:103A60008B4218BF704708BF8242704707D713F5D3
:103A7000801F58BF11F5801F19D48B4270479B429D
:103A800070471CF5801F08D5BCF5801FF7D59942FB
:103A900018BF704708BF904270474FF4001C1CEBE2
:103AA000430F38BF1CEB410F01D2994270470FB44E
:103AB0000CBC03BCFFF7C1BE10B591EA030F48BFB1
:103AC00083F000433FF5C0AB841A71EB030C07D2BF
:103AD00012198CF0004C43EB0C03001B61EB0C0142
:103AE000DFF8A4E14FEA1154A4EB135C1EEA430F84
:103AF00018BF9EEA445F00F0B08023EA6E03524292
:103B000021EA0451C3EB6E0338BF5B1EDCF1200ECB
:103B100025D322FA0CFE10EB0E0043FA0CFE41EB0B
:103B20000E01CCF1200E03FA0EFE10EB0E0051F147
:103B30000001CCF1200E29D412FA0EF201EB04514F
:103B4000BDE8104058BF7047401C1CBFB2F1004F89
:103B5000704700280CBF491C20F00100704712EB91
:103B6000020E43EB030218BF4FF0010E4EEA420271
:103B7000ACF1200CDCF11E0E54D943FA0CFE10EB14
:103B80000E0051F1FF31CCF11E0ED5D50EF1010E14
:103B900012FA0EFE404141EB010101EB445C5FEA89
:103BA0005C5C10D910EBDE7001EB045138BFBEF144
:103BB000004FBDE8104018BF704700280CBF491CDB
:103BC00020F00100704730D24FEAD42C11F50011DB
:103BD00024F400641BD0B1FA81F20B3AA41AA41E9B
:103BE000D2F12003914030FA03F31943904001EBE6
:103BF000CC71002C01EB0451BDE81040A8BF704708
:103C000001F1C0414FF0000001F000417047B0FAEF
:103C100080F310FA03F100D110BDE41A173C4805F7
:103C2000C90AE4E701EB045110BD491001EB04514E
:103C3000BDE810404FEA300002E04FF0000170474D
:103C40004A0008BF0042F8D0B2F5001F28BF7047F5
:103C500001F000414FF0000070479EEA445F07D03A
:103C600011EA5E0FBDE8104004BF0021002070473C
:103C7000BDE8104070B5FFF795FE00BF40DFF63E8F
:103C800083F00041104670470000E0FF43004FEA18
:103C9000D30C4FEA3C0C43401FBF40070CF160516E
:103CA00013F0FE4F70471CF0006F03D100200CF0A2
:103CB000004170470CF0004343EA507010B540EAF1
:103CC000CC0000F048FA00BF000000924FEA00016B
:103CD000FFF7B6BE4FF000414FF00000A1F5002104
:103CE0007047000090EA010F48BF81F0004100F1E9
:103CF000C082421A3CBF801A89184FEAD0524FF056
:103D00007F4C1CEA410FA2EBD15318BF9CEA026F13
:103D100000F03B804FF0004C4CEA00204CEA0121BF
:103D200021FA03FC10EB0C0C1ED202F1FF325FEA09
:103D30001C2040EBC25038BF70471CF07F0F4FEA89
:103D4000400C18BFBCF17F4F38BF7047C3F1200350
:103D5000994008BF20F00100BCF17F4F38BF704789
:103D6000A0F1C04000F03DBA4FEA3C00000A40EB31
:103D7000C25028BF1CF0FF0F4FEA400CE6D018BF1E
:103D8000BCF17F4F38BF7047EAE79CEA026F05D06D
:103D900010EA5C0F08BF00F00040704710B500F05B
:103DA000DAF900BF64FBBE3E401058BFC0F140408E
:103DB000491058BFC1F140418142EFF30080704784
:103DC0004FF47F0C1CEAD0121EBF1CEAD11392EAFA
:103DD0000C0F93EA0C0F00F0858090EA010F48BFAA
:103DE00042F4807240F4000C41F400002CF07F415A
:103DF00020F07F4000B58142A2EB03020FF2081CC5
:103E0000ACEB504EC0F100009EF800E04FEA4E0EC1
:103E100000FB0EFC38BF49004FEA2C1C02F5FA02E9
:103E20000CFB0EF34FEACE1E4FEA112C4FEAC121D4
:103E30000EEB635E42EB22420EFB0CFC4FEA1C537E
:103E400000FB03114FEA112C4FEA01310EFB0CFC71
:103E50004FEADC4C00FB0C11C14228BF09184CEBA7
:103E600003335DF804EB10EB410143EBC250B2F5B4
:103E70007C0F38BF704729D512F0F00F1CBF00F13E
:103E8000C04000F0004070470081828384858687AF
:103E900088898B8C8D8E8F919293959697999A9C09
:103EA0009D9FA0A2A3A5A7A8AAACAEB0B2B3B5B778
:103EB000B9BCBEC0C2C5C7C9CCCED1D4D7D9DCDF4E
:103EC000E2E6E9ECF0F3F7FAFE0000004FEA400CFE
:103ED0000CF1807CBCF17E4F28BF7047B0F1C04030
:103EE00000F07FB990EA010F0CEAD11348BF42F409
:103EF0008072624538BF634507D213F47F0F16D036
:103F000080EA010000F00040704710B500F023F98E
:103F1000097EFC3E00F005B880EA010000F0004098
:103F2000704780EA010000F0004000F05AB912F436
:103F30007F0F04BF0248704780EA010000F051B9CA
:103F40000000C07F41000B0ED3F19E0208D950F44F
:103F500000034FEA032323FA02F048BF40427047B0
:103F600010B500F0F8F800BF499224800020704797
:103F70006FF0004282EA200070470000C10DD1F1CD
:103F80009E0206DB4FEA002343F0004323FA02F0CF
:103F90007047004207D54FEA4001B1F1FE4F02D20F
:103FA0004FF00000704710B500F0D5F8499224801A
:103FB000002070476FEA20007047000010F00041B9
:103FC00048BF4042B0FA80F310FA03F2C3F19D03F8
:103FD0000BD051EAC35101EB1220530638BF704792
:103FE00000F1010008BF20F00100704750EA010C09
:103FF00000F113801CF5000F58BFBCF5000F01D471
:104000008842704707D710F5000F58BF11F5000F11
:1040100015D488427047894270471CF5000F04D5BB
:10402000BCF5000FF7D5814270474FF0807C1CEB48
:10403000400F38BF1CEB410F01D28142704710B5D1
:1040400000F089F8922449004FF000504FF0805161
:10405000FFF7AABE4FF47F0C1CEAD0121EBF1CEA69
:10406000D11392EA0C0F93EA0C0F00F0478090EA0C
:10407000010F48BF42F480724FF0004C4CEA002020
:104080004CEA012102EB0302A0FB0113A2F500029E
:10409000002918BF43F001035B0028BF4FEA330338
:1040A00042EB22425FEA132C4CEBC2502EBFBCEB1A
:1040B000436FB2F57C0F70474FEA036CBCF1004FC1
:1040C00008BF20F00100B2F57C0F38BF70470BD558
:1040D00082F0FF0212F5803FC8BF704700F1C04078
:1040E000D8BF00F00040704700F5000C5FEA4C0CB0
:1040F00048BF7047B0F1C04000F073B890EA010FBC
:104100000CEAD11348BF42F48072624538BF634560
:1041100004D280EA010000F00040704710B500F0C2
:104120001AF800BF8900013E00F007B800F009B896
:104130005FEA410C5FEA1C6C08D080EA010000F0E5
:1041400050B85FEA400C5FEA1C6CF6D14FF00040BB
:10415000A0F5800070470EF1020E2EF0030E5EF8FF
:10416000044B244204D44FEA4102B2F17F4F11D8EC
:104170004FEA4003B3F17F4F0CD80ED14FEAD07C09
:10418000B2F17F4F0CEB4C0C0CF1020C08BF4CEB66
:10419000D17C04E04FF0080C01E04FEAD17C0CEB3D
:1041A0004C0324FA03F404F00704B4F1040C06D21F
:1041B0000EEB840CBDE810404CF0010C6047DFE8CA
:1041C0000CF0070802024FF00040A0F5800010BD7F
:1041D0000846420018BFD2F1807288BF00F000404C
:1041E00010BDFF2141EAD050C005704751EA000CD4
:1041F00000F113801CF5000F58BFBCF5000F01D46F
:104200008142704707D711F5000F58BF10F5000F16
:1042100015D481427047894270471CF5000F04D5C0
:10422000BCF5000FF7D5884270474FF0807C1CEB3F
:10423000410F38BF1CEB400F01D28842704780EA23
:10424000010081EA000180EA0100FFF7F8BE80F07A
:10425000004090EA010F7FF54CAD81F0004100F085
:1042600008B8000090EA010F48BF81F000413FF517
:1042700040AD421A04D882F00042A0EB0200114483
:104280004FEAD0524FF07F4C1CEA410FA2EBD153C2
:1042900018BF9CEA026F4AD04FF0004C4CEA002055
:1042A0004CEA012121FA03FCB0EB0C0C0FD412F004
:1042B000FE0F36D05FEA4C001DD5001240EBC25015
:1042C00038BF70471CF03F0F18BF70470BE0A2F1DA
:1042D00001025FEA1C2040EBC25038BF70471CF05F
:1042E0007F0F18BF7047C3F12003994014BF401ED1
:1042F00020F00100704780084FEA122308BF704782
:10430000B0FA80FCA2EB0C02CCF1280C60FA0CF0A5
:1043100093EA122F04BF00EBC25070474FEAC370FC
:104320007047130A5FEADC1008BF7047F6E79CEAA3
:10433000026F04D010EA5C0F08BF0020704710B570
:10434000FFF709FF40DFF63E81F0004070470000B4
:1043500066CC0506000000000000000066CC0209E3
:104360000000000000000000000000008C43000876
:1043700000000020E40800006C010008044500086B
:10438000E40800206C070000D0010008500600A2DD
:104390004A040001A009010203040607080910618C
:1043A000140006140204060800012008C18140011F
:1043B000C0804104610C2108E118A11C011A3001E0
:1043C0001638013660012E70012F6000FF00C0C159
:1043D00001C30302C2C60607C705C5C404CC0C0D41
:1043E000CD0FCFCE0E0ACACB0BC90908C8D81819F1
:1043F000D91BDBDA1A1EDEDF1FDD1D1CDC14D4D551
:1044000015D71716D6D21213D311D1D010F03031E0
:10441000F133F3F23236F6F737F53534F43CFCFD80
:104420003DFF3F3EFEFA3A3BFB39F9F83828E8E910
:1044300029EB2B2AEAEE2E2FEF2DEDEC2CE4242590
:10444000E527E7E62622E2E323E12120E0A0606100
:10445000A163A3A26266A6A767A56564A46CACADC0
:104460006DAF6F6EAEAA6A6BAB69A9A86878B8B970
:1044700079BB7B7ABABE7E7FBF7DBDBC7CB47475D0
:10448000B577B7B67672B2B373B17170B050909120
:10449000519353529296565797559594549C5C5D00
:1044A0009D5F9F9E5E5A9A9B5B9959589888484990
:1044B000894B8B8A4A4E8E8F4F8D4D4C8C44848510
:1044C0004587474686824243834181800AFF4016E2
:1044D00009FF1609131609FF000DFF1604012F012D
:1044E00020055A45983C08120F0201370109FF7850
:1044F00009FF78600909030001000814840802001C
:0445000000000000B7
:0400000508000215D8
:00000001FF
