:020000040800F2
:10000000B010002015020008C51B0008BF1700082B
:10001000C11B0008D10500087D2F0008000000006A
:100020000000000000000000000000008D1E00081D
:1000300055110008000000004D1C0008E5220008D2
:100040002F0200082F0200082F0200082F020008CC
:100050002F0200082F0200082F0200082F020008BC
:100060002F0200082F0200082F0200082F020008AC
:100070002F0200082F0200082F0200082F0200089C
:100080002F0200082F0200082F0200082F0200088C
:100090009D2E00082F0200082F0200082F020008E2
:1000A0002F0200082F0200082F0200082F0200086C
:1000B0002F0200082F0200082F0200082F0200085C
:1000C0002F0200082F0200082F0200082F0200084C
:1000D0002F020008592B0008C12B0008192C00081A
:1000E0002F0200082F0200082F0200082F0200082C
:1000F0002F0200082F0200082F0200082F0200081C
:100100002F0200082F0200082F0200082F0200080B
:100110007D2A0008D12A00082F0200084923000880
:100120002F0200082F0200082F0200082F020008EB
:1001300000F002F800F05EF80AA090E8000C82449B
:100140008344AAF10107DA4501D100F053F8AFF278
:10015000090EBAE80F0013F0010F18BFFB1A43F0A5
:1001600001031847C8460000E846000010F8013BAC
:100170000A4413F0030408BF10F8014B1D1108BF17
:1001800010F8015B641E05D010F8016B641E01F8C5
:10019000016BF9D1002D15D010F8014B03F00C03C1
:1001A0000C2BA1EB04040ABF10F8013BA4EB831451
:1001B000A4EB032405F1010314F8016B5B1E01F8A5
:1001C000016BF9D5914238BF10F8013BD1D370478C
:1001D0000023002400250026103A28BF78C1FBD850
:1001E000520728BF30C148BF0B6070471FB51FBD05
:1001F00010B510BD00F07AF81146FFF7F7FF03F0D5
:10020000F9F900F098F803B4FFF7F2FF03BC00F02F
:100210009DF800000948804709480047FEE7FEE7CF
:10022000FEE7FEE7FEE7FEE7FEE7FEE7FEE7FEE7A6
:1002300004480549054A064B70470000E9220008BA
:1002400031010008B00A0020B0100020B00C0020DE
:10025000B00C00204FF000020429C0F0128010F012
:10026000030C00F01E80CCF1040CBCF1020F18BF8F
:1002700000F8012BA8BF20F8022BA1EB0C0100F025
:1002800010B85FEAC17C24BF00F8012B00F8012BF5
:1002900048BF00F8012B70477047704770474FF018
:1002A000000200B5134694469646203922BFA0E8C6
:1002B0000C50A0E80C50B1F12001BFF4F7AF0907D2
:1002C00028BFA0E80C5048BF0CC05DF804EB8900C3
:1002D00028BF40F8042B08BF704748BF20F8022B06
:1002E00011F0804F18BF00F8012B7047754600F0E1
:1002F00029F8AE4605006946534620F007008546BA
:1003000018B020B5FFF794FFBDE820404FF000067D
:100310004FF000074FF000084FF0000B21F00701ED
:10032000AC46ACE8C009ACE8C009ACE8C009ACE830
:10033000C0098D4670470446AFF300802046FFF7A2
:1003400062FF000000487047500A00200149182051
:10035000ABBEFEE726000200704721B1826842F082
:100360000102826003E0826822F00102826070472D
:1003700010B504461248844208D10121401501F00D
:10038000A3FC0021601501F09FFC17E00D4884429A
:1003900008D10121001501F097FC0021201501F082
:1003A00093FC0BE00848844208D10121C80301F006
:1003B0008BFC00214FF4004001F086FC10BD0000D2
:1003C0000024014000280140003C0140014600207B
:1003D0008A6802F004020AB1012000E000207047A0
:1003E0000146C86C80B270470246002013680B407B
:1003F0000BB1012000E000207047014600208A6810
:1004000002F008020AB1012000E00020704700005D
:1004100030B502460020002350680F4C20400D7973
:100420000C6844EA05242043506090680B4C20403F
:10043000D1E902542C434D7944EA450420439060AD
:10044000D06A20F470000C7C641EE4B2234340EABE
:100450000350D06230BD0000FFFEF0FFFDF7F1FF5A
:10046000F0B504460D4600200021092D11DDE0689D
:10047000A5F10A0606EB4607072606FA07F18843A8
:10048000A5F10A0606EB460603FA06F10843E0600A
:100490000CE0206905EB4507072606FA07F18843BB
:1004A00005EB450603FA06F108432061072A0FDA37
:1004B000606B561E06EB86071F2606FA07F1884377
:1004C000561E06EB860605FA06F10843606322E035
:1004D0000D2A0FDA206BD61F06EB86071F2606FAB9
:1004E00007F18843D61F06EB860605FA06F1084396
:1004F000206310E0E06AA2F10D0606EB86071F26D6
:1005000006FA07F18843A2F10D0606EB860605FA06
:1005100006F10843E062F0BD816841F008018160A6
:10052000704721B1826842F4A002826003E08268D1
:1005300022F4A00282607047816841F0040181606A
:100540007047000000B587B001214FF4047001F03E
:10055000ABFB4FF4004001F07BFB0820ADF804003A
:1005600000208DF8070001A9174800F0F4FD174896
:10057000FFF7FEFE002002908DF80C008DF80D00B4
:100580004FF4602004900020059001208DF81800A1
:1005900002A90E48FFF73CFF01210C48FFF7DDFEE2
:1005A0000A48FFF7B9FF00BF0848FFF726FF0028F9
:1005B000FAD10648FFF7C0FF00BF0448FFF706FF67
:1005C0000028FAD107B000BD00100140002401400E
:1005D00000BFFEE7B1F5007F3AD00FDC202928D01C
:1005E00006DC01291CD004291DD0082940D11DE0BA
:1005F000402921D0B1F5807F3AD126E0B1F5004FF6
:1006000031D006DCB1F5806F25D0B1F5006F2FD168
:1006100024E0B1F5803F12D0B1F5003F28D111E0C0
:10062000154A826025E00822C26022E01022C260E2
:100630001FE0082202611CE01022026119E008227A
:10064000426016E01022426013E00422426010E093
:10065000042242600DE0042242600AE0002282612E
:100660000422426005E0002282610422426000E030
:1006700000BF00BF704700000101010010B500215C
:10068000837A012202FA03F13D4A126842F0010224
:100690003B4B1A603A4A1C3212688A43384B1C336F
:1006A0001A60027BCAB9364A0C3212688A43344B4C
:1006B0000C331A604288C38842EA0343304A40320E
:1006C000847A42F834300288838842EA03432C4A11
:1006D0004032847A02EBC4025360027B012A19D1B2
:1006E000274A0C3212680A43254B0C331A604288A1
:1006F000038842EA0343224A4032847A42F8343083
:10070000C288838842EA03431D4A4032847A02EB5E
:10071000C4025360C27A3AB9194A121D12688A4358
:10072000174B1B1D1A6006E0154A121D12680A437A
:10073000134B1B1D1A60028932B9114A1432126818
:100740008A430F4B14331A600289012A06D10C4ADE
:10075000143212680A430A4B14331A60427B012A8E
:1007600006D1074A1C3212680A43054B1C331A6033
:10077000034A126822F00102014B1A6010BD00000A
:100780000066004070B504460D46002660692840AA
:10079000002871D0B5F5807F5CD010DC082D35D0F5
:1007A00006DC012D20D0022D24D0042D72D127E0AB
:1007B000102D31D0202D35D0402D6BD138E0B5F53E
:1007C000004F60D009DCB5F5007F49D0B5F5806FEA
:1007D0004CD0B5F5006F5DD14FE0B5F5803F2DD021
:1007E000B5F5003F56D12FE0A0682D4900F00CFB75
:1007F000064651E0E068032100F006FB06464BE0A8
:10080000E068082100F000FB064645E0E0681021A2
:1008100000F0FAFA06463FE02069032100F0F4FAFE
:10082000064639E02069082100F0EEFA064633E07A
:100830002069102100F0E8FA06462DE060680821E2
:1008400000F0E2FA064627E06068102100F0DCFACA
:10085000064621E0A069012100F0D6FA06461BE019
:10086000A069022100F0D0FA064615E0A069042133
:1008700000F0CAFA06460FE00FE0A069702100F010
:10088000C3FA064608E06068042100F0BDFA064697
:1008900002E0FFE7002600BF00E00026304670BD02
:1008A000010101001AB143690B43436102E043694E
:1008B0008B434361704730B5024600200023146823
:1008C00024F002041460146844F00104146000E091
:1008D0005B1C546804F001041CB94FF6FF74A3427A
:1008E000F6D1546804F001040CB900206CE08C7956
:1008F000012C04D1146844F08004146003E01468EF
:1009000024F080041460CC79012C04D1146844F0E4
:100910004004146003E0146824F0400414600C7A6E
:10092000012C04D1146844F02004146003E014681E
:1009300024F0200414604C7A012C04D1146844F093
:100940001004146003E0146824F0100414608C7A1E
:10095000012C04D1146844F00804146003E0146806
:1009600024F008041460CC7A012C04D1146844F0FB
:100970000404146003E0146824F0040414608C7808
:10098000A407CD7844EA05640D7944EA05444D791D
:1009900044EA05540D886D1E2C43D461146824F07C
:1009A00001041460002300E05B1C546804F001049F
:1009B0001CB14FF6FF74A342F6D1546804F0010451
:1009C0000CB1002000E0012030BD00002DE9F04115
:1009D0008AB004460D4616461F46DDF840800121C8
:1009E000084601F061F90121480601F04DF90121A5
:1009F000082001F059F901214FF4EA1000F036FC0B
:100A00004FF40070ADF8240003208DF82600182064
:100A10008DF8270009A92E4800F09DFB4FF4807047
:100A2000ADF8240048208DF8270009A9284800F0D7
:100A300092FB00208DF81E008DF81F0001208DF81C
:100A400020008DF8210000208DF8220001208DF873
:100A500023008DF81A808DF81B408DF81C608DF8EE
:100A60001D50ADF8187006A91A48FFF724FF0020A2
:100A70008DF812008DF8130001208DF8140000206D
:100A8000ADF80800ADF80A00ADF80C00ADF80E00A6
:100A9000ADF8100001208DF8150002A8FFF7EEFD5B
:100AA000012202210B48FFF7FDFE14208DF80400FF
:100AB00002208DF8050003208DF8060001208DF836
:100AC000070001A801F080F800200AB0BDE8F0811D
:100AD000000C01400064004010B500F5D87303EB32
:100AE00001131B6803F004031372137A53B900F562
:100AF000D87303EB01131B6840F2FF7404EA5353ED
:100B0000136009E000F5D87303EB01131B686FF065
:100B1000604404EAD303536000F5D87303EB011378
:100B20001B6803F00203537200F5D87303EB011343
:100B30005B6803F00F03937200F5D87303EB0113A6
:100B40005B681B0AD37400F5D87303EB01139B6831
:100B5000D37200F5D87303EB01139B681C0A14735E
:100B600000F5D87303EB01139B681C0C547300F55C
:100B7000D87303EB01139B681B0E937300F5D873B6
:100B800003EB0113DB68D37300F5D87303EB011398
:100B9000DB681C0A147400F5D87303EB0113DB68DF
:100BA0001C0C547400F5D87303EB0113DB681B0EA7
:100BB000937421B9C36843F02003C36003E0036961
:100BC00043F02003036110BD10B502460020936876
:100BD00003F08063B3F1806F00D110E0936803F0FD
:100BE0000063B3F1006F01D1012008E0936803F0C6
:100BF0008053B3F1805F01D1022000E0042004287B
:100C000074D002F5C07303EB00131B6803F00104FA
:100C100002F5C07303EB00131C600B7A7BB94B7AAF
:100C20000C8843EA445302F5C07404EB00142468B2
:100C3000234302F5C07404EB0014236010E00B7A28
:100C40004C6843EAC4034C7A234302F5C07404EBB6
:100C500000142468234302F5C07404EB00142360DD
:100C60008B7A03F00F038B7202F5C07303EB001352
:100C70005B6823F00F0402F5C07303EB00135C60A4
:100C800002F5C07303EB00135B688C7A234302F513
:100C9000C07404EB001463608B7B1C064B7B44EA3E
:100CA00003440B7B44EA0323CC7A234302F5C0744C
:100CB00004EB0014A3608B7C1C064B7C44EA0344C9
:100CC0000B7C44EA0323CC7B234302F5C07404EB82
:100CD0000014E36002F5C07303EB00131B6843F0DC
:100CE000010402F5C07303EB00131C6010BD00008B
:100CF00010B50246002321B1012907D002290FD1E6
:100D000009E090681D4C00EA04030BE090681C4C5D
:100D100000EA040306E090681A4C00EA040301E0CC
:100D2000002300BF00BF184C181BA34216D007DCDD
:100D300083B16FF08060184470B1022818D111E0BF
:100D4000B0F5007F10D0114C204448B1B0F5003F01
:100D50000ED10BE002230DE000230BE0002309E09D
:100D6000002307E0012305E0012303E0012301E064
:100D7000002300BF00BFD8B210BD00000300000474
:100D80000003000800000310000100080001FFF745
:100D90002DE9F04107460D469046002412201849DF
:100DA00008600846C0F804800420087200204872D9
:100DB0000846857200BF05E0395D11480B300155CA
:100DC000601C84B2AC42F7DB0D490E48FFF7FCFE15
:100DD0000646002401E0601C84B231460948FFF752
:100DE00087FF18B940F6FF708442F4DB40F6FF70CD
:100DF000844202DB0120BDE8F0810020FBE7000017
:100E0000A0090020006400400246002002EA01031D
:100E10000BB1012000E00020704700002DE9FC41EB
:100E200005460E4690461C46089F00200090019003
:100E3000A807000E114908700846007840EA06101D
:100E400008700846007840EA880008700846007874
:100E50008DF80000200A8DF80100E0B28DF8020044
:100E6000380A8DF80300F8B28DF80400044A08210E
:100E70006846FFF78DFFBDE8FC8100009E0600205C
:100E8000F3E7F81000F0805111B10349086001E068
:100E9000024948607047000004040240000002401C
:100EA00021B1026842F00102026004E002684FF6DC
:100EB000FE731A40026070470146486880B270476E
:100EC00010B50022026847F6F0739A430C6A8B68EB
:100ED00023430C6923434C6923438C692343CC6926
:100EE00023434C6A23438C6A23431A430260CB6832
:100EF00043600B6883604B68C36010BD41607047FE
:100F000070B502460C46FF25FF2309E012F8010BDD
:100F100080EA05010648405C80EA03050548435C19
:100F20002000A4F10106B4B2F0D143EA052070BD5F
:100F30002C0000202C01002010B592B004460121A5
:100F4000102000F0B1FE0121022000F08DFE0121F1
:100F5000C80400F099FE4FF48060ADF8440003200F
:100F60008DF8460018208DF8470011A9314800F08F
:100F7000F2F84FF40060ADF8440004208DF847000B
:100F800011A92C4800F0E7F80D940020ADF83800C6
:100F9000ADF83A00ADF83C00ADF840000C20ADF8DB
:100FA0003E000DA9244801F003FF0121224801F071
:100FB0008DFE01224021204801F094FE34208DF85E
:100FC000040003208DF8050001208DF806008DF83F
:100FD000070001A800F0F8FD1021174801F05EFE9F
:100FE000012240F22441144801F0BCFE1348039052
:100FF0001148001D02900020049007200590002059
:1010000006908020079000200890099020200A90E8
:1010100000020B9000200C9002A90948FFF750FF36
:101020000848FFF72FFF01210548FFF739FF12B0ED
:1010300010BD000000100140004C00402C020020B8
:10104000300402400002001070B504460D460BE06B
:1010500000BF4021074801F04EFE0028F9D021785A
:10106000044801F016FF641C2800A5F10101CDB26F
:10107000EED170BD004C00402DE9FF47044631A37E
:101080000FCB8DE80F00002C0BDA601C6FF00041D5
:1010900044182046E11704EB112109168031CEB225
:1010A00004E02046E11704EB11210E0E2146E21761
:1010B00004EB12421014C21700EB12621212A0EBE2
:1010C0000222D7B2E21704EB12621012C21700EB31
:1010D00012621212A0EB022202F0FF082046E11772
:1010E00004EB11610912A4EB012101F0FF098DF855
:1010F00007808DF808908DF809608DF80A700B2133
:101100006846FFF7FDFE05462946EA1705EB126221
:101110001012C21700EB12621212A0EB0222D2B21E
:101120008DF80B202846E91705EB11610912A5EB94
:101130000121C9B28DF80C100D216846FFF784FF1C
:10114000BDE8FF870110000C000204000000000051
:101150000000000070472DE9F041024600250026FE
:10116000002000230024002791F803C00CF00F0595
:1011700091F803C00CF0100CBCF1000F03D091F8F3
:1011800002C04CEA050591F800C0BCF1000F31D057
:10119000146800202BE04FF0010C0CFA00F3B1F8BA
:1011A00000C00CEA03069E4220D183004FF00F0CD2
:1011B0000CFA03F7BC4305FA03FC4CEA040491F86B
:1011C00003C0BCF1280F06D14FF0010C0CFA00FC53
:1011D000C2F814C00AE091F803C0BCF1480F05D171
:1011E0004FF0010C0CFA00FCC2F810C0401C08289B
:1011F000D1D31460B1F800C0BCF1FF0F34DD5468E6
:1012000000202EE000F1080C4FF0010808FA0CF362
:10121000B1F800C00CEA03069E4221D183004FF0D2
:101220000F0C0CFA03F7BC4305FA03FC4CEA040468
:1012300091F803C0BCF1280F05D100F1080C08FAA1
:101240000CF8C2F8148091F803C0BCF1480F07D124
:1012500000F1080C4FF0010808FA0CF8C2F81080F1
:10126000401C0828CED35460BDE8F081F0B50A4692
:10127000002300240021002500F00046B6F1004FB5
:1012800002D11D4EF16901E01B4E7168C0F30345A8
:1012900083B200F44016B6F5401F08D121F070610A
:1012A000154E766826F07066134F7E6012E000F4EB
:1012B0008016B6F5801F06D1032606FA05F4A14371
:1012C00041F0706106E0460D360103FA06F6B143BF
:1012D00041F0706122B1460D360103FA06F6314342
:1012E00000F00046B6F1004F02D1034EF16101E07B
:1012F000014E7160F0BD00000000014001617047C7
:1013000010B504460723012221460948FFF7A8F833
:1013100001210748FFF705F900BF02210448FFF744
:1013200063F80028F9D00248FFF75AF810BD000012
:10133000002401402DE9F04107460C460025002617
:1013400008E03846FFF7DCFF0544032002F010F800
:10135000701CC6B2A642F4DBB5FBF4F080B2BDE867
:10136000F0810A7802704A7842704278032A0BD1E1
:101370008A7882700A79CB7842EA032282808A795D
:101380004B7942EA0322C280704770B504460D468D
:101390002878697840EA0120C0F30A00208020887C
:1013A000A0F5806000B220806878C010A97840EA7B
:1013B0004110C0F30A0060806088A0F5806000B230
:1013C0006080A8788011E97840EA8100297940EAB4
:1013D0008120C0F30A00A080A088A0F5806000B240
:1013E000A08028794010697940EAC110C0F30A0052
:1013F000E080E088A0F5806000B2E080B4F90000F1
:10140000052806DCB4F9000010F1050F01DB00200F
:101410002080B4F90200052806DCB4F9020010F1BE
:10142000050F01DB00206080B4F90400052806DC0C
:10143000B4F9040010F1050F01DB0020A080B4F91D
:101440000600052806DCB4F9060010F1050F01DBE3
:101450000020E08068790011800820726879C0F36C
:1014600001106072207A012806D0022805D00328D6
:1014700006D10120A07204E000BF0020A07200E0AD
:1014800000BF00BFB4F90030002B01DB1E4600E0B6
:101490005E42B6F5257F1DDCB4F90220002A01DB8F
:1014A000164600E05642B6F5257F13DCB4F9041069
:1014B000002901DB0E4600E04E42B6F5257F09DC2F
:1014C000B4F90600002801DB064600E04642B6F506
:1014D000257F04DD15212046FEF7BCFE70BDA879EE
:1014E000E97940EA012000B2A4F80B00287A697A71
:1014F00040EA012001B204F10B00A4F80D10A87A13
:10150000E97A40EA012001B204F10B00A4F80F10BF
:10151000297B6174697BA174A87BE97B40EA012087
:10152000A4F8130000BFD9E72DE9FC5F05460C467F
:101530001646052E01DABDE8FC9F207866285DD1AD
:101540006078CC285AD194F8029094F803A00AF15C
:101550000201A01C01F0C8FF0AF10401615C88428D
:1015600000D0E8E7B9F1010F39D10B2E37DB244861
:10157000D0E90010234AC2E9001020792870A1792F
:10158000627941EA0221A1F5EA40303802F059FBC4
:1015900000221D4BCDE9000102F092F9074602F04E
:1015A000A9F86860217AE27941EA022002F066FF38
:1015B000A8601649A86803F0B5F8834602F0C6FD96
:1015C0000022114BCDE9000102F07AF9074602F042
:1015D00091F8A860607A2873A07A68730CE0B9F17A
:1015E000050F04D10B2E02DB01F0E8FE04E0B9F197
:1015F000060F01D101F0E2FE0020A07000BF9AE7C3
:101600007006002080060020000059400060EA4675
:1016100070B505460C46207DE17C40EA0126132189
:10162000204600F02DFDB0424DD12078092828D168
:101630002079E17840EA01202880A079617940EAA8
:1016400001206880207AE17940EA0120A880A07A10
:10165000617A40EA0120E880207BE17A40EA0120BB
:101660002881A07B617B40EA01206881207CE17BAE
:1016700040EA0120A881A07C617C40EA0120E88149
:1016800026E02078072823D12079E17840EA01205C
:101690002882A079617940EA01206882207AE17984
:1016A00040EA0120A882A07A617A40EA0120E8821B
:1016B000207BE17A40EA01202883A07B617B40EA1D
:1016C0000120688304E01E212846FEF7C3FD70BD9B
:1016D00000BFFCE770B505460C46207855281DD1A3
:1016E000607854281AD1032605E0A05D08B9FF20D0
:1016F000A055701CC6B20A2EF7DDE078288020794C
:1017000068806079A880A079E880E0792881207AD3
:101710006881607AA881A07AE88104E012212846D5
:10172000FEF798FD70BD00BFFCE7000070B50446F1
:101730000D46287820706878A97840EA01206080FA
:10174000E87820712879697940EA012000B2E080C8
:101750002078022803D1E088404200B2E080B4F94A
:101760000600052190FBF1F000B2E080B4F906001C
:1017700002F084FE064606480168304602F0CAFEC2
:10178000A060A87928382073E8792838607370BD84
:10179000900600200A784B7842EA0322C2818A78B8
:1017A000CB7842EA032202820A794B7942EA032289
:1017B00042828A79CB7942EA03228282704700BF53
:1017C000FEE700002DE9F04F87B080468A46934639
:1017D000DDE9104500221346464903C902F0C8F965
:1017E00005D1444830C0002007B0BDE8F08F414823
:1017F0000CC82046294602F0BFFBCDE9040101F0E8
:1018000079FF81465946504602F08CFF0646304625
:1018100002F09CFC21F00041374A384BCDE904012D
:1018200002F03AFA00D200263548066035480760D3
:101830003548C0F80090484602F088FC4FF033323B
:10184000324BCDE9040102F061FB01D3129858B18B
:10185000002700202E4908602E4908602E490860A4
:10186000244830C03846BFE72B4801684FF080401D
:1018700002F050FE3146019002F049FF02902548E7
:101880000168029802F08EFC0390D8F8081002F06C
:1018900041FE4946049002F0F3FC0690D8F804009B
:1018A000314602F037FE04901B480168304602F0D2
:1018B00039FF0190D8F8001002F02CFE0290144875
:1018C0000168029802F06EFC0390049902F06AFC31
:1018D0000590069902F066FC07460D4807600E4821
:1018E00000680C4908600C480660024830C0384661
:1018F0007AE70000D00600209A9999999999B93F02
:10190000A8060020AC060020B00600203333D33FE9
:10191000C4060020CC060020C806002010B592B0F6
:1019200004460121042000F0BFF90121084600F01F
:10193000BBF90121480400F0A7F90121084600F095
:1019400093F90420ADF8440003208DF846001820D8
:101950008DF8470011A93148FFF7FDFB0820ADF8CD
:10196000440004208DF8470011A92C48FFF7F3FB31
:101970000D940020ADF83800ADF83A00ADF83C0009
:10198000ADF840000C20ADF83E000DA9244801F050
:101990000FFA0121224801F099F901224021204843
:1019A00001F0A0F926208DF8040001208DF8050033
:1019B0008DF806008DF8070001A800F005F9102148
:1019C000174801F06BF9012240F22441144801F05C
:1019D000C9F9144803901248001D02900020049099
:1019E0001420059000200690802007900020089089
:1019F000099020200A9000020B9000200C9002A970
:101A00000948FFF75DFA4FF40010FFF73BFA012198
:101A10000548FFF745FA12B010BD0000000801406C
:101A200000440040B40900206C0002402DE9FF474B
:101A300004460D4616461F46DDF830804FF0090972
:101A40002C4B0FCB8DE80F0047F230516018C117B7
:101A500000EB1161090A8DF8041047F2305160184B
:101A6000C11700EB11610912A0EB0121C9B28DF879
:101A7000051047F230516818C11700EB1161090ACF
:101A80008DF8061047F230516818C11700EB11614C
:101A90000912A0EB0121C9B28DF8071006EB8600F0
:101AA00047F2305101EB4000000A8DF8080006EBC8
:101AB0008600302101EB4000C0B28DF8090047F2EA
:101AC00030503844000A8DF80A0030203844C0B243
:101AD0008DF80B008DF80C800B210DF1020001F048
:101AE00003FD8DF80D000E21684600F005F8BDE8F5
:101AF000FF8700001C48000870B504460D460BE047
:101B000000BF4021074801F0F6F80028F9D02178FD
:101B1000044801F0BEF9641C2800A5F10101CDB212
:101B2000EED170BD004400402DE9FC4706460F464B
:101B300090461C46DDE90AA9002000900190B007FC
:101B4000050E45EA0710C5B245EA8800C5B28DF812
:101B500000500A4804708DF801404FEA19208DF8B2
:101B6000050009F0FF008DF80600054A08216846C7
:101B7000FFF70EF903490870BDE8FC879F060020B7
:101B8000F3E8F810A006002008B50121042000F0B9
:101B90008BF84FF40060ADF8000010208DF80300C2
:101BA00003208DF8020069460448FFF7D4FA4FF489
:101BB00000610248FFF7A2FB08BD000000080140D9
:101BC00000BFFEE77047000070B5002100230F2220
:101BD000C47804B3154C246804F4E064C4F5E064EC
:101BE000210AC1F10403CA40447804FA03F184785D
:101BF0001440214309010E4C0678A155047804F0E5
:101C00001F050124AC4005786D11AD0005F1E025FC
:101C1000C5F8004109E0047804F01F050124AC4038
:101C2000044D0678761145F8264070BD0CED00E0B5
:101C300000E400E080E100E002490143024A116053
:101C4000704700000000FA050CED00E0704700004E
:101C500001460020034A506820F440400843506089
:101C6000704700000010024029B1064A5269024341
:101C7000044B5A6104E0034A52698243014B5A61A2
:101C8000704700000010024029B1064AD2690243A1
:101C9000044BDA6104E0034AD2698243014BDA6102
:101CA000704700000010024029B1064A92690243C1
:101CB000044B9A6104E0034A92698243014B9A61A2
:101CC000704700000010024029B1064AD268024362
:101CD000044BDA6004E0034AD2688243014BDA60C5
:101CE000704700000010024030B50021002200249F
:101CF00000232D4D6D6805F00C0121B1042905D09C
:101D0000082923D105E0294D056022E0274D056013
:101D10001FE0254D6D6805F47012234D6D6805F4C4
:101D20008034022505EB92421CB9214D55430560D4
:101D30000BE01D4D6D6805F400351DB11C4D55437C
:101D4000056002E0194D5543056002E0174D05603E
:101D500000BF00BF144D6D6805F0F0010909154D75
:101D60006B5C0568DD4045600F4D6D6805F4E06112
:101D7000090A104D6B5C4568DD4085600A4D6D6851
:101D800005F46051C90A0B4D6B5C4568DD40C560C8
:101D9000054D6D6805F44041890B074D6B5CC568C6
:101DA000B5FBF3F5056130BD0010024000127A006A
:101DB00000093D00180000202800002010B586B062
:101DC000044601213020FFF76FFF01210846FFF78D
:101DD0006BFF01210805FFF757FF4FF48050ADF866
:101DE000140003208DF8160018208DF8170005A99F
:101DF0002348FFF7B0F90420ADF814008DF8170060
:101E000005A92048FFF7A7F901940020ADF80800C4
:101E1000ADF80A004FF48060ADF80C000020ADF87A
:101E200010000C20ADF80E0001A9174800F0C0FF0B
:101E30000121154800F04AFF35208DF800000120EF
:101E40008DF801008DF802008DF803006846FFF759
:101E5000BBFE20210C4800F021FF012240F2255159
:101E6000094800F07FFF1021074800F017FF01220A
:101E700040F22441044800F075FF06B010BD000098
:101E8000001001400014014000500040704710B5A0
:101E900000F002F810BD00000CB500200190009089
:101EA0003348006840F480303149086000BF304852
:101EB000006800F4003000900198401C01900098E8
:101EC00018B90198B0F5A06FF1D12948006800F465
:101ED000003010B10120009001E000200090009837
:101EE000012843D12348006840F0100021490860D0
:101EF0000846006820F0030008600846006840F0CB
:101F0000020008601A48406819494860084640685D
:101F100048600846406840F4806048600846406871
:101F200020F47C1048600846406840F4E81048609F
:101F30000846006840F08070086000BF0C480068E8
:101F400000F000700028F9D00948406820F0030034
:101F5000074948600846406840F00200486000BFFA
:101F60000348406800F00C000828F9D10CBD0000BF
:101F700000100240002002402DE9F047394930C9E5
:101F80004FF0000A01F0BEFA374908703748008860
:101F90000978884211DB35484088334909788842FE
:101FA0000BDB3248808830490978884205DB2F48AE
:101FB000C0882D490978884203DA4AF0010A2C4882
:101FC00030C02A48008928490978884211DB27480F
:101FD00040892549097888420BDB244880892249B9
:101FE0000978884205DB2148C0891F490978884261
:101FF00003DA4AF0020A1F4830C00AF0010098B91B
:102000001D48006802F0A2F806460F4618480CC8A2
:102010002046294601F0B0FF804632463B4601F09B
:102020003BFE01D24AF0010A0AF0020098B91248B8
:10203000006802F08BF806460F460E480CC8204692
:10204000294601F099FF804632463B4601F024FEC6
:1020500001D24AF0020A4FFA8AF008490870504645
:10206000BDE8F08770060020D8080020020A002092
:10207000F0080020F808002000090020EC080020EB
:1020800070B502460C46FF25FF2309E012F8010B4C
:1020900080EA05010648405C80EA03050548435C88
:1020A0002000A4F10106B4B2F0D143EA052070BDCE
:1020B000D8060020D807002010B592B004460121B0
:1020C0000820FFF7F1FD01210846FFF7EDFD012192
:1020D0008803FFF7E9FD01218804FFF7D5FD012101
:1020E0000846FFF7C1FD01210420FFF7BFF840209B
:1020F000ADF8440003208DF8460018208DF8470005
:1021000011A96848FFF727F88020ADF844000420A3
:102110008DF8470011A96348FFF71DF84FF4806060
:10212000ADF8440003208DF8460018208DF84700D4
:1021300011A95C48FFF70FF84FF40060ADF84400B8
:1021400004208DF8470011A95648FFF704F80D94B4
:102150000020ADF83800ADF83A00ADF83C00ADF81D
:1021600040000C20ADF83E000DA94F4800F020FEC5
:1021700001214D4800F0AAFD012240214A4800F00B
:10218000B1FD0D940020ADF83800ADF83A00ADF87F
:102190003C00ADF840000C20ADF83E000DA94348CE
:1021A00000F006FE0121414800F090FD012240218F
:1021B0003E4800F097FD25208DF8300001208DF875
:1021C00031008DF832008DF833000CA8FFF7FCFCCD
:1021D0001021354800F062FD012240F224413248CE
:1021E00000F0C0FD27208DF8300001208DF831006F
:1021F0008DF832008DF833000CA8FFF7E5FC1021B4
:102200002A4800F04BFD012240F22441274800F00B
:10221000A9FD274802902448001D0190002003904A
:102220001E2004900020059080200690002007903A
:1022300008902020099000020A9000200B9001A92C
:102240001C48FEF73DFE4FF40030FEF71BFE012157
:102250001848FEF725FE184802901448001D01900A
:10226000002003901E2004900020059080200690FE
:102270000020079008902020099000020A9000207A
:102280000B9001A90B482838FEF71AFE4FF4007096
:10229000FEF7F8FD012107482838FEF701FE12B0CD
:1022A00010BD0000000C0140003801400048004013
:1022B000140A002058000240320A0020042808D1E5
:1022C0004FF0E021096941F004014FF0E022116173
:1022D00007E04FF0E021096921F004014FF0E0220E
:1022E000116170477047000010B51348006840F056
:1022F00001001149086008464068104908400E492D
:102300004860084600680E4908400B4908600846C6
:10231000006820F4802008600846406820F4FE0031
:1023200048604FF41F008860FFF7B1FD4FF0006078
:102330000449086010BD0000001002400000FFF8D2
:10234000FFFFF6FE08ED00E02DE9FE4F0020FE49FC
:102350000870FE4908800121FD4800F023FB80B190
:102360000121FB4800F00FFBFA480068401CF949C6
:102370000860F94AF94BFA4903C901F0EDF9F84A46
:1023800003C2F848B0F90600F749B1F9061044183D
:1023900004EBD471481002F071F8F4490860F24A75
:1023A0009168F04A906801F0FDFE04464FF08041CC
:1023B00001F066FFEE490860EE48006801F0C6FED5
:1023C00006460022EC4B01F0A3FC82460022EB4BB8
:1023D00001F076FA04460022E94B01F071FA8046DA
:1023E00001F088F9E74908600020E7490860E748FC
:1023F000407A032803D0E548407A02287DD1E3489B
:10240000407A032818D1E248D5490CC803C901F025
:10241000B3FD0446DF4AE04B01F03EFC04D2DF4846
:102420004068DF49086002E00020DD490860DB48C1
:102430008068D04908602DE0D449B1F9060001F068
:1024400000FC06460022D74B01F062FC0446002245
:10245000D54B01F035FA80460022D44B01F058FCF0
:10246000824601F047F9CE490860C849B1F9001029
:10247000484201F0E6FB80460022CB4B01F020FAF7
:102480000646C44ACA4B01F043FC044601F032F947
:10249000B8490860C248006801F058FE04460022AE
:1024A000134601F065FB29D1B148006801F04EFEEA
:1024B00006464FF03332BF4B01F0EEFB01D801204E
:1024C00000E00020804601F0BCFB21F00041044602
:1024D0000022134601F04CFB10D001200290A048CE
:1024E00003C8CDE90001A2480268AD480168B248BE
:1024F000FFF768F9A44908600FE058E00020029057
:10250000974803C8CDE9000199480268A4480168CA
:10251000A948FFF757F99C490860A8499A480068FC
:1025200002F0C4F803D2A5489749086008E0A4491E
:102530009548006801F0BAFF02D2A14892490860AC
:1025400000219748006802F0B1F803D201207E49CB
:10255000087008E000219248006801F0A7FF02D24D
:10256000FF2079490870784890F9000001F086FF53
:10257000054685480168284601F0CCFF0446002145
:1025800001F094FF0BD28048006801F03BFF041E6D
:1025900001DB204600E060426C4908807DE06A482B
:1025A0000078002879D1FF206849088075E07748D5
:1025B000407A012871D17548B0F90600C0EB0020BF
:1025C0004FF4257190FBF1F4204601F057FF6E495E
:1025D00008606E49B1F90010484201F032FB8046B4
:1025E0000022714B01F06CF906466A4A704B01F00B
:1025F0008FFB044601F07EF85E49086000215C48CC
:10260000006802F053F80FD200215F48006801F023
:102610004DFF09D25C48006880F00044204601F07C
:102620000DFF4A49088011E000215148006801F07F
:102630003DFF0BD200215448006802F037F805D264
:102640005148006801F0FAFE4049088000214848DE
:10265000006802F02BF803D201203B4908701CE00F
:1026600000214348006801F021FF03D2FF203649D2
:10267000087012E000214448006802F017F803D205
:1026800001203149087008E000213F48006801F04E
:102690000DFF02D2FF202C4908702E480068072148
:1026A000B0FBF1F201FB120018B9FFF765FC4549D8
:1026B00008704448007800F0010098B12248007882
:1026C00001280FD13E48304908600120244902907A
:1026D00003C9CDE90001264802683148016836483F
:1026E000FFF770F83748007800F00200A0B11648F4
:1026F00090F90000401C78B9304823490860012057
:102700000290174803C8CDE900011948026824481F
:1027100001682948FFF756F80E48007800F00300DA
:1027200030B92948007818B11248006800F0B8FFA5
:10273000084800680521B0FBF1F201FB120008B95E
:10274000114843E050E00000880600208A0600207F
:1027500000140040780600207B14AE47E17A843FE5
:10276000700600205C09002074090020500600203B
:102770005C06002048060020008024400080504075
:10278000004050404C060020540600200409002060
:10279000800600209A9999999999B93FC809002013
:1027A000580600200000F03F00A0844000000440D4
:1027B000999928403333D33FD809002000007F4344
:1027C00000007FC38C06002064060020006801F032
:1027D00019FE04B2454A117F454A107A454A92F9DA
:1027E0000030224600F0CCFB434800680521B0FBD6
:1027F000F1F201FB120001280ED14048006801F0FF
:1028000001FE04B2394A117F394A107A394A92F9E5
:102810000030224600F0AAFC374800680521B0FBD2
:10282000F1F201FB1200032845D1354800884FF62C
:10283000FF7101EA40003249088008460088FF28FD
:1028400002DDFF2008800AE02D480088502806DAC3
:102850002B480088002802DD50202949088029489B
:10286000006801F0CFFD04462748006801F0CAFD6A
:102870000546234ECDE9000433781C4E327F1C4EB2
:10288000317A707AFFF750F91C48006801F0BAFD00
:1028900004B21C48006801F0B5FD05B21848007884
:1028A0001A4A0090B2F90610194AB2F906002346F6
:1028B0002A46FFF7BBF81048007800F0070090B9EF
:1028C0001048006801F09EFD04460F48006801F0C2
:1028D00099FD0546064A0094117A507A2B460D4A16
:1028E0001278FEF79BFABDE8FE8F0000E409002095
:1028F00004090020880600207806002054060020E5
:102900008A0600204C060020500600207409002092
:102910005C0900208C0600201FB501212020FFF754
:10292000B3F942F20F70ADF808004720ADF804008B
:102930000020ADF80A00ADF8060001A90F4800F02C
:102940004BF801210D4800F01BF8012211460B48FD
:1029500000F039F837208DF8000002208DF80100D2
:102960008DF8020001208DF803006846FFF72CF96E
:102970000121024800F00AF81FBD000000140040C9
:10298000CA4302827047CA430282704721B102885B
:1029900042F00102028004E002884FF6FE731A4002
:1029A0000280704730B50246002000230024158ABB
:1029B00005EA0103958905EA010413B10CB1012070
:1029C00000E0002030BD1AB183890B43838102E00F
:1029D00083898B4383817047002202881D4B984274
:1029E0000ED01D4B98420BD0B0F1804F08D01B4B3E
:1029F000984205D01A4B984202D01A4B984204D103
:102A00004FF68F731A404B881A43174B984207D0E2
:102A1000164B984204D04FF6FF431A40CB881A4316
:102A200002808B8883850B8803850A4B98420BD0E4
:102A3000094B984208D00E4B984205D00D4B984256
:102A400002D00D4B984201D10B7A03860123838279
:102A500070470000002C0140003401400004004099
:102A600000080040000C004000100040001400402E
:102A700000400140004401400048014010B540F2D0
:102A800024410F4800F044F9C0B10D4800880C48BB
:102A9000001D008800210B48FEF702FA0A48007862
:102AA000012803D108490948FEF75BFC07210548C6
:102AB000FEF724FA01210348FEF7F2F910BD0000E9
:102AC000004C0040300402402C0200203C02002058
:102AD00010B540F225511B4800F01AF9E0B140F260
:102AE0002551184800F0E3F817480078122807DB52
:102AF00000201549087015480078401C13490870DB
:102B0000104800F0C1F912490F4A127888540E4853
:102B10000078401C0C49087040F22441094800F03C
:102B2000F7F870B1074800880648808806480078A2
:102B3000122803D106490748FEF727FC0020024966
:102B4000087010BD005000404502002044020020E3
:102B5000190900200409002010B540F2244113484F
:102B600000F0D6F800B3114800881048001D008816
:102B700000210F48FEF794F90D48FEF79DF90D4925
:102B800008700B48FEF798F9C0F11E00152803D114
:102B900009490A48FEF73CFD1E210548FEF7AEF93B
:102BA00001210348FEF77CF910BD00000038014008
:102BB00058000240D9080020140A0020E40900202F
:102BC00010B540F22441104800F0A2F8D0B10E48F0
:102BD00000880D48001D008800210C48FEF760F9B0
:102BE0000A48FEF769F9C0F1140422460849094869
:102BF000FEF79AFC14210548FEF780F901210348ED
:102C0000FEF74EF910BD0000004400406C00024089
:102C1000B4090020C809002010B540F22441194829
:102C200000F076F860B3174800881648001D008849
:102C300000211548FEF734F91348FEF73DF9134912
:102C400008701148FEF738F9C0F11E00152804D1AC
:102C50000F491048FEF7DCFC0AE00B48FEF72CF9A0
:102C6000C0F11E000F2803D109490B48FEF732FDC1
:102C70001E210548FEF742F901210348FEF710F92D
:102C800010BD00000048004030000240DA0800207B
:102C9000320A0020E4090020020A002001F4007238
:102CA000B2F5007F00D100BFCA430280704710B563
:102CB0000022002340F66A14A14200D100BF0A128C
:102CC00001249440A3B2DC43048010BD21B1828969
:102CD00042F40052828104E082894DF6FF731A406B
:102CE000828170471AB1838A0B43838202E0838A10
:102CF0008B438382704702460020B1F5007F00D1EC
:102D000000BF13880B400BB1012000E0002070478A
:102D100070B50246002400230025002040F66A1604
:102D2000B14200D100BFC1F3421501F01F030126DB
:102D300006FA03F3012D02D19689334006E0022DF5
:102D400002D1168A334001E0968A33400C120126E4
:102D500006FA04F41688344013B10CB1012000E0E7
:102D6000002070BDF0B50346002400260025002099
:102D700040F66A17B94200D100BF1846C1F34214A9
:102D800001F01F06012707FA06F5012C01D10C30CE
:102D900004E0022C01D1103000E014301AB10768B1
:102DA0002F43076002E00768AF430760F0BD0000F3
:102DB0002DE9F04786B005460E460024A24600BF26
:102DC000A1460027B08900B100BF2F462C8A4CF6DF
:102DD000FF700440F08804432C82AC894EF6F31057
:102DE0000440B08831890843718908430443AC81A9
:102DF000AC8A4FF6FF400440B0890443AC8201A87E
:102E0000FEF772FF1F48874202D1DDF810A001E0F3
:102E1000DDF80CA0A88900F4004040B10AEBCA001C
:102E200000EB0A1031684900B0FBF1F807E00AEB4B
:102E3000CA0000EB0A1031688900B0FBF1F8642089
:102E4000B8FBF0F004012009642101FB1089A88976
:102E500000F4004040B1322000EBC900B0FBF1F0BB
:102E600000F00700044308E0322000EB0910642161
:102E7000B0FBF1F000F00F0004432C8106B0BDE878
:102E8000F08700000038014001468888C0F3080040
:102E90007047C1F3080282807047000010B502211C
:102EA0002E48FDF76FFC40B102212C48FDF792FB44
:102EB0002B4A00212948FDF70FFE2948294A41687D
:102EC000881A91421BD00BDC2748084478B30D28A0
:102ED00027D0B0F5807F38D0A0F20D1040BB2EE097
:102EE0000D2806D0B0F5807F15D0A0F20D10F8B9EE
:102EF0000BE01B490B311D48FEF718FC2CE018496C
:102F00000B311A48FEF746FC26E015490B311848EC
:102F1000FEF70CFC20E012490B311548FEF73AFC95
:102F20001AE00F490B311348FEF700FC14E000E0F3
:102F300011E00B490B310F48FEF72CFC0CE008495F
:102F40000B310D48FEF7F2FB06E005490B310A484C
:102F5000FEF720FC00E000BF00BF10BD0064004091
:102F60008C0900208D15F81073EC07EF2C09002058
:102F7000440900205C0900207409002000BFFEE71E
:102F80002DE9F04F8BB00646894614461D460020B9
:102F900009900A90834682460890B4F5807F01DD4F
:102FA0004FF4807414F5807F01DA6FF0FF046748F6
:102FB00005706748048005FB04F0002800DB7DBB3A
:102FC000204600F03EFE21F00041074600F00CFED6
:102FD000C0B20890089800F04BFE074688465D484E
:102FE000008800F045FE00225B4BCDE9000100F0B7
:102FF0008FFE3A464346CDE9020100F089FE0022E9
:10300000564BCDE9040100F05BFCCDE9060100F070
:10301000EBFD1FFA80FBCBF100000FFA80FA0024D1
:10302000032E6AD1B9F1000F50D1002C15DD032019
:103030008DF82400E0B28DF82500200A8DF82600D6
:1030400020208DF8270000208DF828008DF8290019
:103050008DF82A008DF82B0065E0002C17DA02208D
:103060008DF824006042C0B28DF825006042000A4D
:103070008DF8260020208DF8270000208DF82800EC
:103080008DF829008DF82A008DF82B004BE0012DDA
:1030900003D103208DF8240002E002208DF82400E3
:1030A00000208DF825008DF8260060208DF827007F
:1030B00000208DF828008DF829000AF0FF008DF817
:1030C0002A004FEA1A208DF82B002CE003208DF8FF
:1030D000240000208DF825008DF8260060208DF852
:1030E000270000208DF828008DF8290010208DF889
:1030F0002A00FF208DF82B0015E003208DF8240016
:1031000000208DF825008DF8260060208DF827001E
:1031100000208DF828008DF8290010208DF82A0055
:10312000FF208DF82B000E4A082109A8FDF730FE7C
:103130000C4908700846007820B90B480078401CFC
:10314000094908700BB0BDE8F08F0000940600201C
:10315000960600209A0600200000F03F00E06F4035
:10316000F3E3F81098060020990600202DE9F04FAF
:103170008BB00646894614461D46002009900A90E9
:10318000834682460890B4F5807F01DD4FF4807459
:1031900014F5807F01DA6FF0FF0405FB04F00028CE
:1031A00000DB7DBB204600F04CFD21F000410746CE
:1031B00000F01AFDC0B20890089800F059FD0746CB
:1031C00088465648008800F053FD0022544BCDE954
:1031D000000100F09DFD3A464346CDE9020100F0B2
:1031E00097FD00224F4BCDE9040100F069FBCDE9CA
:1031F000060100F0F9FC1FFA80FBCBF100000FFA8A
:1032000080FA0024032E6AD1B9F1000F50D1002CAE
:1032100015DD03208DF82400E0B28DF82500200A8A
:103220008DF8260028208DF8270000208DF8280032
:103230008DF829008DF82A008DF82B0065E0002C10
:1032400017DA02208DF824006042C0B28DF8250004
:103250006042000A8DF8260028208DF82700002003
:103260008DF828008DF829008DF82A008DF82B00A4
:103270004BE0012D03D103208DF8240002E0022051
:103280008DF8240000208DF825008DF82600682098
:103290008DF8270000208DF828008DF829000AF00D
:1032A000FF008DF82A004FEA1A208DF82B002CE041
:1032B00003208DF8240000208DF825008DF82600CD
:1032C00068208DF8270000208DF828008DF829004F
:1032D00010208DF82A00FF208DF82B0015E0032028
:1032E0008DF8240000208DF825008DF82600682038
:1032F0008DF8270000208DF828008DF82900102077
:103300008DF82A00FF208DF82B00074A082109A814
:10331000FDF73EFD0BB0BDE8F08F00009C060020DD
:103320000000F03F00E06F40F3E4F81010B56FF0DC
:103330000400FEF7C3FF0A4800680A49B0FBF1F039
:10334000094908700846007800EB4001C1EBC01045
:103350004FF6FF7101EAC0000449088010BD00006B
:103360000000002000127A00140000201600002047
:103370000146114A12884A434FF0E0235A61002265
:103380009A611A46126942F001021A6100BF4FF0B9
:10339000E022106900F001021AB100F48032002A24
:1033A000F5D04FF0E022126922F001024FF0E02345
:1033B0001A6100229A61704716000020FEB5464A45
:1033C00007CA8DE8070045490868454901F0A2F899
:1033D0000646444900F0E6FE054601F02FF884B2A7
:1033E000E01704EB1060000A8DF804003B49086800
:1033F0003B4901F08FF806463A4900F0D3FE0546F6
:1034000001F01CF884B2E01704EB10600012A4EB8A
:103410000020C0B28DF8050030494868304901F0FD
:1034200079F806462F4900F0BDFE054601F006F882
:1034300084B2E01704EB1060000A8DF806002749FB
:103440004868274901F066F80646264900F0AAFEBA
:10345000054600F0F3FF84B2E01704EB10600012A1
:10346000A4EB0020C0B28DF807001C4988681C49F5
:1034700001F050F806461B4900F094FE054600F0A6
:10348000DDFF84B2E01704EB1060000A8DF808003D
:1034900012498868124901F03DF80646114900F0CA
:1034A00081FE054600F0CAFF84B2E01704EB10600D
:1034B0000012A4EB0020C0B28DF809009DF80300B3
:1034C000811C0DF1020000F00FF88DF80A000B21AD
:1034D0006846FEF711FBFEBD10480008D809002021
:1034E0000000C8420060EA4610B502460B460021C3
:1034F000002003E0545C0444E0B2491C9942F9DB2B
:1035000010BD000070B500211348006801F0CEF82E
:103510000AD212491048006800F0FCFF0546104925
:1035200000F040FE04460CE00B48006880F00046C6
:103530000A49304600F0EEFF0546094900F032FE28
:1035400004460849204601F0B1F800D2054C204657
:1035500000F074FFC0B270BD5C0600200000C841DE
:103560000000484200007F432DE9F84F19480090C1
:103570000A210D20FDF7DEFE824600F079FB804631
:103580004FF06632144B00F0C3FB06460022134B8B
:1035900000F096F9044600F0ADF811490860009873
:1035A00000F0D4FD804689460D48006800F0CEFD4D
:1035B00006460C4A0C4B00F0DFFC044642464B46E4
:1035C00000F07EF981F00041824600F093F8BDE8FA
:1035D000F88F00004B7DB53D66660A4000FEAF40A7
:1035E000380200201F85EB51B81E01408360426005
:1035F0000160704708B532244FF4A060FEF71CFB51
:1036000000200423082207210090FDF7DFF9FFF7CF
:103610008DFEFEF7B9FA1A48FEF7D0FB4FF4E13001
:10362000FEF77CF94FF49640FDF786FC4FF4E1304D
:10363000FEF742FD4FF07E53124A13491348FFF73D
:10364000D5FFFFF769F9FCF77DFF18E01048006827
:1036500008B9012000E000200D490860FFF784FF51
:103660000C4908600C48007848B9601E040006D177
:103670000846006809490860012007490870E5E725
:10368000A08601009A99993E00004842D80900207E
:10369000AC01214268060020640600206C06002070
:1036A0002DE9F04104460F480168204601F03AF840
:1036B0000546284600F04AFD21F0004106460A4A28
:1036C0000A4B00F0E9FA00D200250949284600F02B
:1036D00021FF074600F096FE0646FDF7CDFCBDE84B
:1036E000F0810000680600209A9999999999B93F4C
:1036F00000007A4421F00042A2F16052B2F5801F2E
:1037000001F0004328BFD2F17F6C0BD95FEA001CA7
:1037100043EAC20242EB507018BF704728BF20F046
:1037200001007047B2F5801FBCBF184670474FEAD2
:10373000410C1CF5001F02D2084600F0B2BF70B564
:1037400000F090FB00000089FFF7F6BF4FF000404B
:10375000A0F580007047000010B591EA030F48BF44
:1037600083F0004300F11084841A71EB030C05D23E
:10377000121943EB0C03001B61EB0C01DFF824E191
:103780004FEA1154A4EB135C1EEA430F18BF9EEAE4
:10379000445F73D023EA0E03DCF1200E21EA0451CA
:1037A00043F4801332D322FA0CFE10EB0E0023FAFE
:1037B0000CFE41EB0E01CCF1200E03FA0EFE10EBD5
:1037C0000E0051F10001B1F5801FCCF1200E32D274
:1037D00001EB045112FA0EF2BDE8104058BF7047D9
:1037E000401C38BF5FEA420218BF7047002814BF70
:1037F00020F0010041F100014FEA410313F5001FE1
:1038000038BF7047A1F1C04100F07ABB012A43EBF9
:103810000302ACF1200CDCF11F0E32BF4FF0000EA2
:1038200023FA0CF310EB030041EB0451B4EB115FEE
:10383000D0D0A1EB045101F5801149085FEA3000B6
:1038400001EB04510ED350F1000038BF12FA0EFE06
:1038500008D1BDE81040C9E7401C38BF5FEA42020A
:10386000CAD1C3E7BDE810404FEA410313F5001F7A
:1038700038BF7047A1F1C04100F042BB9EEA445FEF
:1038800008D011EA5E0FBDE8104004BF01F000410E
:1038900000207047BDE8104070B500F0E3FA00BFAB
:1038A00064FBBE3E0000E0FF491058BFC1F140413B
:1038B0005B1058BFC3F140438B42EFF30080704769
:1038C0002DE9C04130B4DFF8A0C23CEA111418BFA2
:1038D0003CEA131400F0EC8081EA03051CEA1114A1
:1038E00044EAD57418BF1CEA131500F0C780A4EB96
:1038F00005044FF0004545EAC12145EAC32341EAEA
:10390000505143EA525304F17F74994204F5003454
:103910004FEAC0204FEAC22208BF904200F09C80CC
:103920004FEA13650FF24016765D4FEA134506FB2A
:1039300005F7C7F1807706FB07F74FEAD737A7FBF4
:1039400003687642C8F58038A7FB06CE38BFA8F1D9
:10395000010807FB08E64FF0000EA6FB028CE6FB11
:1039600003CEDCF1000CCEF1004E38BFAEF1010EFB
:10397000A6FB0C584FF000074FF00005E6FB0E8742
:10398000A1FB08C6A0FB07CE16EB0E0645F100050D
:10399000E1FB076515F1E04E7EBFA4F580345FEAD8
:1039A00046066D4116F1800745F100054FEA1727DD
:1039B0004FEA066647EA0567A6F1DE46B6F1805F84
:1039C0004FEA15251FD9384624F0010C05EBC471C8
:1039D000BCF1FE6F01EB0C1102D8F0BCBDE8008118
:1039E00024425CBF01F5801E9EEAC47F02D4F0BC75
:1039F000BDE80081244238D4F0BCA1F1C041BDE84B
:103A0000004100F07DBA4FEAD22242EA43524FEA27
:103A1000D323A7FB02864FEAD02040EA415007FBA0
:103A200003661EEA0E0F4FEAD12105FB026658BF5E
:103A3000A6EB0056B6EB00564FEA520E4EEAC37E96
:103A400018EB0E0E56EB530EBDD518EB02085E4177
:103A50007F1C55F10005B6E74FF480154FF00007C5
:103A60004FF000064FF00008ADE7F0BC4FF000004B
:103A700001F1C04101F00041BDE8008111EA0C1FD5
:103A80000CEA131500D00CE013EA0C1F00F025809F
:103A90004FF00000F0BC81EA030101F00041BDE8F5
:103AA0000081F0BCBDE8004181EA030100F028BAC2
:103AB000F0BCBDE8004170B500F0D4F9097EFC3ED1
:103AC00000F007B881EA03014FF0000001F0004167
:103AD000704781EA030100F013BAF0BCBDE8004171
:103AE0004FF0000021497047FFFDFBF9F7F5F4F2B4
:103AF000F0EEEDEBE9E8E6E4E3E1E0DEDDDBDAD889
:103B0000D7D5D4D3D1D0CFCDCCCBCAC8C7C6C5C4E6
:103B1000C2C1C0BFBEBDBCBBBAB9B8B7B6B5B4B3FD
:103B2000B2B1B0AFAEADACABAAA9A8A8A7A6A5A4E8
:103B3000A3A3A2A1A09F9F9E9D9C9C9B9A999998AC
:103B40009797969595949393929191908F8F8E8E4F
:103B50008D8C8C8B8B8A89898888878786858584DC
:103B600084838382828181800000FF070000F87FC8
:103B700051EA030C17D41CF5801F58BFBCF5801FF9
:103B800000F10680994218BF704708BF9042704705
:103B900007D711F5801F58BF13F5801F19D499421C
:103BA0007047894270471CF5801F08D5BCF5801FFF
:103BB000F7D58B4218BF704708BF824270474FF459
:103BC000001C1CEB410F38BF1CEB430F01D28B4292
:103BD000704770B500F046F9922449004FF000514B
:103BE0004FF08053FFF760BE4FEA1153A3F5806397
:103BF000D3F11E03A8BFD3F1200C08DB4FF0004225
:103C000042EAC12252EA505232FA03F070470942A6
:103C10000BD4102BC4BF0020704703F5787CBCF197
:103C2000FF3F05D04FF0FF3070474FF00000704766
:103C300070B500F017F900BF49922480002070474A
:103C4000F0E710F0004248BF4042B0FA80F310FAAB
:103C500003F10AD0C3F11D0303F580634FEA41501D
:103C600002EB035202EBD12170474FF00000704786
:103C7000B0FA80F310FA03F10AD0C3F11D0303F583
:103C800080634FEA41504FEA035202EBD121704763
:103C90004FF000007047000051EA030C17D41CF5E8
:103CA000801F58BFBCF5801F00F10680994218BFE5
:103CB000704708BF9042704707D711F5801F58BF63
:103CC00013F5801F19D499427047894270471CF53B
:103CD000801F08D5BCF5801FF7D58B4218BF7047F1
:103CE00008BF824270474FF4001C1CEB410F38BFE5
:103CF0001CEB430F01D28B42704770B500F0B2F855
:103D0000922449004FF000514FF08053FFF7CCBD93
:103D1000DFF848C170B51CEA111E1EBF1CEA13155E
:103D20009EEA0C0F95EA0C0F00F06F8081EA030405
:103D300023EA4C134EEAD47E21EA4C1141F480115F
:103D400043F48013AE44A1FB024CA0FB0365AEF12B
:103D50007F7E361955EB0C05A1FB034C4CF100039B
:103D6000A0FB021C16EB0C06654153F1000309424F
:103D700018BF46F0010613F4007F0BD14FEA033160
:103D80004FEA0530340341EA155140EA16506FF00E
:103D900003020AE04FEAC3214FEAC520F40241EAD8
:103DA000555140EA56506FF0020202EB2E4201EBF1
:103DB000025585EACE710AD05FEA440C18BF24F0A0
:103DC000004450F1000041F1000120EAD47040F2BB
:103DD000FE7C624500D270BDA84214BF4FF0804403
:103DE0004FF04044002E08BF0024BEF1806FA8BFF2
:103DF000A1F1C041BDE8704080F282804FF0000028
:103E000001F1C04101F0004170479EEA0C0F0CEA3D
:103E1000131518BF95EA0C0F06D04FF0000081EA89
:103E2000030E0EF0004170BD00F01CF88900013E49
:103E300000F007B800F009B84FEA430C5FEA5C5C99
:103E400008D081EA030100F05BB84FEA410C5FEA59
:103E50005C5CF6D14FF00000014970470000FF079D
:103E60000000F87F0EF1020E2EF0030E5EF8046BD8
:103E7000364205D4012A43EB030515F5001F12D87D
:103E8000012841EB010C1CF5001F0CD80ED14FEAA4
:103E9000D17C15F5001F0CEB4C0C0CF1020C08BF8B
:103EA0004CEBD37C04E04FF0080C01E04FEAD37CEC
:103EB0000CEB4C0526FA05F606F00706B6F1040CE5
:103EC00006D20EEB860CBDE870404CF0010C60474A
:103ED000DFE80CF0090B02024FF000414FF0000048
:103EE000A1F5002170BD19461046012851EB0104CF
:103EF00018BFD4F5001484BF002001F0004170BD4C
:103F00000808A0F500114FEA3101704753EA010C8F
:103F100017D41CF5801F58BFBCF5801F00F1068028
:103F20008B4218BF704708BF8242704707D713F50E
:103F3000801F58BF11F5801F19D48B4270479B42D8
:103F400070471CF5801F08D5BCF5801FF7D5994236
:103F500018BF704708BF904270474FF4001C1CEB1D
:103F6000430F38BF1CEB410F01D2994270470FB489
:103F70000CBC03BCFFF7C1BE10B591EA030F48BFEC
:103F800083F000433FF5F0AB841A71EB030C07D2CA
:103F900012198CF0004C43EB0C03001B61EB0C017D
:103FA000DFF8A4E14FEA1154A4EB135C1EEA430FBF
:103FB00018BF9EEA445F00F0B08023EA6E035242CD
:103FC00021EA0451C3EB6E0338BF5B1EDCF1200E07
:103FD00025D322FA0CFE10EB0E0043FA0CFE41EB47
:103FE0000E01CCF1200E03FA0EFE10EB0E0051F183
:103FF0000001CCF1200E29D412FA0EF201EB04518B
:10400000BDE8104058BF7047401C1CBFB2F1004FC4
:10401000704700280CBF491C20F00100704712EBCC
:10402000020E43EB030218BF4FF0010E4EEA4202AC
:10403000ACF1200CDCF11E0E54D943FA0CFE10EB4F
:104040000E0051F1FF31CCF11E0ED5D50EF1010E4F
:1040500012FA0EFE404141EB010101EB445C5FEAC4
:104060005C5C10D910EBDE7001EB045138BFBEF17F
:10407000004FBDE8104018BF704700280CBF491C16
:1040800020F00100704730D24FEAD42C11F5001116
:1040900024F400641BD0B1FA81F20B3AA41AA41ED6
:1040A000D2F12003914030FA03F31943904001EB21
:1040B000CC71002C01EB0451BDE81040A8BF704743
:1040C00001F1C0414FF0000001F000417047B0FA2B
:1040D00080F310FA03F100D110BDE41A173C480533
:1040E000C90AE4E701EB045110BD491001EB04518A
:1040F000BDE810404FEA300002E04FF00001704789
:104100004A0008BF0042F8D0B2F5001F28BF704730
:1041100001F000414FF0000070479EEA445F07D075
:1041200011EA5E0FBDE8104004BF00210020704777
:10413000BDE8104070B5FFF795FE00BF40DFF63ECA
:1041400083F00041104670470000E0FF43004FEA53
:10415000D30C4FEA3C0C43401FBF40070CF16051A9
:1041600013F0FE4F70471CF0006F03D100200CF0DD
:10417000004170470CF0004343EA507010B540EA2C
:10418000CC0000F048FA00BF000000924FEA0001A6
:10419000FFF7B6BE4FF000414FF00000A1F500213F
:1041A0007047000090EA010F48BF81F0004100F124
:1041B000C082421A3CBF801A89184FEAD0524FF091
:1041C0007F4C1CEA410FA2EBD15318BF9CEA026F4F
:1041D00000F03B804FF0004C4CEA00204CEA0121FB
:1041E00021FA03FC10EB0C0C1ED202F1FF325FEA45
:1041F0001C2040EBC25038BF70471CF07F0F4FEAC5
:10420000400C18BFBCF17F4F38BF7047C3F120038B
:10421000994008BF20F00100BCF17F4F38BF7047C4
:10422000A0F1C04000F03DBA4FEA3C00000A40EB6C
:10423000C25028BF1CF0FF0F4FEA400CE6D018BF59
:10424000BCF17F4F38BF7047EAE79CEA026F05D0A8
:1042500010EA5C0F08BF00F00040704710B500F096
:10426000DAF900BF64FBBE3E401058BFC0F14040C9
:10427000491058BFC1F140418142EFF300807047BF
:104280004FF47F0C1CEAD0121EBF1CEAD11392EA35
:104290000C0F93EA0C0F00F0858090EA010F48BFE5
:1042A00042F4807240F4000C41F400002CF07F4195
:1042B00020F07F4000B58142A2EB03020FF2081C00
:1042C000ACEB504EC0F100009EF800E04FEA4E0EFD
:1042D00000FB0EFC38BF49004FEA2C1C02F5FA0225
:1042E0000CFB0EF34FEACE1E4FEA112C4FEAC12110
:1042F0000EEB635E42EB22420EFB0CFC4FEA1C53BA
:1043000000FB03114FEA112C4FEA01310EFB0CFCAC
:104310004FEADC4C00FB0C11C14228BF09184CEBE2
:1043200003335DF804EB10EB410143EBC250B2F5EF
:104330007C0F38BF704729D512F0F00F1CBF00F179
:10434000C04000F0004070470081828384858687EA
:1043500088898B8C8D8E8F919293959697999A9C44
:104360009D9FA0A2A3A5A7A8AAACAEB0B2B3B5B7B3
:10437000B9BCBEC0C2C5C7C9CCCED1D4D7D9DCDF89
:10438000E2E6E9ECF0F3F7FAFE0000004FEA400C39
:104390000CF1807CBCF17E4F28BF7047B0F1C0406B
:1043A00000F07FB990EA010F0CEAD11348BF42F444
:1043B0008072624538BF634507D213F47F0F16D071
:1043C00080EA010000F00040704710B500F023F9CA
:1043D000097EFC3E00F005B880EA010000F00040D4
:1043E000704780EA010000F0004000F05AB912F472
:1043F0007F0F04BF0248704780EA010000F051B906
:104400000000C07F41000B0ED3F19E0208D950F48A
:1044100000034FEA032323FA02F048BF40427047EB
:1044200010B500F0F8F800BF4992248000207047D2
:104430006FF0004282EA200070470000C10DD1F108
:104440009E0206DB4FEA002343F0004323FA02F00A
:104450007047004207D54FEA4001B1F1FE4F02D24A
:104460004FF00000704710B500F0D5F84992248055
:10447000002070476FEA20007047000010F00041F4
:1044800048BF4042B0FA80F310FA03F2C3F19D0333
:104490000BD051EAC35101EB1220530638BF7047CD
:1044A00000F1010008BF20F00100704750EA010C44
:1044B00000F113801CF5000F58BFBCF5000F01D4AC
:1044C0008842704707D710F5000F58BF11F5000F4D
:1044D00015D488427047894270471CF5000F04D5F7
:1044E000BCF5000FF7D5814270474FF0807C1CEB84
:1044F000400F38BF1CEB410F01D28142704710B50D
:1045000000F089F8922449004FF000504FF080519C
:10451000FFF7AABE4FF47F0C1CEAD0121EBF1CEAA4
:10452000D11392EA0C0F93EA0C0F00F0478090EA47
:10453000010F48BF42F480724FF0004C4CEA00205B
:104540004CEA012102EB0302A0FB0113A2F50002D9
:10455000002918BF43F001035B0028BF4FEA330373
:1045600042EB22425FEA132C4CEBC2502EBFBCEB55
:10457000436FB2F57C0F70474FEA036CBCF1004FFC
:1045800008BF20F00100B2F57C0F38BF70470BD593
:1045900082F0FF0212F5803FC8BF704700F1C040B3
:1045A000D8BF00F00040704700F5000C5FEA4C0CEB
:1045B00048BF7047B0F1C04000F073B890EA010FF7
:1045C0000CEAD11348BF42F48072624538BF63459C
:1045D00004D280EA010000F00040704710B500F0FE
:1045E0001AF800BF8900013E00F007B800F009B8D2
:1045F0005FEA410C5FEA1C6C08D080EA010000F021
:1046000050B85FEA400C5FEA1C6CF6D14FF00040F6
:10461000A0F5800070470EF1020E2EF0030E5EF83A
:10462000044B244204D44FEA4102B2F17F4F11D827
:104630004FEA4003B3F17F4F0CD80ED14FEAD07C44
:10464000B2F17F4F0CEB4C0C0CF1020C08BF4CEBA1
:10465000D17C04E04FF0080C01E04FEAD17C0CEB78
:104660004C0324FA03F404F00704B4F1040C06D25A
:104670000EEB840CBDE810404CF0010C6047DFE805
:104680000CF0070802024FF00040A0F5800010BDBA
:104690000846420018BFD2F1807288BF00F0004087
:1046A00010BDFF2141EAD050C005704751EA000C0F
:1046B00000F113801CF5000F58BFBCF5000F01D4AA
:1046C0008142704707D711F5000F58BF10F5000F52
:1046D00015D481427047894270471CF5000F04D5FC
:1046E000BCF5000FF7D5884270474FF0807C1CEB7B
:1046F000410F38BF1CEB400F01D28842704780EA5F
:10470000010081EA000180EA0100FFF7F8BE80F0B5
:10471000004090EA010F7FF54CAD81F0004100F0C0
:1047200008B8000090EA010F48BF81F000413FF552
:1047300040AD421A04D882F00042A0EB02001144BE
:104740004FEAD0524FF07F4C1CEA410FA2EBD153FD
:1047500018BF9CEA026F4AD04FF0004C4CEA002090
:104760004CEA012121FA03FCB0EB0C0C0FD412F03F
:10477000FE0F36D05FEA4C001DD5001240EBC25050
:1047800038BF70471CF03F0F18BF70470BE0A2F115
:1047900001025FEA1C2040EBC25038BF70471CF09A
:1047A0007F0F18BF7047C3F12003994014BF401E0C
:1047B00020F00100704780084FEA122308BF7047BD
:1047C000B0FA80FCA2EB0C02CCF1280C60FA0CF0E1
:1047D00093EA122F04BF00EBC25070474FEAC37038
:1047E0007047130A5FEADC1008BF7047F6E79CEADF
:1047F000026F04D010EA5C0F08BF0020704710B5AC
:10480000FFF709FF40DFF63E81F0004070470000EF
:1048100066CC0506000000000000000066CC02091E
:104820000000000000000000000000004C480008EC
:1048300000000020040900006C010008C8490008BD
:1048400004090020AC070000D0010008500600A2B7
:104850004A040001A00901020304060708091061C7
:1048600014200D0204060800C1814001C0804104EB
:10487000610C2108E118A11C011A3001163801361B
:1048800060012E70012F6000FF00C0C101C3030250
:10489000C2C60607C705C5C404CC0C0DCD0FCFCECC
:1048A0000E0ACACB0BC90908C8D81819D91BDBDAFC
:1048B0001A1EDEDF1FDD1D1CDC14D4D515D717161C
:1048C000D6D21213D311D1D010F03031F133F3F22C
:1048D0003236F6F737F53534F43CFCFD3DFF3F3E0C
:1048E000FEFA3A3BFB39F9F83828E8E929EB2B2A9C
:1048F000EAEE2E2FEF2DEDEC2CE42425E527E7E65C
:104900002622E2E323E12120E0A06061A163A3A2CB
:104910006266A6A767A56564A46CACAD6DAF6F6E4B
:10492000AEAA6A6BAB69A9A86878B8B979BB7B7A7B
:10493000BABE7E7FBF7DBDBC7CB47475B577B7B69B
:104940007672B2B373B17170B0509091519353526B
:104950009296565797559594549C5C5D9D5F9F9E8B
:104960005E5A9A9B5B99595898884849894B8B8A1B
:104970004A4E8E8F4F8D4D4C8C44848545874746DB
:104980008682424383418180031A40000109FF1C53
:1049900009FD1C09FF000DFF1C0401430140055ADD
:1049A00045983C0A120F0201394909FF9009FC9011
:1049B0001A3242600909030001000814840809142E
:0849C000290300803F00000004
:0400000508000215D8
:00000001FF
