:020000040800F2
:1000000098070020ED010008C5230008E922000838
:100010001923000805180008F53100080000000049
:100020000000000000000000000000001928000887
:100030000B1E000800000000652500082D2900089F
:10004000070200080702000807020008070200086C
:10005000070200080702000807020008070200085C
:10006000070200080702000807020008070200084C
:10007000070200080702000807020008070200083C
:100080000702000807020008C9120008070200085A
:10009000B93100080702000807020008591E0008CD
:1000A000070200080702000807020008070200080C
:1000B000070200080702000891290008070200084B
:1000C00007020008070200080702000807020008EC
:1000D000070200080702000807020008952F000821
:1000E0000D1E0008070200080702000807020008AA
:1000F00007020008070200080702000807020008BC
:1001000007020008070200080702000807020008AB
:10011000070200080702000807020008070200089B
:10012000070200080702000807020008070200088B
:1001300000F002F800F04AF80AA090E8000C8244AF
:100140008344AAF10107DA4501D100F03FF8AFF28C
:10015000090EBAE80F0013F0010F18BFFB1A43F0A5
:1001600001031847EC3D00000C3E0000103A24BF8C
:1001700078C878C1FAD8520724BF30C830C144BF0C
:1001800004680C607047000000230024002500264E
:10019000103A28BF78C1FBD8520728BF30C148BFEA
:1001A0000B607047662903F05086642900F0808058
:1001B000002070471FB500F035FB0400002000212F
:1001C00003F01CF9E0601FBD10B510BD00F046FC47
:1001D0001146FFF7EFFF03F07DF800F064FC03B475
:1001E000FFF7F2FF03BC03F01BF80000094880474B
:1001F00009480047FEE7FEE7FEE7FEE7FEE7FEE709
:10020000FEE7FEE7FEE7FEE704480549054A064B20
:1002100070470000312900083101000898010020D2
:1002200098070020980300209803002070470000E2
:100230000FB4044910B503AA029800F0E1FA10BC0B
:100240005DF814FB180000202DE9F0410E4604462D
:10025000002020622046E168884730B3252805D079
:10026000D4E901219047206A401CF2E7E16820466A
:1002700000278847050018D0A5F14100192802D8A9
:1002800020354FF400673246294620462760FFF7A5
:1002900089FF40B1012804D0F61D26F00706083674
:1002A000D8E7361DD6E72846DAE7206ABDE8F081B0
:1002B0002DE9F0410646002410687529314616A53F
:1002C00010D0AFF30080002802DA404213A507E007
:1002D00031688A0701D512A502E0490704D511A5A6
:1002E000012401E0AFF3008000210A2206F1240777
:1002F00009E0B0FBF2FCB0FBF2F302FB1C00303073
:1003000078541846491C0028F3D123462A46304623
:10031000BDE8F04100F00CB8000000002D00000026
:100320002B000000200000007047704770477047A6
:100330002DE9F0470D4699469246044600F12408FF
:100340000168880604D5E06921F01001216000E011
:100350000120A84201DD471B00E00027A1697A19AE
:1003600002EB0900081AA0612078C00602D42046DA
:10037000AFF30080002608E0D4E901211AF8060056
:100380009047206A401C761C20624E45F4DB2078A2
:10039000C0060AD52046AFF3008006E0D4E901216B
:1003A00030209047206A401C2062381EA7F10107C8
:1003B000F4DC07E0D4E9012118F805009047206A31
:1003C000401C2062281EA5F10105F3DC2046AFF396
:1003D00000802078000602D50220BDE8F0870120C9
:1003E000FBE770472DE9FF4F0C461E464FF0FF37E5
:1003F0008BB0D2E90001DDF860800A908A46C1F333
:100400000A5505B93D46002108464FF00000BAF1F3
:10041000000F00F4400005DA00EB80004FF44001CB
:1004200001EA50004FEA9059B9F1010F00DDB946D9
:100430000A9850EA4A000ED044F61050A5F2FF3553
:1004400045432F14B8F1000F1ED07542291E1EDD42
:10045000C9F100021CE0B8F1010F4FF0000001D01B
:10046000302103E0F24305E02154401CB042FBDBA5
:1004700030460022002121540B99C1F80880C1E9BF
:1004800000200FB0BDE8F08FBD1B6D1CDEE74A46B3
:1004900000DA694206A800F067FA06AB93E80700A5
:1004A00003AB83E8070050460A9900F045FB8DE84E
:1004B0000700A0F500501F3800900398002D0ADDBA
:1004C00042F21F014A460844002303A903906846EC
:1004D00000F0AEFD09E0A0F500504A461F380023A9
:1004E00003A90390684600F0B8FD8DE807000004FA
:1004F000000C03D04FF0FF30410800E01046B8F187
:10050000000F03D00022009215461EE0751E05D490
:1005100000F08CF9303262556D1EF9D5B3460122D8
:10052000084302D000227F1C04E02078302801D14B
:1005300000227F1E002A099784D01DE0112D07DAC2
:1005400000F074F9303262556D1C50EA0102F5D1A9
:10055000084302D00098C8B10EE00021681E05E0F3
:10056000235C625C63542254401E491C8142F7DBC9
:10057000AB46A81B401E0990002004F80B000B9806
:10058000099AC0F80880C0E9002B7AE711264FF0DD
:10059000000857E72DE9F04F88460446D21D22F0A7
:1005A000070191B0D1E90001CDE90A0102F024FE72
:1005B00002460B98C00F01D02D2007E0206881076C
:1005C00001D52B2002E0202101EAC000032A099076
:1005D00001D0072A05DB03464146204600F084F996
:1005E0000BE12078800601D5E06900E00620B8F133
:1005F000650F814606D0B8F1660F18D0B8F1670FC5
:1006000070D131E00020B9F1110F009001DB11230E
:1006100001E009F101030AAA01A90CA8FFF7E2FE13
:10062000DDE90C70002609F10105834647E0012051
:100630004B4600904FF000470AAA01A90CA8FFF70B
:10064000D1FEDDE90DB00C995D46002610B909F127
:1006500001000D18B9EB050003D4C0F1FF3609F114
:100660000105A5EB09002BE0B9F1010F01DA4FF00C
:1006700001090020B9F1110F0090484601DD112356
:1006800000E003460AAA01A90CA8FFF7ABFEDDE9CA
:100690000C704D4600268346207800070AD4AB45EF
:1006A00000DA5D4601A8012D04DD411911F8011C95
:1006B000302907D04F4502DA17F1040F04DA012080
:1006C00082460FE06D1EEEE7002F02DCED1B3E447C
:1006D00003E0781CA84200DD7D1CB81B00F1010A74
:1006E0004FF000472078000703D4AA4501DB4FF004
:1006F000FF3A0021B7F1004F0DF143088DF8431088
:1007000024D002202B23002F01DA7F422D230A213F
:10071000021EA0F1010000DC5FB197FBF1FC97FB2A
:10072000F1F201FB1C7C17460CF1300C08F801CDEE
:10073000EEE7A8F1010003702188090501D54521E4
:1007400000E06521A0F1010800F8011C09980FA93B
:10075000A1EB0807FF1D00B10120411901EBEA7070
:10076000A1693844081A401EA0612078C00602D44E
:100770002046AFF30080099828B1D4E901219047C1
:10078000206A401C20622078C00622D52046AFF3A4
:1007900000801EE0002E04DBB34502DD01A8805D71
:1007A00000E03020D4E901219047206A401C2062FB
:1007B000761CAAF101005FEA000A0AD100F032F8C3
:1007C000C0680168405CD4E901219047206A401C60
:1007D0002062281EA5F10105DCDC07E0D4E9012137
:1007E00018F8010B9047206A401C2062381EA7F1C0
:1007F0000107F3DC2046AFF30080032011B041E68F
:10080000074B70B50D467B4400F05BF80446284664
:1008100000F01CF910B14FF0FF3070BD204670BDE4
:10082000AF2A0000004870475801002030B5B0F1F1
:100830000A024FEA900E71F100034EEA817EB0EB9E
:100840000E0061EB91014FEA101E4EEA017E10EBA3
:100850000E0041EB11114FEA102E4EEA016E10EB23
:100860000E0041EB11214FEA104E4EEA014E10EB03
:100870000E0041EB1141401841F100014FEAD00058
:1008800040EA41704FEAD10110EB80054FEA810444
:1008900044EA907444EB01046D1944EB0404521BC8
:1008A000A3414FF0000348BF0A3200D530BD401CC1
:1008B00041F1000130BD000001694A1C0261087865
:1008C000704700B58FB0CDE9013100210591054990
:1008D0007944CDE9031011466846FFF7B5FC0FB027
:1008E00000BD0000E5FFFFFF2DE9F0411F46044673
:1008F00003260168072A01F4006004DB08B116A58D
:1009000005E016A503E008B115A500E015A521F046
:1009100010002060A069C01EA0610FB1401EA06140
:100920002046AFF300804FB1D4E90121384690470B
:10093000206A401C2062C01C206206E0206AFAE7A0
:10094000D4E9012115F8010B9047761EF8D2204614
:10095000AFF30080BDE8F0814E414E006E616E0045
:10096000494E4600696E66002DE9F04781461646FD
:100970008AB0354878440DC88DE80D003248784477
:10098000801C03AC0DC884E80D0041F69B30084480
:10099000372190FBF1F290FBF1F5A5F1800501FB09
:1009A00012041B3C02D56442012000E00020DFF865
:1009B00098A080460027FA44AAF1BE0A0EE0E0079C
:1009C0000AD03246684607EB470101230AEB810152
:1009D00000F043FB8DE8070064107F1C002CEED173
:1009E000194F7F44AE3F19E0E80715D007EB04101C
:1009F0000DF1180A90E80E008AE80E00C068F04277
:100A000001D1981908903246012306A903A800F0E5
:100A100024FB03AB83E807006D10641C002DE3D1B9
:100A20004FF0010332466946B8F1000F03A802D027
:100A300000F0FEFA01E000F010FBC9E90001C9F87E
:100A400008200AB0BDE8F08754350000007B00F0B4
:100A50008000704700487047380100207546FFF756
:100A6000F9FFAE4605006946534620F0070085466B
:100A700018B020B5FFF7C8FBBDE820404FF00006D6
:100A80004FF000074FF000084FF0000B21F0070176
:100A9000AC46ACE8C009ACE8C009ACE8C009ACE8B9
:100AA000C0098D46704710B50446AFF3008020465C
:100AB000BDE81040FFF793BB4FF0013C50F8042B0A
:100AC00051F8043B9A4221D1A2EB0C03934313EA61
:100AD000CC1317D150F8042B51F8043B9A4215D18E
:100AE000A2EB0C03934313EACC130BD150F8042B65
:100AF00051F8043B9A4209D1A2EB0C03934313EA49
:100B0000CC13DBD04FF00000704700BFD01A01BA01
:100B1000B1FA81F101F0180122FA01F0CB40C1F1E4
:100B20002001DBB2C0B2C01A2CFA01F3D11A9143F2
:100B300011EAC311E6D170475FEA400C08BF91F09B
:100B4000000F4FEA8C234FEAC12243EA51514FEA8A
:100B50001C5018BF00F5F0404FEA300018BF41F0BC
:100B600000415FEA6C5C00F02980BCF1FF3F08BFE8
:100B700040F080407047130C06BF12044FF0100C79
:100B80004FF0000C130E04BF12020CF1080C130FEF
:100B900004BF12010CF1040C930F04BF92000CF17E
:100BA000020CD30F04BF52000CF1010C11464FF0A0
:100BB0000002A0F11F00A0EB0C00704711F0004FE5
:100BC00008BF704731F000413FF4D5AF0B0C06BFB2
:100BD00009044FF0100C4FF0000C0B0E04BF09027B
:100BE0000CF1080C0B0F04BF09010CF1040C8B0F66
:100BF00004BF89000CF1020CCB0F04BF49000CF1BB
:100C0000010CCCF12003A0EB0C0022FA03F302FA52
:100C10000CF241EA030100F10100704720F07F4C23
:100C200080EA030023F07F47ACEB070303F57C5316
:100C300000F0004003F1FF032DE980494FEA154B16
:100C400009B44FEA144325EA0B4E24EA03480FF295
:100C5000042606EB132749083E785FEA320203FBBD
:100C60000667C7F5000707FB06F64FEA54374FEA59
:100C7000D64606F1020607FB066CCCF1005C4FEA93
:100C80001C472CEA074C07FB06F40CFB06F504EBAB
:100C900015464FEA961634BF00204FF000404FEA49
:100CA000D13706FB07FC4FEA1C4C0CFB0BF7D21BA1
:100CB00003FB0CF761EB07010CFB0EF7B0EB0740F1
:100CC00072EB17420CFB08F734BFA2EB0742B2EB02
:100CD000074261EB17414FEA0C444FEA910706FBCC
:100CE00007FC4FEA1C4C0CFB0BF7B0EBC74072EB58
:100CF000573203FB0CF734BFA2EBC742B2EBC7423B
:100D000061EB57310CFB0EF7B0EBC70072EB57727B
:100D10000CFB08F734BFA2EBC702B2EBC70261EBD2
:100D20005771039F4FEA816141EA921104EBCC04B1
:100D30004FEAD1374FEA826206FB07FC42EA901283
:100D40004FEA80604FEA1C4C0CFB0BF7D21B03FBF5
:100D50000CF761EB07010CFB0EF7B0EB074072EBF1
:100D600017420CFB08F734BFA2EB0742B2EB074275
:100D700061EB17414FEA8C554FEA910704EB9C2435
:100D800006FB07FC4FEA1C4C0CFB0BF7B0EBC74013
:100D900072EB573203FB0CF734BFA2EBC742B2EB46
:100DA000C74261EB57310CFB0EF7B0EBC70072EB9B
:100DB00057720CFB08F734BFA2EBC702B2EBC702B5
:100DC00061EB577115EB4C254FEA816141EA9211B5
:100DD0004FEA82624FEAD13742EA901206FB07FCE3
:100DE00044F100044FEA80604FEA1C4C0CFB0BF707
:100DF000D21B03FB0CF761EB07010CFB0EF7B0EB0A
:100E0000074072EB17420CFB08F734BFA2EB074216
:100E1000B2EB074261EB174115EB1C154FEA81312C
:100E200041EA92414FEA823242EA90424FEA8030F0
:100E30004FEA0C7644F1000448EA03434EEA0B48BB
:100E40004FF0000EB2EB080C71EB030724BF6246B3
:100E500039464EEB0E0E4FF0000B0018524149413F
:100E60004BEB0B0BB2EB080C71EB03077BF1000BA8
:100E700024BF624639464EEB0E0E4FF0000B0018B1
:100E8000524149414BEB0B0BB2EB080C71EB0307E2
:100E90007BF1000B24BF624639464EEB0E0E51EA41
:100EA000020718BF46F0010616EB0E7655F1000258
:100EB00054F1000103D5BDE88901BDE80088BDE813
:100EC0008901BDE80048B619524141EB0101A3F187
:100ED0000103704780807F7E7D7C7B7A797877768E
:100EE00076757473727171706F6E6E6D6C6C6B6A07
:100EF0006A696868676666656464636362616160A5
:100F0000605F5F5E5E5D5D5C5C5B5B5A5A59595821
:100F1000585757565655555554545353525252518B
:100F2000515050504F4F4F4E4E4D4D4D4C4C4C4BE1
:100F30004B4B4A4A4A494949484848474747474628
:100F40004646454545444444444343434342424264
:100F500042414141002B9C4630D477002BD01CB538
:100F60004FEA370703B44FF010004FF01001BAF109
:100F7000000F06D0BCF1000FDCBF40F0080040F0CD
:100F800008014FF000000FBCBDE810400BF1010B51
:100F9000BBF1010F08BF5FEA170722BF12F1010280
:100FA00011F101014FF0004143F1000300F0004056
:100FB00043EA00007047F9D35708D0E746EA0646EF
:100FC00013F1400F4FEA16461FDD13F1200FDFBF6C
:100FD00016430A46002120335B42BED0C3F12007EE
:100FE00046EA064602FA07F74FEA164646EA0706B9
:100FF000C3F1200722FA03F201FA07F721FA03F1FD
:101000004FF0000342EA0702A7E746EA020646EA73
:1010100006464FEA164646EA0106BCBF46EA0646C1
:10102000360C4FF000034FF000024FF0000194E740
:101030002DE9804C9A46934670B491E8380007C871
:1010400031EA400C48BF34EA430C03D5FFF7E6FD14
:10105000FFF780FFF0BCBDE8008C2DE9804C9A467C
:10106000934670B491E8380007C810F0804F08BF6D
:1010700013F0804F03D100F005F8FFF76BFFF0BCD1
:10108000BDE8008C20F07F4780EA030023F07F4C0E
:1010900007EB0C03A3F57C5300F00040A3F1FE0323
:1010A00092F0000F00F0B38095F0000F00F0778011
:1010B0002DE901494FEA11404FEA144621EA004860
:1010C00000FB06FC24EA064708FB06F607FB08F8C7
:1010D00000FB07F718EB06484CEB164C4FEA124B97
:1010E00018EB07484FEA15464CEB174022EA0B4E27
:1010F0000BFB06FC25EA06470EFB06F607FB0EFE79
:101100000BFB07F71EEB064E4CEB164C4FF00006A0
:101110001EEB074E4CEB174B18EB0B0840F1000091
:1011200018EB0E0B58EB000840F100008F1A4FF03F
:1011300000013CBFC943661B14BFB5EB040C002182
:101140003CBFC943F61B4FEA17444EEA8E0E27EA0E
:1011500004454FEA1C4704FB07622CEA074C05FBD9
:1011600007F70CFB05F604FB0CFC16EB074642EBFD
:10117000174216EB0C4642EB1C421BEB060658EBE3
:101180000202414146EA9E0601D5BDE80189B61931
:10119000524141EB0101A3F10103BDE801894FEA8E
:1011A00014454FEA114724EA054621EA074C05FB9E
:1011B00007F406FB07F70CFB06F105FB0CFC11EB33
:1011C000074144EB17444FEA124711EB0C4144EB43
:1011D0001C4422EA074C05FB07F206FB07F70CFB51
:1011E00006F605FB0CFC16EB074642EB174216EB26
:1011F0000C4642EB1C456A1854F1000148BF704789
:10120000B619524141EB0101A3F10103704795F07A
:10121000000F37D04FEA11424FEA144721EA024645
:1012200024EA074C02FB07F106FB07F70CFB06F468
:1012300002FB0CFC14EB074441EB17414FEA154746
:1012400014EB0C4441EB1C4125EA074C02FB07F56B
:1012500006FB07F70CFB06F602FB0CFC16EB074639
:1012600045EB174516EB0C4645EB1C42121951F1A4
:10127000000148BF7047B619524141EB0101A3F18B
:10128000010370474FEA14454FEA114724EA054627
:1012900021EA074C05FB07F106FB07F70CFB06F2FA
:1012A0004FF0000605FB0CFC12EB074241EB174127
:1012B00012EB0C4251EB1C4148BF7047921841EBB6
:1012C0000101A3F1010370472DE9F0474FF490614C
:1012D000104800F093F8D8B14FF490610D4800F039
:1012E00024F814210B4800F09BF8824602F026FAFD
:1012F00006464FF06632084B02F034FA04460022EC
:10130000064B02F0C3F8804602F08EF804490860EC
:10131000BDE8F0870024014066660A400000B04046
:1013200040000020CA430260704700220A12D343E3
:101330000360704721B1826842F00102826003E0DD
:10134000826822F0010282607047000010B50446F6
:101350001248844208D10121401501F0E3F900212F
:10136000601501F0DFF917E00D48844208D1012132
:10137000001501F0D7F90021201501F0D3F90BE099
:101380000848844208D10121C80301F0CBF90021AB
:101390004FF4004001F0C6F910BD000000240140E8
:1013A00000280140003C014021B1826842F4004223
:1013B000826003E0826822F40042826070470A463D
:1013C0000021816821F4E0411143816070470146AA
:1013D00000208A6802F004020AB1012000E0002027
:1013E00070470146C86C80B27047024600201368FF
:1013F0000B400BB1012000E00020704770B50246A1
:101400000020002300240B125568CEB205EA060422
:1014100015681D4015B10CB1012000E0002070BD21
:1014200008B5024600200090009201F12800009BC0
:10143000184400900098006880B208BD0146002062
:101440008A6802F008020AB1012000E0002070471B
:1014500010B50023CBB21AB144681C43446002E0CB
:1014600044689C43446010BD30B502460020002310
:1014700050680F4C20400D790C6844EA0524204345
:10148000506090680B4C2040D1E902542C434D79B8
:1014900044EA450420439060D06A20F470000C7C3C
:1014A000641EE4B2234340EA0350D06230BD000022
:1014B000FFFEF0FFFDF7F1FFF0B5044615460020F2
:1014C00000220026092911DDE068A1F10A0707EBD7
:1014D000470C072707FA0CF29043A1F10A0707EB24
:1014E000470703FA07F21043E0600CE0206901EBC4
:1014F000410C072707FA0CF2904301EB410703FA6E
:1015000007F210432061A06BC0F30156EF1C06F1F7
:10151000010CA7EB0C0707EB870C1F2707FA0CF24F
:101520009043EF1C06F1010CA7EB0C0707EB8707B4
:1015300001FA07F21043A063F0BD10B50A4600217E
:101540000023816B21F44011531E41EA0351816352
:1015500010BDF0B504460D4600200021092D11DD17
:10156000E068A5F10A0606EB4607072606FA07F12A
:101570008843A5F10A0606EB460603FA06F108437E
:10158000E0600CE0206905EB4507072606FA07F145
:10159000884305EB450603FA06F108432061072A54
:1015A0000FDA606B561E06EB86071F2606FA07F158
:1015B0008843561E06EB860605FA06F1084360636B
:1015C00022E00D2A0FDA206BD61F06EB86071F26B6
:1015D00006FA07F18843D61F06EB860605FA06F1E0
:1015E0000843206310E0E06AA2F10D0606EB8607CF
:1015F0001F2606FA07F18843A2F10D0606EB8606C0
:1016000005FA06F10843E062F0BD816841F0080187
:101610008160704721B1826842F4A002826003E0D9
:10162000826822F4A0028260704721B1826842F48D
:101630000212826003E0826822F402128260704724
:10164000816841F0040181607047000030B10749B2
:10165000096841F40001054A116005E00349096881
:1016600021F40001014A1160704700000824014084
:1016700000B587B00121042001F044F8012148029F
:1016800001F040F80121084601F00CF84FF4004049
:1016900000F0FCFF2020ADF8040000208DF80700CA
:1016A00001A9544800F010FD0420ADF8040000200A
:1016B0008DF8070001A94F4800F006FD4E48FFF7DE
:1016C00045FE002002908DF80C008DF80D004FF4BF
:1016D000602004900020059001208DF8180002A9D8
:1016E0004548FFF7C1FE01214348FFF723FE0120D3
:1016F000FFF7ACFF4048FFF788FF00BF3E48FFF709
:101700009DFE0028FAD13C48FFF79AFF00BF3A48F7
:10171000FFF75DFE0028FAD101213748FFF70DFFE2
:1017200000224FF490613448FFF792FE00203349C5
:1017300008804FF4E0413048FFF741FE01212E4878
:10174000FFF732FE01231A4605212B48FFF7B4FEAE
:1017500004212948FFF7E6FD01212748FFF765FF2F
:101760001020274908701CE000BF04212248FFF721
:101770003CFE0028F9D014211F48FFF751FE1F49F5
:10178000098808441D49088004211B48FFF7CAFD49
:1017900001211948FFF749FF19480078401E1849F0
:1017A0000870174800780028DED101231A46052169
:1017B0001148FFF781FE00210F48FFF700FE0122CC
:1017C0004FF490610C48FFF743FE12208DF80000A3
:1017D00001208DF8010002208DF8020001208DF813
:1017E0000300684600F0F0FD01210348FFF712FFF7
:1017F00007B000BD00080140002401403400002073
:101800003600002000BFFEE7B1F5007F3AD00FDCC4
:10181000202928D006DC01291CD004291DD0082944
:1018200040D11DE0402921D0B1F5807F3AD126E09A
:10183000B1F5004F31D006DCB1F5806F25D0B1F5A0
:10184000006F2FD124E0B1F5803F12D0B1F5003FF9
:1018500028D111E0154A826025E00822C26022E00A
:101860001022C2601FE0082202611CE01022026107
:1018700019E00822426016E01022426013E00422C0
:10188000426010E0042242600DE0042242600AE05F
:10189000002282610422426005E00022826104226B
:1018A000426000E000BF00BF70470000010101007E
:1018B00010B50021837A012202FA03F13D4A126831
:1018C00042F001023B4B1A603A4A1C3212688A43CA
:1018D000384B1C331A60027BCAB9364A0C32126884
:1018E0008A43344B0C331A604288C38842EA03436C
:1018F000304A4032847A42F834300288838842EA9F
:1019000003432C4A4032847A02EBC4025360027BC8
:10191000012A19D1274A0C3212680A43254B0C338D
:101920001A604288038842EA0343224A4032847A9A
:1019300042F83430C288838842EA03431D4A403269
:10194000847A02EBC4025360C27A3AB9194A121D72
:1019500012688A43174B1B1D1A6006E0154A121DB8
:1019600012680A43134B1B1D1A60028932B9114ACF
:10197000143212688A430F4B14331A600289012A09
:1019800006D10C4A143212680A430A4B14331A6007
:10199000427B012A06D1074A1C3212680A43054BD2
:1019A0001C331A60034A126822F00102014B1A60CC
:1019B00010BD00000066004070B504460D460026CC
:1019C00060692840002871D0B5F5807F5CD010DCBC
:1019D000082D35D006DC012D20D0022D24D0042D79
:1019E00072D127E0102D31D0202D35D0402D6BD174
:1019F00038E0B5F5004F60D009DCB5F5007F49D07F
:101A0000B5F5806F4CD0B5F5006F5DD14FE0B5F501
:101A1000803F2DD0B5F5003F56D12FE0A0682D496D
:101A200000F0EAF9064651E0E068032100F0E4F92D
:101A300006464BE0E068082100F0DEF9064645E086
:101A4000E068102100F0D8F906463FE02069032144
:101A500000F0D2F9064639E02069082100F0CCF9FF
:101A6000064633E02069102100F0C6F906462DE055
:101A70006068082100F0C0F9064627E06068102180
:101A800000F0BAF9064621E0A069012100F0B4F99E
:101A900006461BE0A069022100F0AEF9064615E0FB
:101AA000A069042100F0A8F906460FE00FE0A06944
:101AB000702100F0A1F9064608E06068042100F0FA
:101AC0009BF9064602E0FFE7002600BF00E0002683
:101AD000304670BD010101001AB143690B434361F7
:101AE00002E043698B434361704730B502460020F2
:101AF0000023146824F002041460146844F0010404
:101B0000146000E05B1C546804F001041CB94FF63B
:101B1000FF74A342F6D1546804F001040CB900200C
:101B20006CE08C79012C04D1146844F080041460BA
:101B300003E0146824F080041460CC79012C04D1F3
:101B4000146844F04004146003E0146824F0400476
:101B500014600C7A012C04D1146844F02004146041
:101B600003E0146824F0200414604C7A012C04D1A2
:101B7000146844F01004146003E0146824F01004A6
:101B800014608C7A012C04D1146844F008041460A9
:101B900003E0146824F008041460CC7A012C04D10A
:101BA000146844F00404146003E0146824F004048E
:101BB00014608C78A407CD7844EA05640D7944EA72
:101BC00005444D7944EA05540D886D1E2C43D461BB
:101BD000146824F001041460002300E05B1C5468C6
:101BE00004F001041CB14FF6FF74A342F6D154680F
:101BF00004F001040CB1002000E0012030BD000021
:101C00002DE9F0418AB004460D4616461F46DDF820
:101C100040800121082000F075FD0121084600F0F8
:101C200071FD0121480600F04DFD01214FF4EA103D
:101C300000F0D6FA4FF40070ADF8240003208DF8C0
:101C4000260018208DF8270009A92D4800F03CFA3D
:101C50004FF48070ADF8240048208DF8270009A9C2
:101C6000274800F031FA00208DF81E008DF81F0083
:101C70008DF8200001208DF8210000208DF8220031
:101C80008DF823008DF81A808DF81B408DF81C60AC
:101C90008DF81D50ADF8187006A91A48FFF725FFFA
:101CA00000208DF812008DF8130001208DF814002B
:101CB0000020ADF80800ADF80A00ADF80C00ADF852
:101CC0000E00ADF8100001208DF8150002A8FFF7F6
:101CD000EFFD012202210B48FFF7FEFE14208DF8D4
:101CE000040001208DF805008DF806008DF807002E
:101CF00001A800F069FB00200AB0BDE8F0810000F7
:101D0000000C01400064004010B500F5D87303EBEF
:101D100001131B6803F004031372137A53B900F51F
:101D2000D87303EB01131B6840F2FF7404EA5353AA
:101D3000136009E000F5D87303EB01131B686FF023
:101D4000604404EAD303536000F5D87303EB011336
:101D50001B6803F00203537200F5D87303EB011301
:101D60005B6803F00F03937200F5D87303EB011364
:101D70005B681B0AD37400F5D87303EB01139B68EF
:101D8000D37200F5D87303EB01139B681C0A14731C
:101D900000F5D87303EB01139B681C0C547300F51A
:101DA000D87303EB01139B681B0E937300F5D87374
:101DB00003EB0113DB68D37300F5D87303EB011356
:101DC000DB681C0A147400F5D87303EB0113DB689D
:101DD0001C0C547400F5D87303EB0113DB681B0E65
:101DE000937421B9C36843F02003C36003E003691F
:101DF00043F02003036110BD0246002002EA010304
:101E00000BB1012000E000207047704710B54FF47F
:101E1000004000F04BF898B14FF4004000F040F85B
:101E200010210A4800F024FA28B909480088401C0B
:101E30000749088004E006480088401E04490880DD
:101E4000034800880349088010BD0000000C0140D1
:101E50006C0000206800002010B5402000F026F83B
:101E600090B1402000F01CF810210A4800F000FA60
:101E700028B909480078401C0749087004E0064862
:101E80000078401E04490870034800780349087030
:101E900010BD0000000C01406E0000206A00002010
:101EA0000149086070470000140401400146002009
:101EB0000022074B1B6803EA0102054B14331B6821
:101EC0000B4013B10AB1012000E000207047000070
:101ED00000040140002123498279002A3AD00A46B1
:101EE000126803689A430B461A600A1D1268036859
:101EF0009A430B1D1A60027911440A6803681A4359
:101F00000A60184A0832126803689A43154B08336E
:101F10001A601A1D126803689A43124B0C331A6038
:101F20004279102A0ED11A1F126803681A430D4B0A
:101F300008331A601A1D126803681A43094B0C33E0
:101F40001A600DE00749427911440A6803681A4390
:101F50000A6005E0027911440A6803689A430A603E
:101F600070470000000401401FB501210C2000F063
:101F7000C9FB0121084600F0C5FB01213F4800F0E4
:101F80002FF94FF40040ADF80C0048208DF80F00F9
:101F900003208DF80E0003A9394800F095F81020B1
:101FA000ADF80C0048208DF80F0003208DF80E00CE
:101FB00003A9344800F088F84020ADF80C00482010
:101FC0008DF80F0003208DF80E0003A92D4800F0B6
:101FD0007BF80120ADF80C0010208DF80F000320D5
:101FE0008DF80E0003A9264800F06EF80121244860
:101FF00000F047F90F21002000F046F84FF40040B0
:10200000019000208DF808000C208DF809000120B7
:102010008DF80A0001A8FFF75DFF0621012000F0FE
:1020200033F80820019000208DF808000C208DF86E
:10203000090001208DF80A0001A8FFF74BFF2820B6
:102040008DF8000002208DF8010003208DF80200B9
:1020500001208DF80300684600F0B6F917208DF8CE
:10206000000002208DF801008DF8020001208DF89B
:102070000300684600F0A8F91FBD00000002300010
:1020800000080140000C014030B500228B071C0FF6
:102090000F2303FA04F20B4B8C1053F824309343B4
:1020A000084C8D1044F8253023468C1053F824300A
:1020B0008C07240F00FA04F42343024C8D1044F8DB
:1020C000253030BD080001402DE9F04102460025D1
:1020D0000026002000230024002791F803C00CF004
:1020E0000F0591F803C00CF0100CBCF1000F03D0E9
:1020F00091F802C04CEA050591F800C0BCF1000F50
:1021000031D0146800202BE04FF0010C0CFA00F3E2
:10211000B1F800C00CEA03069E4220D183004FF0C4
:102120000F0C0CFA03F7BC4305FA03FC4CEA040459
:1021300091F803C0BCF1280F06D14FF0010C0CFA46
:1021400000FCC2F814C00AE091F803C0BCF1480FCB
:1021500005D14FF0010C0CFA00FCC2F810C0401C75
:102160000828D1D31460B1F800C0BCF1FF0F34DDF2
:10217000546800202EE000F1080C4FF0010808FA26
:102180000CF3B1F800C00CEA03069E4221D1830093
:102190004FF00F0C0CFA03F7BC4305FA03FC4CEAB2
:1021A000040491F803C0BCF1280F05D100F1080C1C
:1021B00008FA0CF8C2F8148091F803C0BCF1480F7B
:1021C00007D100F1080C4FF0010808FA0CF8C2F82A
:1021D0001080401C0828CED35460BDE8F081000078
:1021E000F0B50A46002300240021002500F0004637
:1021F000B6F1004F02D11D4EF16901E01B4E71682E
:10220000C0F3034583B200F44016B6F5401F08D171
:1022100021F07061154E766826F07066134F7E606F
:1022200012E000F48016B6F5801F06D1032606FAE8
:1022300005F4A14341F0706106E0460D360103FA52
:1022400006F6B14341F0706122B1460D360103FA42
:1022500006F6314300F00046B6F1004F02D1034EBE
:10226000F16101E0014E7160F0BD0000000001402D
:102270000246002093680B400BB1012000E00020D3
:1022800070474161704701617047000010B5044616
:102290000623012221460948FFF75BF9012107487F
:1022A000FFF7B8F900BF02210448FFF79EF80028A5
:1022B000F9D00248FFF795F810BD00000024014056
:1022C0002DE9F04107460C460025002605E038467A
:1022D000FFF7DCFF0544701CC6B2A642F7DBB5FB76
:1022E000F4F080B2BDE8F08100BFFEE708B501213F
:1022F000042000F007FA0220ADF8000010208DF84D
:10230000030003208DF8020069460248FFF7DCFE57
:1023100008BD00000008014000BFFEE710B500F056
:1023200095F86321072000F0B7F810BD10B50446FA
:10233000322C00DB322414F1320F01DC6FF0310457
:10234000002C12DDA1B21D4800F0CDFD4FF400516C
:102350001B48FFF798FF0021184800F0C6FD4FF416
:1023600080411748FFF78DFF27E0002C13DA604209
:1023700081B2124800F0B9FD4FF480411048FFF7D8
:1023800082FF00210D4800F0AEFD4FF400510C48D3
:10239000FFF777FF11E00021084800F0A4FD4FF49B
:1023A00000510748FFF76DFF0021044800F09DFD34
:1023B0004FF480410248FFF764FF10BD002C01403C
:1023C000000C01407047000070B5002100230F226F
:1023D000C47804B3154C246804F4E064C4F5E064E4
:1023E000210AC1F10403CA40447804FA03F1847855
:1023F0001440214309010E4C0678A155047804F0DD
:102400001F050124AC4005786D11AD0005F1E025F4
:10241000C5F8004109E0047804F01F050124AC4030
:10242000044D0678761145F8264070BD0CED00E0AD
:1024300000E400E080E100E002490143024A11604B
:10244000704700000000FA050CED00E008B501211E
:102450000D2000F057F94FF4E060ADF800001820AF
:102460008DF8030003208DF8020069460848FFF745
:102470002BFE4FF46040ADF8000010208DF80300F3
:1024800003208DF8020069460248FFF71DFE08BDD3
:1024900000080140000C014030B58BB004460D46E9
:1024A0000121C80200F02EF92D4800F067FBADF8BD
:1024B0000450ADF800400020ADF80600ADF8020071
:1024C0006946274800F014FD0121254800F01CFB57
:1024D0006020ADF81C000120ADF81E000020ADF812
:1024E0002000ADF824000820ADF826000120ADF84A
:1024F00022000020ADF82800ADF82A0007A91848EE
:1025000000F04AFC07A9164800F092FC0020ADF844
:102510000E00ADF80C00ADF81000CD20ADF81200A3
:102520000020ADF814004FF40050ADF81600002064
:10253000ADF8180003A90A4800F0F2FA2021084873
:1025400000F0C8FC0121064800F009FB0121044805
:1025500000F0DAFA0121024800F0F5FA0BB030BDC4
:10256000002C0140704700002DE9F84F05460C464D
:102570003C4E3D4F4FF00008281B01F0A7FA3B49A5
:1025800008603B493948006801F0B8FB08D2394976
:102590003648006801F0B2FA02D2002033490860E0
:1025A00035493648006801F0A9FA31D23449334838
:1025B000006801F0A3FB2BD22C4801682F4800686B
:1025C00001F0FAF92D49086004EB840001F07EFA6D
:1025D00081462A480168484601F090FA05D804EB84
:1025E000840001F073FA25490860614201EB810023
:1025F00001F06CFA814621480168484601F07EFBF3
:1026000006D8614201EB810001F060FA1B490860C5
:102610001C4801681548006801F0A2FB834641464A
:1026200001F0A0FA814615480168384601F09AFA8F
:1026300083460E480168304601F094FA59460090EE
:1026400001F0BAF98246494601F0B6F90E49086030
:10265000064800680B4908600B48006801F01AFA48
:10266000BDE8F88FEC51783FAE47E13D58000020BF
:102670000000F0C10000F04100004843600000206D
:10268000000048C3640000205C00002001460020D8
:10269000034A506820F440400843506070470000EF
:1026A0000010024029B1064A52690243044B5A61A4
:1026B00004E0034A52698243014B5A6170470000AB
:1026C0000010024029B1064AD2690243044BDA6184
:1026D00004E0034AD2698243014BDA61704700008B
:1026E0000010024029B1064A12690243044B1A61E4
:1026F00004E0034A12698243014B1A6170470000EB
:102700000010024029B1064A92690243044B9A61C3
:1027100004E0034A92698243014B9A6170470000CA
:102720000010024029B1064AD2680243044BDA6025
:1027300004E0034AD2688243014BDA60704700002C
:102740000010024030B500210022002400232D4D4E
:102750006D6805F00C0121B1042905D0082923D1A9
:1027600005E0294D056022E0274D05601FE0254D5D
:102770006D6805F47012234D6D6805F480340225F0
:1027800005EB92421CB9214D554305600BE01D4DF0
:102790006D6805F400351DB11C4D5543056002E020
:1027A000194D5543056002E0174D056000BF00BF9D
:1027B000144D6D6805F0F0010909154D6B5C056855
:1027C000DD4045600F4D6D6805F4E061090A104D6C
:1027D0006B5C4568DD4085600A4D6D6805F46051AD
:1027E000C90A0B4D6B5C4568DD40C560054D6D68E1
:1027F00005F44041890B074D6B5CC568B5FBF3F5EB
:10280000056130BD0010024000127A0000093D0051
:102810001E0000202E000020704710B500F002F8C6
:1028200010BD00000CB500200190009033480068F6
:1028300040F480303149086000BF3048006800F43F
:10284000003000900198401C0190009818B9019840
:10285000B0F5A06FF1D12948006800F4003010B144
:102860000120009001E0002000900098012843D151
:102870002348006840F010002149086008460068BD
:1028800020F0030008600846006840F0020008607D
:102890001A48406819494860084640684860084638
:1028A000406840F4806048600846406820F47C102E
:1028B00048600846406840F4E810486008460068F0
:1028C00040F08070086000BF0C48006800F00070A5
:1028D0000028F9D00948406820F003000749486003
:1028E0000846406840F00200486000BF0348406866
:1028F00000F00C000828F9D10CBD000000100240C7
:1029000000200240042808D14FF0E021096941F07D
:1029100004014FF0E022116107E04FF0E021096966
:1029200021F004014FF0E022116170477047000070
:1029300010B51348006840F00100114908600846CE
:102940004068104908400E494860084600680E4932
:1029500008400B4908600846006820F480200860A1
:102960000846406820F4FE0048604FF41F0088606D
:10297000FFF753FF4FF000600449086010BD0000EE
:10298000001002400000FFF8FFFFF6FE08ED00E037
:102990002DE9F04786B00B210220FFF791FC4FF4A0
:1029A0007A7100FB01F6F01706EB1050071334485C
:1029B000007800EB80004910C1EB4000314908600D
:1029C0003148008804B231480088844205DB2F4832
:1029D0000088201A2E4908600AE02C4800888442AA
:1029E00006DA04F5803029490988401A2849086028
:1029F0000121284800F0B6F940B10121254800F036
:102A00009FF825480088401C2349088022480088F8
:102A10000A2831D10020204908801D48006864211F
:102A2000484341F2B41190FBF1F0C0EB001080007C
:102A300005B216490C80134801682046FFF794FD43
:102A400082465046FFF772FC1448006800F088FF89
:102A500080468946124800881149091F0988534653
:102A6000CDE90289CDE90075CDE90410044802786A
:102A700021460C48FDF7DCFB06B0BDE8F0870000FE
:102A80006F00002050000020680000205600002049
:102A90004C000020000800405400002040000020AE
:102AA000382C0140E43E00081FB501210420FFF747
:102AB00009FE6320ADF808004F20ADF804000020A7
:102AC000ADF80A00ADF8060001A90E4800F010FAB2
:102AD000012211460B4800F056F91E208DF8000027
:102AE00001208DF8010002208DF8020001208DF8F0
:102AF00003006846FFF768FC0121024800F023F854
:102B00001FBD00000008004021B1028842F0800291
:102B1000028004E002884FF67F731A4002807047FB
:102B20000A884B881A438B881A43CB881A430B892F
:102B30001A434B891A438B891A43A0F844207047E3
:102B4000CA430282704721B1028842F0010202802A
:102B500004E002884FF6FE731A400280704731B1DC
:102B6000B0F8442042F40042A0F8442005E0B0F858
:102B70004420C2F30E02A0F84420704710B504466A
:102B80006848844208D10121C014FFF7CBFD002121
:102B9000E014FFF7C7FDC4E0B4F1804F08D1012174
:102BA0000846FFF79FFD00210120FFF79BFDB8E0DD
:102BB0005D48844208D101210220FFF793FD0021E6
:102BC0000220FFF78FFDACE05848844208D1012174
:102BD0000420FFF787FD00210420FFF783FDA0E01C
:102BE0005348844208D101210820FFF77BFD0021D2
:102BF0000820FFF777FD94E04E48844208D1012178
:102C00001020FFF76FFD00211020FFF76BFD88E01B
:102C10004948844208D101212020FFF763FD0021AB
:102C20002020FFF75FFD7CE04448844208D1012169
:102C30004014FFF777FD00216014FFF773FD70E08B
:102C40003F48844209D10121C804FFF76BFD0021F0
:102C50004FF40020FFF766FD63E03A48844209D153
:102C600001210805FFF75EFD00214FF48010FFF7FA
:102C700059FD56E03448844209D101214805FFF747
:102C800051FD00214FF40010FFF74CFD49E02F48A3
:102C9000844208D101214020FFF724FD002140207B
:102CA000FFF720FD3DE02A48844208D10121802021
:102CB000FFF718FD00218020FFF714FD31E02548C3
:102CC000844208D101218015FFF70CFD0021A015D9
:102CD000FFF708FD25E02048844209D101210804BE
:102CE000FFF720FD00214FF48030FFF71BFD18E0B7
:102CF0001A48844209D101214804FFF713FD00213D
:102D00004FF40030FFF70EFD0BE01548844208D168
:102D100001218804FFF706FD00214FF48020FFF712
:102D200001FD10BD002C01400004004000080040DF
:102D3000000C00400010004000140040003401402E
:102D4000004C014000500140005401400018004078
:102D5000001C0040002000400040014000440140B1
:102D60000048014030B50246002000230024158AA7
:102D700005EA0103958905EA010413B10CB10120AC
:102D800000E0002030BD1AB183890B43838102E04B
:102D900083898B438381704770B500240022002310
:102DA000058C4FF6FE7635400584028C8388048BB3
:102DB0004FF68F752C40B51E2C400D882C43751E88
:102DC0002A400D892A434D882A43144DA8420BD02E
:102DD000134DA84208D0134DA84205D0124DA84269
:102DE00002D0124DA84213D14FF6F7752A404D89F3
:102DF0002A434FF6FB752A408D882A434FF6FF651C
:102E00002B404FF6FF552B408D892B43CD892B430B
:102E100083800483CD888586028470BD002C0140A8
:102E2000003401400040014000440140004801409E
:102E300070B5002400220023058C4FF6EF76354054
:102E40000584028C8388048B48F6FF752C404FF66E
:102E5000FF452C400D884FF6FF7606EA05252C43EA
:102E60004FF6DF752A400D8906EA05152A434D887D
:102E700006EA05152A43154DA84202D0144DA84272
:102E80001DD14FF67F752A404D894FF6FF7606EA31
:102E900005152A434FF6BF752A408D8806EA0515A9
:102EA0002A434FF6FF352B404FF2FF752B408D899B
:102EB00006EA85052B43CD8906EA85052B438380E9
:102EC0000483CD880587028470BD0000002C01407A
:102ED0000034014082884FF68F731A4082808288C6
:102EE0000A438280704781867047018770470000DF
:102EF000002202881D4B98420ED01D4B98420BD0E9
:102F0000B0F1804F08D01B4B984205D01A4B984225
:102F100002D01A4B984204D14FF68F731A404B8857
:102F20001A43174B984207D0164B984204D04FF6DD
:102F3000FF431A40CB881A4302808B8883850B8815
:102F400003850A4B98420BD0094B984208D00E4B90
:102F5000984205D00D4B984202D00D4B984201D1BA
:102F60000B7A03860123838270470000002C014006
:102F7000003401400004004000080040000C004004
:102F80000010004000140040004001400044014097
:102F90000048014010B540F225511D4800F04AF8A4
:102FA00010B31B4800F002F9C4B21A48008800F4BC
:102FB0000040C8B91748008800F4804060B10A2C6E
:102FC00003D000201349088020E01248008840F414
:102FD00000401049088019E00D2C06D10D480088EA
:102FE00040F480400B49088010E00A480088C0F394
:102FF0000D0009490C5407480088401C0549088009
:1030000008460088C72801DD0020088010BD0000A8
:10301000004800401C0000207000002021B182897F
:1030200042F40052828104E082894DF6FF731A4017
:103030008281704770B502460024002300250020DD
:1030400040F66A16B14200D100BFC1F3421501F04B
:103050001F03012606FA03F3012D02D1968933409E
:1030600006E0022D02D1168A334001E0968A3340F1
:103070000C12012606FA04F41688344013B10CB180
:10308000012000E0002070BDF0B5034600240026BA
:103090000025002040F66A17B94200D100BF18464B
:1030A000C1F3421401F01F06012707FA06F5012CAF
:1030B00001D10C3004E0022C01D1103000E01430BA
:1030C0001AB107682F43076002E00768AF43076043
:1030D000F0BD00002DE9F04786B005460E460024FD
:1030E000A24600BFA1460027B08900B100BF2F460D
:1030F0002C8A4CF6FF700440F08804432C82AC8983
:103100004EF6F3100440B0883189084371890843B2
:103110000443AC81AC8A4FF6FF400440B0890443BD
:10312000AC8201A8FFF70EFB1F48874202D1DDF8F1
:1031300010A001E0DDF80CA0A88900F4004040B127
:103140000AEBCA0000EB0A1031684900B0FBF1F845
:1031500007E00AEBCA0000EB0A1031688900B0FBF7
:10316000F1F86420B8FBF0F004012009642101FBB0
:103170001089A88900F4004040B1322000EBC9005A
:10318000B0FBF1F000F00700044308E0322000EB50
:1031900009106421B0FBF1F000F00F0004432C8112
:1031A00006B0BDE8F087000000380140014688887D
:1031B000C0F308007047000000B585B002210B483D
:1031C000FEF7FAFB80B102210848FEF71DFB6A46B4
:1031D00000210648FEF798FD0098B0F5427F03D124
:1031E0009DF80B000249087005B000BD0064004066
:1031F0006F00002000BFFEE7490050EAC12018BF61
:1032000004204A0D18BF40F0010040F2FF72B2EBFB
:10321000515F08BF40F00200012808BF0520704739
:10322000014600BF7047000010B56FF00400FFF7C3
:1032300069FB0A4800680A49B0FBF1F009490870C7
:103240000846007800EB4001C1EBC0104FF6FF715B
:1032500001EAC0000449088010BD00000000002001
:1032600000127A0014000020160000200146114AC6
:1032700012884A434FF0E0235A6100229A611A46AD
:10328000126942F001021A6100BF4FF0E02210699A
:1032900000F001021AB100F48032002AF5D04FF09C
:1032A000E022126922F001024FF0E0231A610022AD
:1032B0009A6170471600002000BF054A128802F08C
:1032C0004002002AF9D0C2B2014B1B1D1A80704780
:1032D0000048004008B54FF4A060FFF7ADF80020AB
:1032E0000423082207210090FEF78AFCFFF79CFFC9
:1032F0004FF4E13000F02EF8FEF7F8FFFEF7B8F9D2
:10330000FFF70CF8FFF7D0FBFEF72EFE1E20FFF7AD
:10331000ADFF0AA0FCF78CFF09A0FCF789FF0BE0CA
:103320000B48006808B9012000E000200849086047
:103330004FF4FA70FFF79AFFF2E700000D0A000061
:1033400053797374656D204F4B21200D0A000000E6
:103350008401214210B586B0044601210820FFF700
:10336000D1F901218804FFF7ADF94FF48060ADF881
:10337000140003208DF8160018208DF8170005A9F9
:103380001C48FEF7A1FE4FF40060ADF814000420C5
:103390008DF8170005A91748FEF796FE27208DF82F
:1033A000000003208DF801008DF8020001208DF847
:1033B00003006846FFF708F801940020ADF8080004
:1033C000ADF80A00ADF80C00ADF810000C20ADF817
:1033D0000E0001A90848FFF77DFE012240F22551A9
:1033E0000548FFF751FE01210348FFF717FE06B01D
:1033F00010BD0000000C01400048004010B500293D
:103400000AD00878002807D005487844FDF754FB17
:10341000002801D0002010BD0248784410BD0000F3
:10342000660B00005E0B000021F00042A2F160522A
:10343000B2F5801F01F0004328BFD2F17F6C0BD999
:103440005FEA001C43EAC20242EB507018BF7047AB
:1034500028BF20F001007047B2F5801FBCBF18469E
:1034600070474FEA410C1CF5001F02D2084600F0DD
:1034700040BC70B500F020FA00000089FFF7F6BFED
:103480004FF00040A0F58000704700002DE9C041DA
:1034900030B4DFF8A0C23CEA111418BF3CEA1314A0
:1034A00000F0EC8081EA03051CEA111444EAD574AB
:1034B00018BF1CEA131500F0C780A4EB05044FF0F9
:1034C000004545EAC12145EAC32341EA505143EA98
:1034D000525304F17F74994204F500344FEAC0203E
:1034E0004FEAC22208BF904200F09C804FEA136569
:1034F0000FF24016765D4FEA134506FB05F7C7F15C
:10350000807706FB07F74FEAD737A7FB03687642B9
:10351000C8F58038A7FB06CE38BFA8F1010807FB25
:1035200008E64FF0000EA6FB028CE6FB03CEDCF1B2
:10353000000CCEF1004E38BFAEF1010EA6FB0C58C8
:103540004FF000074FF00005E6FB0E87A1FB08C611
:10355000A0FB07CE16EB0E0645F10005E1FB076563
:1035600015F1E04E7EBFA4F580345FEA46066D415A
:1035700016F1800745F100054FEA17274FEA066666
:1035800047EA0567A6F1DE46B6F1805F4FEA1525EA
:103590001FD9384624F0010C05EBC471BCF1FE6F55
:1035A00001EB0C1102D8F0BCBDE8008124425CBFE5
:1035B00001F5801E9EEAC47F02D4F0BCBDE8008104
:1035C000244238D4F0BCA1F1C041BDE8004100F074
:1035D000C1B94FEAD22242EA43524FEAD323A7FBB2
:1035E00002864FEAD02040EA415007FB03661EEAFC
:1035F0000E0F4FEAD12105FB026658BFA6EB00561D
:10360000B6EB00564FEA520E4EEAC37E18EB0E0E92
:1036100056EB530EBDD518EB02085E417F1C55F1E9
:103620000005B6E74FF480154FF000074FF0000695
:103630004FF00008ADE7F0BC4FF0000001F1C041D1
:1036400001F00041BDE8008111EA0C1F0CEA1315DE
:1036500000D00CE013EA0C1F00F025804FF00000B2
:10366000F0BC81EA030101F00041BDE80081F0BC3B
:10367000BDE8004181EA030100F06CB9F0BCBDE88F
:10368000004170B500F018F9097EFC3E00F007B863
:1036900081EA03014FF0000001F00041704781EA28
:1036A000030100F057B9F0BCBDE800414FF0000045
:1036B00021497047FFFDFBF9F7F5F4F2F0EEEDEB71
:1036C000E9E8E6E4E3E1E0DEDDDBDAD8D7D5D4D320
:1036D000D1D0CFCDCCCBCAC8C7C6C5C4C2C1C0BF6C
:1036E000BEBDBCBBBAB9B8B7B6B5B4B3B2B1B0AF72
:1036F000AEADACABAAA9A8A8A7A6A5A4A3A3A2A156
:10370000A09F9F9E9D9C9C9B9A9999989797969510
:1037100095949393929191908F8F8E8E8D8C8C8BAC
:103720008B8A898988888787868585848483838234
:10373000828181800000FF070000F87FB0FA80F3EB
:1037400010FA03F10AD0C3F11D0303F580634FEAB9
:1037500041504FEA035202EBD12170474FF0000075
:1037600070470000DFF848C170B51CEA111E1EBF8B
:103770001CEA13159EEA0C0F95EA0C0F00F06F80FF
:1037800081EA030423EA4C134EEAD47E21EA4C1169
:1037900041F4801143F48013AE44A1FB024CA0FB22
:1037A0000365AEF17F7E361955EB0C05A1FB034C8A
:1037B0004CF10003A0FB021C16EB0C06654153F113
:1037C0000003094218BF46F0010613F4007F0BD135
:1037D0004FEA03314FEA0530340341EA155140EA1C
:1037E00016506FF003020AE04FEAC3214FEAC520EA
:1037F000F40241EA555140EA56506FF0020202EBE2
:103800002E4201EB025585EACE710AD05FEA440CE4
:1038100018BF24F0004450F1000041F1000120EAFB
:10382000D47040F2FE7C624500D270BDA84214BF45
:103830004FF080444FF04044002E08BF0024BEF1FA
:10384000806FA8BFA1F1C041BDE8704080F28280C6
:103850004FF0000001F1C04101F0004170479EEAC5
:103860000C0F0CEA131518BF95EA0C0F06D04FF099
:10387000000081EA030E0EF0004170BD00F01CF85C
:103880008900013E00F007B800F009B84FEA430C88
:103890005FEA5C5C08D081EA030100F05BB84FEAA4
:1038A000410C5FEA5C5CF6D14FF0000001497047C3
:1038B0000000FF070000F87F0EF1020E2EF0030E4D
:1038C0005EF8046B364205D4012A43EB030515F577
:1038D000001F12D8012841EB010C1CF5001F0CD869
:1038E0000ED14FEAD17C15F5001F0CEB4C0C0CF1FE
:1038F000020C08BF4CEBD37C04E04FF0080C01E055
:103900004FEAD37C0CEB4C0526FA05F606F00706C9
:10391000B6F1040C06D20EEB860CBDE870404CF0FC
:10392000010C6047DFE80CF0090B02024FF0004188
:103930004FF00000A1F5002170BD19461046012886
:1039400051EB010418BFD4F5001484BF002001F02E
:10395000004170BD0808A0F500114FEA3101704721
:1039600043004FEAD30C4FEA3C0C43401FBF4007D3
:103970000CF1605113F0FE4F70471CF0006F03D143
:1039800000200CF0004170470CF0004343EA5070F7
:1039900010B540EACC0000F066F900BF00000092CC
:1039A0004FEA0001FFF7D6BF4FF000414FF0000093
:1039B000A1F500217047000090EA010F48BF81F097
:1039C000004100F1D481421A3CBF801A89184FEAA5
:1039D000D0524FF07F4C1CEA410FA2EBD15318BFDD
:1039E0009CEA026F00F03B804FF0004C4CEA002054
:1039F0004CEA012121FA03FC10EB0C0C1ED202F15F
:103A0000FF325FEA1C2040EBC25038BF70471CF009
:103A10007F0F4FEA400C18BFBCF17F4F38BF704793
:103A2000C3F12003994008BF20F00100BCF17F4F93
:103A300038BF7047A0F1C04000F05BB94FEA3C00CE
:103A4000000A40EBC25028BF1CF0FF0F4FEA400CA9
:103A5000E6D018BFBCF17F4F38BF7047EAE79CEA59
:103A6000026F05D010EA5C0F08BF00F000407047FD
:103A700010B500F0F8F800BF64FBBE3E401058BF20
:103A8000C0F14040491058BFC1F140418142EFF3BD
:103A90000080704741000B0ED3F19E0208D950F40C
:103AA00000034FEA032323FA02F048BF4042704765
:103AB00010B500F0D8F800BF49922480002070476C
:103AC0006FF0004282EA20007047000010F00041D1
:103AD00048BF4042B0FA80F310FA03F2C3F19D03ED
:103AE0000BD051EAC35101EB1220530638BF704787
:103AF00000F1010008BF20F00100704750EA010CFE
:103B000000F113801CF5000F58BFBCF5000F01D465
:103B10008842704707D710F5000F58BF11F5000F06
:103B200015D488427047894270471CF5000F04D5B0
:103B3000BCF5000FF7D5814270474FF0807C1CEB3D
:103B4000400F38BF1CEB410F01D28142704710B5C6
:103B500000F089F8922449004FF000504FF0805156
:103B6000FFF78CBF4FF47F0C1CEAD0121EBF1CEA7B
:103B7000D11392EA0C0F93EA0C0F00F0478090EA01
:103B8000010F48BF42F480724FF0004C4CEA002015
:103B90004CEA012102EB0302A0FB0113A2F5000293
:103BA000002918BF43F001035B0028BF4FEA33032D
:103BB00042EB22425FEA132C4CEBC2502EBFBCEB0F
:103BC000436FB2F57C0F70474FEA036CBCF1004FB6
:103BD00008BF20F00100B2F57C0F38BF70470BD54D
:103BE00082F0FF0212F5803FC8BF704700F1C0406D
:103BF000D8BF00F00040704700F5000C5FEA4C0CA5
:103C000048BF7047B0F1C04000F073B890EA010FB0
:103C10000CEAD11348BF42F48072624538BF634555
:103C200004D280EA010000F00040704710B500F0B7
:103C30001AF800BF8900013E00F007B800F009B88B
:103C40005FEA410C5FEA1C6C08D080EA010000F0DA
:103C500050B85FEA400C5FEA1C6CF6D14FF00040B0
:103C6000A0F5800070470EF1020E2EF0030E5EF8F4
:103C7000044B244204D44FEA4102B2F17F4F11D8E1
:103C80004FEA4003B3F17F4F0CD80ED14FEAD07CFE
:103C9000B2F17F4F0CEB4C0C0CF1020C08BF4CEB5B
:103CA000D17C04E04FF0080C01E04FEAD17C0CEB32
:103CB0004C0324FA03F404F00704B4F1040C06D214
:103CC0000EEB840CBDE810404CF0010C6047DFE8BF
:103CD0000CF0070802024FF00040A0F5800010BD74
:103CE0000846420018BFD2F1807288BF00F0004041
:103CF00010BDFF2141EAD050C005704751EA000CC9
:103D000000F113801CF5000F58BFBCF5000F01D463
:103D10008142704707D711F5000F58BF10F5000F0B
:103D200015D481427047894270471CF5000F04D5B5
:103D3000BCF5000FF7D5884270474FF0807C1CEB34
:103D4000410F38BF1CEB400F01D28842704780EA18
:103D5000010081EA000180EA0100FFF7F8BE0000DF
:103D600090EA010F48BF81F000413FF52CAE421AA6
:103D700004D882F00042A0EB020011444FEAD05276
:103D80004FF07F4C1CEA410FA2EBD15318BF9CEAC5
:103D9000026F4AD04FF0004C4CEA00204CEA01215F
:103DA00021FA03FCB0EB0C0C0FD412F0FE0F36D04E
:103DB0005FEA4C001DD5001240EBC25038BF70477F
:103DC0001CF03F0F18BF70470BE0A2F101025FEA41
:103DD0001C2040EBC25038BF70471CF07F0F18BF4B
:103DE0007047C3F12003994014BF401E20F001002A
:103DF000704780084FEA122308BF7047B0FA80FC72
:103E0000A2EB0C02CCF1280C60FA0CF093EA122F12
:103E100004BF00EBC25070474FEAC3707047130AEB
:103E20005FEADC1008BF7047F6E79CEA026F04D037
:103E300010EA5C0F08BF0020704710B5FFF713FFB2
:103E400040DFF63E81F000407047FCF7A3BB000066
:103E500002400000000000A000000000054000003B
:103E6000000000C8000000000C4000000000409C62
:103E700000000000194000000020BCBE000000004F
:103E800034400000BFC91B8E00000004B540000094
:103E9000504BCFD06607E2CF010000006C4100001C
:103EA0003E8251AADFEEA73401000000D942000093
:103EB000DCB5A0E23A301F97FFFFFFFFB4450000DA
:103EC000FD25A0C8E9A3C14FFFFFFFFFFF3F000092
:103ED0000000008000000000FF3F000000000080A4
:103EE00000000000B5B1C7B0CEBBD6C3A3BA2564ED
:103EF0002CC4BFB1EACEBBD6C3A3BA25642CBFD8AD
:103F0000D6C6C1BFCEAAA3BA25642CB5E7CEBBC620
:103F1000F7D6B5CEAAA3BA25642CB5B1C7B0CBD914
:103F2000B6C8A3BA25642CB5B1C7B0B5E7BBFAB51E
:103F3000E7C1F7CEAAA3BA25662C434352313A25EE
:103F40006420434352323A2564200D0A20000000C9
:103F50008C3F000800000020700000006C01000889
:103F6000FC3F0008700000202807000088010008BE
:103F70001C00000043000000F8FFFFFF0C000000E1
:103F80000E0000000F0000002E00000000A24A04F6
:103F900000000000000000000102030406070809F9
:103FA000000000000000000000000000000001020E
:103FB00003040102030406070809020406080000BE
:103FC00000000000000000000000000000000000F1
:103FD00000000000000000000000000000000000E1
:103FE00000000000000000000000000000000000D1
:0C3FF000000000000000000000000000C5
:04000005080001ED01
:00000001FF
